:020000040800F2
:1000000000000C20152A0108E1240108E32401085E
:10001000E5240108E7240108E9240108652A01080C
:10002000000000000000000000000000652A010838
:10003000EB24010800000000B1020008A904000838
:10004000652A0108652A0108652A0108652A010850
:10005000652A0108652A0108652A0108652A010840
:10006000652A0108652A0108652A0108F9240108A2
:10007000652A0108652A0108652A0108652A010820
:10008000652A0108652A0108652A0108FD2401087E
:10009000652A0108652A0108652A0108652A010800
:1000A000652A0108652A010801250108652A010859
:1000B000652A01080525010811250108652A01089E
:1000C000652A0108652A0108652A0108652A0108D0
:1000D000652A0108652A0108652A0108652A0108C0
:1000E000652A0108652A0108652A0108652A0108B0
:1000F000652A0108652A0108652A0108652A0108A0
:10010000652A0108ED240108652A0108652A01080D
:10011000652A0108652A0108652A0108652A01087F
:10012000652A0108652A0108652A0108652A01086F
:100130001D250108652A0108652A0108652A0108AC
:10014000652A0108652A0108652A0108652A01084F
:10015000652A0108652A0108652A0108652A01083F
:10016000652A010829250108652A0108652A010870
:10017000652A0108652A0108652A0108652A01081F
:10018000652A0108652A0108652A0108652A01080F
:10019000652A0108652A0108652A0108652A0108FF
:1001A000652A0108652A0108652A0108652A0108EF
:1001B000652A0108652A0108652A0108652A0108DF
:1001C000652A0108652A0108652A0108652A0108CF
:1001D000652A0108652A0108652A0108652A0108BF
:1001E000652A0108652A0108652A0108652A0108AF
:1001F000652A0108652A0108652A0108652A01089F
:10020000652A0108652A0108652A0108652A01088E
:10021000652A0108652A0108652A0108652A01087E
:10022000652A0108652A0108652A0108652A01086E
:04023000652A010832
:1002380010B5054C237833B9044B13B1044800E0DA
:1002480000BF0123237010BDC01100200000000072
:10025800C059020808B5034B1BB10349034800E025
:1002680000BF08BD00000000C4110020C0590208EA
:10027800EFF3108180F31088081C70474FF00000DE
:100288002E4A1060EFF3148020F0040080F31488E5
:1002980062B64FF080504FF0E021C1F8040DBFF373
:1002A8004F8FBFF36F8FFEE72548264A4FF00003B4
:1002B800016891B10360EFF3098C2CE9F00F1EF08F
:1002C800100F01D12CED108A1F4C4CF804EDC1F829
:1002D80008C025680DB18D61236072B61168D1B16F
:1002E800016062B64F68184C8D6907F101074F60CD
:1002F8002560D1F80CC08CF30B88D1F808C05CF8E5
:1003080004EB1EF0100F01D1BCEC108ABCE8F00F12
:100318008CF30988704772B61168016009B962B632
:10032800F9E74FF000674FF0E028C8F8047D62B69F
:10033800D8E700BFB0EE400A70470000886B022083
:10034800786B02207C6B022074710220026922F013
:100358000702A2F144026FF0430313604FF0000359
:1003680053609360D360136153619361D3611362E7
:1003780053629362D362136353634FF0FF33936303
:10038800D1634FF080731364826070472249086814
:1003980000F101000860214B1A683AB1A2F101028C
:1003A8001A601AB91E4B4FF0010018601D49086801
:1003B800026822B11C4B4FF001021A6008E000F1FC
:1003C80004001A4B1A68904201D1194B186808604A
:1003D800134B1A6812B914490868D0B12DE90140C5
:1003E8001149086808B10CF0A7FC0D4B1A6872B1E6
:1003F8000CF0A6FB0F48016849B90F4801680F4A7D
:1004080013680F484FF08052994200D00260BDE84F
:100418000140BFF34F8F7047C06C022074710220F7
:10042800246C02201C6C0220206C0220AC6C022080
:10043800B06C0220886B0220786B02207C6B022053
:1004480004ED00E072B61B481B4901F1040101608C
:100458004FF0E0201949C0F8081D1948016841F01B
:100468000101016017481549096801604FF0E02053
:10047800154941614FF0070101614FF00001C0F8D3
:10048800181D4FF07F41C0F81C1D1049C0F8201DF1
:10049800704700BFFFF7FEBF01B5BDE801407047D8
:1004A80001B5FFF773FFBDE801407047FFF7FEBFD6
:1004B800FFF7FEBF506B022090B402200000000836
:1004C800001000E0106C0220FF7002000000FF40E6
:1004D80010F8012B11F8013B012A28BF9A42F7D0E6
:1004E800D01A7047034613F8012B002AFBD1181ABB
:1004F8000138704781F0004102E000BF83F00043FB
:1005080030B54FEA41044FEA430594EA050F08BFA6
:1005180090EA020F1FBF54EA000C55EA020C7FEA6A
:10052800645C7FEA655C00F0E2804FEA5454D4EBE7
:100538005555B8BF6D420CDD2C4480EA020281EAB1
:10054800030382EA000083EA010180EA020281EAE9
:100558000303362D88BF30BD11F0004F4FEA01313B
:100568004FF4801C4CEA113102D0404261EB41014A
:1005780013F0004F4FEA03334CEA133302D05242D0
:1005880063EB430394EA050F00F0A780A4F101048C
:10059800D5F1200E0DDB02FA0EFC22FA05F28018C6
:1005A80041F1000103FA0EF2801843FA05F35941AC
:1005B8000EE0A5F120050EF1200E012A03FA0EFC2B
:1005C80028BF4CF0020C43FA05F3C01851EBE37155
:1005D80001F0004507D54FF0000EDCF1000C7EEB72
:1005E80000006EEB0101B1F5801F1BD3B1F5001FB0
:1005F8000CD349085FEA30004FEA3C0C04F10104CF
:100608004FEA445212F5800F80F09A80BCF1004FF7
:1006180008BF5FEA500C50F1000041EB045141EA79
:10062800050130BD5FEA4C0C404141EB0101013C42
:1006380028BFB1F5801FE9D291F0000F04BF014631
:100648000020B1FA81F308BF2033A3F10B03B3F103
:1006580020020CDA0C3208DD02F1140CC2F10C0293
:1006680001FA0CF021FA02F10CE002F11402D8BFF1
:10067800C2F1200C01FA02F120FA0CFCDCBF41EABD
:100688000C019040E41AA2BF01EB0451294330BD8C
:100698006FEA04041F3C1CDA0C340EDC04F1140469
:1006A800C4F1200220FA04F001FA02F340EA030040
:1006B80021FA04F345EA030130BDC4F10C04C4F186
:1006C800200220FA02F001FA04F340EA0300294666
:1006D80030BD21FA04F0294630BD94F0000F83F4B0
:1006E800801306BF81F480110134013D4EE77FEA93
:1006F800645C18BF7FEA655C29D094EA050F08BFDF
:1007080090EA020F05D054EA000C04BF19461046BF
:1007180030BD91EA030F1EBF0021002030BD5FEA03
:10072800545C05D14000494128BF41F0004130BD2B
:1007380014F580043CBF01F5801130BD01F000457F
:1007480045F0FE4141F470014FF0000030BD7FEAF2
:10075800645C1ABF194610467FEA655C1CBF0B46ED
:10076800024650EA013406BF52EA033591EA030F04
:1007780041F4002130BD00BF90F0000F04BF0021FC
:10078800704730B54FF4806404F132044FF000052F
:100798004FF0000150E700BF90F0000F04BF0021A8
:1007A800704730B54FF4806404F1320410F000450E
:1007B80048BF40424FF000013EE700BF42004FEA09
:1007C800E2014FEA31014FEA02701FBF12F07F4386
:1007D80093F07F4F81F06051704732F07F4208BF3D
:1007E800704793F07F4F04BF41F40021704730B544
:1007F8004FF4607401F0004521F000411CE700BF90
:1008080050EA010208BF704730B54FF000050AE012
:1008180050EA010208BF704730B511F0004502D513
:10082800404261EB41014FF4806404F132045FEA15
:10083800915C3FF4D8AE4FF003025FEADC0C18BFBE
:1008480003325FEADC0C18BF033202EBDC02C2F1B0
:10085800200300FA03FC20FA02F001FA03FE40EA42
:100868000E0021FA02F11444BDE600BF70B54FF046
:10087800FF0C4CF4E06C1CEA11541DBF1CEA135524
:1008880094EA0C0F95EA0C0F00F0DEF82C4481EA8C
:10089800030621EA4C5123EA4C5350EA013518BFAC
:1008A80052EA033541F4801143F4801338D0A0FB99
:1008B80002CE4FF00005E1FB02E506F00042E0FB46
:1008C80003E54FF00006E1FB03569CF0000F18BF4C
:1008D8004EF0010EA4F1FF04B6F5007F64F54074F4
:1008E80004D25FEA4E0E6D4146EB060642EAC62187
:1008F80041EA55514FEAC52040EA5E504FEACE2EF4
:10090800B4F1FD0C88BFBCF5E06F1ED8BEF1004FF6
:1009180008BF5FEA500E50F1000041EB045170BD72
:1009280006F0004646EA010140EA020081EA0301B6
:10093800B4EB5C04C2BFD4EB0C0541EA045170BDB2
:1009480041F480114FF0000E013C00F3AB8014F12C
:10095800360FDEBF002001F0004170BDC4F1000475
:10096800203C35DA0C341BDC04F11404C4F12005F6
:1009780000FA05F320FA04F001FA05F240EA020051
:1009880001F0004221F0004110EBD37021FA04F687
:1009980042EB06015EEA430E08BF20EAD37070BD41
:1009A800C4F10C04C4F1200500FA04F320FA05F0A0
:1009B80001FA04F240EA020001F0004110EBD370A2
:1009C80041F100015EEA430E08BF20EAD37070BD12
:1009D800C4F1200500FA05F24EEA020E20FA04F3EB
:1009E80001FA05F243EA020321FA04F001F000419A
:1009F80021FA04F220EA020000EBD3705EEA430E0B
:100A080008BF20EAD37070BD94F0000F0FD101F039
:100A18000046400041EB010111F4801F08BF013C72
:100A2800F7D041EA060195F0000F18BF704703F0B0
:100A38000046520043EB030313F4801F08BF013D37
:100A4800F7D043EA0603704794EA0C0F0CEA1355F3
:100A580018BF95EA0C0F0CD050EA410618BF52EAAD
:100A68004306D1D181EA030101F000414FF00000B3
:100A780070BD50EA410606BF1046194652EA4306C1
:100A880019D094EA0C0F02D150EA013613D195EA35
:100A98000C0F05D152EA03361CBF104619460AD17D
:100AA80081EA030101F0004141F0FE4141F4700187
:100AB8004FF0000070BD41F0FE4141F4780170BD77
:100AC80070B54FF0FF0C4CF4E06C1CEA11541DBFDC
:100AD8001CEA135594EA0C0F95EA0C0F00F0A7F8DE
:100AE800A4EB050481EA030E52EA03354FEA01310B
:100AF80000F088804FEA03334FF0805545EA13131E
:100B080043EA12634FEA022245EA111545EA1065E5
:100B18004FEA00260EF000419D4208BF964244F17C
:100B2800FD0404F5407402D25B084FEA3202B61A9B
:100B380065EB03055B084FEA32024FF480104FF46F
:100B4800002CB6EB020E75EB030E22BFB61A7546E3
:100B580040EA0C005B084FEA3202B6EB020E75EB76
:100B6800030E22BFB61A754640EA5C005B084FEADE
:100B78003202B6EB020E75EB030E22BFB61A7546AB
:100B880040EA9C005B084FEA3202B6EB020E75EBB6
:100B9800030E22BFB61A754640EADC0055EA060E77
:100BA80018D04FEA051545EA16754FEA06164FEABA
:100BB800C30343EA52734FEAC2025FEA1C1CC0D166
:100BC80011F4801F0BD141EA00014FF000004FF0F3
:100BD800004CB6E711F4801F04BF01430020B4F1B4
:100BE800FD0C88BFBCF5E06F3FF6AFAEB5EB030C6C
:100BF80004BFB6EB020C5FEA500C50F1000041EB69
:100C0800045170BD0EF0004E4EEA113114EB5C0435
:100C1800C2BFD4EB0C0541EA045170BD41F4801108
:100C28004FF0000E013C90E645EA060E8DE60CEA10
:100C3800135594EA0C0F08BF95EA0C0F3FF43BAF2D
:100C480094EA0C0F0AD150EA01347FF434AF95EAE4
:100C58000C0F7FF425AF104619462CE795EA0C0FC8
:100C680006D152EA03353FF4FDAE1046194622E795
:100C780050EA410618BF52EA43067FF4C5AE50EA6F
:100C880041047FF40DAF52EA43057FF4EBAE12E75F
:100C98004FF0FF3C06E000BF4FF0010C02E000BF40
:100CA8004FF0010C4DF804CD4FEA410C7FEA6C5C23
:100CB8004FEA430C18BF7FEA6C5C1BD001B050EAC6
:100CC800410C0CBF52EA430C91EA030F02BF90EAB1
:100CD800020F0020704710F1000F91EA030F58BF70
:100CE800994208BF90422CBFD8176FEAE37040F0D2
:100CF800010070474FEA410C7FEA6C5C02D150EA70
:100D0800013C07D14FEA430C7FEA6C5CD6D152EA2A
:100D1800033CD3D05DF8040B704700BF84461046EF
:100D280062468C461946634600E000BF01B5FFF7EE
:100D3800B7FF002848BF10F1000F01BD4DF808EDBE
:100D4800FFF7F4FF0CBF012000205DF808FB00BF8F
:100D58004DF808EDFFF7EAFF34BF012000205DF8E9
:100D680008FB00BF4DF808EDFFF7E0FF94BF012036
:100D780000205DF808FB00BF4DF808EDFFF7CEFF37
:100D880094BF012000205DF808FB00BF4DF808ED76
:100D9800FFF7C4FF34BF012000205DF808FB00BF47
:100DA8004FEA410C7FEA6C5C02D150EA013C0AD15F
:100DB8004FEA430C7FEA6C5C02D152EA033C02D151
:100DC8004FF0000070474FF0010070474FEA4102B2
:100DD80012F5001215D211D56FF47873B3EB625285
:100DE80012D94FEAC12343F0004343EA505311F0AC
:100DF800004F23FA02F018BF404270474FF000003E
:100E0800704750EA013005D111F0004008BF6FF07B
:100E1800004070474FF00000704700BF4A0011D2F1
:100E280012F5001211D20DD56FF47873B3EB62523C
:100E38000ED44FEAC12343F0004343EA505323FA48
:100E480002F070474FF00000704750EA013002D1BD
:100E58004FF0FF3070474FF0000070474FEA4102F3
:100E6800B2F1E04324BFB3F5001CDCF1FE5C0DD900
:100E780001F0004C4FEAC0024CEA5070B2F1004F4A
:100E880040EB830008BF20F00100704711F0804F4D
:100E980021D113F13872BCBF01F00040704741F412
:100EA80080114FEA5252C2F11802C2F1200C10FA16
:100EB8000CF320FA02F018BF40F001004FEAC123FA
:100EC8004FEAD32303FA0CFC40EA0C0023FA02F39E
:100ED8004FEA4303CCE77FEA625307D150EA013374
:100EE8001EBF4FF0FE4040F44000704701F0004044
:100EF80040F0FE4040F40000704700BF53B94AB9C3
:100F0800002908BF00281CBF4FF0FF314FF0FF3009
:100F180000F0B8B9ADF1080C6DE904CE00F03CF86A
:100F2800DDF804E0DDE9022304B0704738B500229B
:100F3800002304460D46FFF70BFF28B92046294633
:100F4800BDE8384000F00AB8204605F1004100F03D
:100F580005F8404261EB410138BD00BFD0B5002221
:100F68000B4B06460F46FFF781FCFFF757FF044679
:100F7800FFF702FC0022074BFFF778FC02460B46FE
:100F880030463946FFF7BAFAFFF748FF2146D0BD89
:100F98000000F03D0000F0412DE9F04F099D0446A6
:100FA8000F46002B48D18A42944661D9B2FA82F39F
:100FB80043B1C3F120019F4002FA03FC9C4020FA90
:100FC80001F10F434FEA1C411FFA8CFE220CB7FBBC
:100FD800F1F601FB167706FB0EF042EA0742904253
:100FE80008D91CEB020206F1FF3702D2904200F248
:100FF80037813E46121AA4B2B2FBF1F001FB10226F
:1010080000FB0EFE44EA0244A64508D91CEB040482
:1010180000F1FF3202D2A64500F21C81104640EAD8
:101028000640A4EB0E0400261DB1DC400023C5E9F0
:1010380000433146BDE8F08F8B4209D9002D00F0FE
:10104800FD800026C5E9000130463146BDE8F08F35
:10105800B3FA83F6002E4BD18B42C0F0F280824265
:1010680040F2EF803046002DE3D0C5E90047E0E7C5
:1010780002B9FFDEB2FA82F3002B40F09D80891A94
:101088004FEA124E97B20126200CB1FBFEF20EFB7E
:10109800121140EA014107FB02F088420FD91CEB0C
:1010A800010102F1FF382CBF4FF001094FF0000990
:1010B800884203D9B9F1000F00F0CF804246091ADF
:1010C800A4B2B1FBFEF00EFB101100FB07F744EAD7
:1010D8000144A74208D91CEB040400F1FF3102D2F5
:1010E800A74200F2B4800846E41B40EA02409BE7AE
:1010F800C6F12007B34001FA06F422FA07FCF940CA
:10110800B2404CEA030C20FA07F34FEA1C491C438F
:101118001FFA8CFE00FA06F3200CB1FBF9F809FB64
:10112800181140EA014108FB0EF088420FD91CEB68
:10113800010108F1FF3A2CBF4FF0010B4FF0000BF3
:10114800884203D9BBF1000F00F08D80D046091A00
:10115800A4B2B1FBF9F009FB101100FB0EFE44EA42
:1011680001418E4507D91CEB010100F1FF3401D282
:101178008E457FD8204640EA0840A1EB0E01A0FB2F
:10118800029841454C46C64602D306D14B4504D287
:101198000138B9EB020468EB0C0E002D70D01A1B55
:1011A80061EB0E0122FA06F301FA07F7F140002677
:1011B8001F43C5E900713CE702FA03FCC3F12000B4
:1011C80001FA03F221FA00F64FEA1C4E24FA00F164
:1011D8001FFA8CF79C401143B6FBFEF00A0C0EFB7D
:1011E800106642EA064200FB07F696420ED91CEB4F
:1011F800020200F1FF382CBF4FF001094FF000093F
:10120800964202D9B9F1000F31D04046921B89B2FB
:10121800B2FBFEF60EFB162241EA024106FB07F27C
:101228008A4207D91CEB010106F1FF3801D28A4234
:1012380023D84646891A46EA004625E72E46284618
:10124800F7E6841A61EB030301201F460BE76444A9
:10125800023849E764440238E1E6023A61442EE77D
:10126800023E6244C6E6A8F1020861446FE702380C
:101278006244CBE7023861447DE7023E6144D9E726
:101288002E46D6E6704700BF10B4D0E90140A44608
:101298005DF8044B604710B404688068A4465DF8A4
:1012A800044B604737B501230D4601AA10210446B7
:1012B800FFF7EAFF58B99DF80430102165F383035E
:1012C8008DF804302046012301AAFFF7E4FF03B09C
:1012D80030BD37B501230D4601AA10210446FFF79A
:1012E800D3FF58B99DF80430102165F347138DF8E2
:1012F80004302046012301AAFFF7CDFF03B030BD1B
:1013080037B501230D4601AA0B210446FFF7BCFFA0
:1013180058B99DF804300B2165F3C7138DF80430D4
:101328002046012301AAFFF7B6FF03B030BD0A46E5
:1013380001230F21FFF7A8BF37B501230D4601AAE6
:1013480012210446FFF7A0FF58B99DF80430122176
:1013580065F300038DF804302046012301AAFFF746
:101368009AFF03B030BD13B501230C4601AA122120
:10137800FFF78AFF9DF80430C3F30003237002B01F
:1013880010BD37B501230D466A4610210446FFF704
:101398007BFF50BB9DF80020EB0963F341028DF8F9
:1013A800002001236A4610212046FFF774FFE0B9A8
:1013B80001231721204601AAFFF766FFA8B9C5F344
:1013C8000013C5F340119B0043EA011343EA45119A
:1013D8009DF80430204603F00B0319438DF80410E0
:1013E8000123172101AAFFF756FF03B030BD37B517
:1013F80001230D4601AA13210446FFF745FF58B9FA
:101408009DF80430132165F382038DF804302046DB
:10141800012301AAFFF73FFF03B030BD30B585B007
:101428000D4601230D2101AA0446FFF72DFF60B9DF
:1014380001235E21204603AAFFF726FF28B90123CE
:101448005621204602AAFFF71FFF2B78C3F340015D
:10145800C3F3000242EA8102C3F3800142EAC102F7
:10146800C3F3C00142EA0112C3F3001142EA411278
:10147800C3F3401142EA81129DF8041021F07D0166
:101488000A438DF804206A7802F0010242EAD31177
:10149800C3F380135B0143EAC1139DF80C1001F0FC
:1014A8005F010B438DF80C309DF8083062F345134B
:1014B8008DF8083098B901230D21204601AAFFF7BD
:1014C800EAFE60B901235E21204603AAFFF7E3FE86
:1014D80028B901235621204602AAFFF7DCFE05B0F1
:1014E80030BD30B585B00C4601230D2101AA054653
:1014F800FFF7CAFE60B901235E21284603AAFFF759
:10150800C3FE28B901235621284602AAFFF7BCFECC
:101518009DF80420C2F38001C2F3000343EA4103AB
:10152800C2F3C00143EA8103C2F3001143EAC103D5
:10153800C2F3401143EA0113C2F3801243EA421393
:101548009DF80C20C2F3401143EA8113217803F07F
:101558007F0321F07F010B439DF808102370890653
:1015680049BF6278D20942F001026FF3C71354BF32
:1015780062F3C7136270237005B030BD37B501231D
:101588000C4601AA08210546FFF77EFEA8B90123EB
:101598006A46072128468DF80040FFF77CFE60B9AF
:1015A8009DF80430240A64F300038DF80430082100
:1015B8000123284601AAFFF76EFE03B030BD37B5F8
:1015C80001230D4601AA09210446FFF75DFE58B91B
:1015D8009DF80430092165F303038DF80430204693
:1015E800012301AAFFF757FE03B030BD37B5012329
:1015F8000D4601AA0A210446FFF746FE58B99DF890
:1016080004300A2165F302038DF8043020460123D3
:1016180001AAFFF740FE03B030BD10B4D0E9014085
:10162800A4465DF8044B604710B404688068A4467B
:101638005DF8044B604737B501230D4601AA102118
:101648000446FFF7EAFF58B99DF80430102165F306
:1016580083038DF804302046012301AAFFF7E4FF35
:1016680003B030BD13B5012301AA0C461021FFF7C2
:10167800D4FF9DF80430C3F38102022A07D0032A5D
:1016880005D0012A03D00023237002B010BD2270B8
:10169800FBE713B501230C4601AA1021FFF7BDFF94
:1016A8009DF804301B090B2B1FD8DFE803F01E063A
:1016B8000A0C0E10121416181A1C0123237002B0FB
:1016C80010BD0223FAE70323F8E70423F6E705230E
:1016D800F4E70623F2E70723F0E70823EEE70923F8
:1016E800ECE70A23EAE70B23E8E70023E6E737B548
:1016F80001230D4601AA11210446FFF78EFF58B9B0
:101708009DF80430112165F303038DF80430204659
:10171800012301AAFFF788FF03B030BD13B50123E9
:101728000C4601AA1121FFF778FF9DF8043003F059
:101738000F030C2B08D8DFE803F00B1307070D077E
:1017480007070F07070711000223237002B010BD17
:101758000023FAE70423F8E70823F6E70C23F4E765
:101768000123F2E713B501230C4601AA1121FFF763
:1017780054FF9DF804301B090A2B1DD8DFE803F03D
:101788001C060A0C0E10121416181A0001232370D6
:1017980002B010BD0223FAE70323F8E70423F6E7B3
:1017A8000523F4E70623F2E70723F0E70823EEE72B
:1017B8000923ECE70A23EAE70023E8E7012337B522
:1017C8000D4601AA19460446FFF727FF58B99DF8A8
:1017D8000430204665F387138DF80430012301AAED
:1017E8001946FFF721FF03B030BD0A4601230F2138
:1017F800FFF713BF37B501230D4601AA122104468E
:10180800FFF70BFF58B99DF80430122165F3000368
:101818008DF804302046012301AAFFF705FF03B025
:1018280030BD13B501230C4601AA1221FFF7F5FEBE
:101838009DF80430C3F30003237002B010BD37B520
:1018480001230D4601AA13210446FFF7E6FE58B905
:101858009DF80430132165F382038DF80430204687
:10186800012301AAFFF7E0FE03B030BD37B50C46EF
:1018780002210546FFF7A2FF002840F0D18001238E
:101888000D212846621DFFF7CFFE002840F0C880D2
:1018980001230A212846A21CFFF7C6FE002840F0B3
:1018A800BF8001230B212846E21CFFF7BDFE00285C
:1018B80040F0B68001230C212846221DFFF7B4FE14
:1018C800002840F0AD8001462846FFF777FF002842
:1018D80040F0A680A2782846C2F34013C2F3C001A4
:1018E80043EAD2130B43C2F300121343E278C2F364
:1018F80000010B43C2F340010B43C2F380010B43C9
:10190800C2F3C0010B43C2F300110B43C2F34011F1
:101918000B43C2F380110B4343EAD2132279C2F37B
:1019280000010B43C2F340010B43C2F380010B4398
:10193800C2F3C0010B43C2F300110B43C2F34011C1
:101948000B43C2F380110B4343EAD2136279C2F30B
:1019580000010B43C2F340010B43C2F380010B4368
:10196800C2F3C0010B43C2F300110B43C2F3401191
:101978000B43C2F380110B4343EAD21362780D2163
:1019880063F34102627001232246FFF74DFE0028EF
:1019980046D101235E212846E218FFF745FE0028BC
:1019A8003ED10123582101AA2846FFF736FE2278A6
:1019B800C2F38003C2F3801143EAD2130B43C2F38C
:1019C80040010B43C2F300010B43C2F340110B4328
:1019D800C2F300110B43C2F3C00213436278C2F38F
:1019E80000010B43C2F380010B43C2F3C0010B4358
:1019F800C2F300110B43C2F340110B43C2F3801131
:101A08000B4343EAD2139DF8042063F3C7128DF801
:101A1800042028B901235821284601AAFFF704FE0B
:101A280003B030BD70B50D4602210446FFF7C6FE6F
:101A380078BB01230D2120466A1DFFF7EEFD40BB50
:101A480001230A212046AA1CFFF7E7FD08BB012352
:101A58000B212046EA1CFFF7E0FDD0B901230C2139
:101A680020462A1DFFF7D9FD98B901462046FFF701
:101A7800A5FE70B901232A460D212046FFF7CDFDAA
:101A880038B901232046EA185E21BDE87040FFF707
:101A9800C4BD70BD37B50C4602210546FFF78EFE62
:101AA800002840F0CB80012311212846621DFFF752
:101AB800BBFD002840F0C28001230E212846A21C4D
:101AC800FFF7B2FD002840F0B98001230F21284616
:101AD800E21CFFF7A9FD002840F0B0800123102187
:101AE8002846221DFFF7A0FD002840F0A7800146E8
:101AF8002846FFF763FE002840F0A080A278284619
:101B0800C2F30011C2F3C0030B43C2F340110B43ED
:101B180043EAD213E278C2F300010B43C2F3400157
:101B28000B43C2F380010B43C2F3C0010B43C2F362
:101B380000110B43C2F340110B43C2F380110B4356
:101B480043EAD2132279C2F300010B43C2F34001E6
:101B58000B43C2F380010B43C2F3C0010B43C2F332
:101B680000110B43C2F340110B43C2F380110B4326
:101B780043EAD2136279C2F300010B43C2F3400176
:101B88000B43C2F380010B43C2F3C0010B43C2F302
:101B980000110B43C2F340110B43C2F380110B43F6
:101BA80043EAD21362780E2163F341026270012383
:101BB8002246FFF739FD002840D101235F2128463E
:101BC800E218FFF731FDC8BB01235821284601AAB6
:101BD800FFF723FD90BB22782846C2F34001C2F3E9
:101BE80000030B43C2F380010B43C2F3C0010B4354
:101BF800C2F300110B43C2F340110B43C2F380122E
:101C080013436278C2F380010B43C2F3C0010B4354
:101C1800C2F300110B43C2F340110B43C2F380110E
:101C28000B4343EAD2139DF80420582163F3C712EB
:101C38008DF80420012301AAFFF7F6FC03B030BD9C
:101C480070B50D4602210446FFF7B8FD78BB0123A5
:101C5800112120466A1DFFF7E0FC40BB01230E213D
:101C68002046AA1CFFF7D9FC08BB01230F212046F8
:101C7800EA1CFFF7D2FCD0B90123102120462A1D07
:101C8800FFF7CBFC98B901462046FFF797FD70B9DE
:101C980001232A460E212046FFF7BFFC38B901234D
:101CA8002046EA185F21BDE87040FFF7B6BC70BD5A
:101CB80037B501230D4601AA08210446FFF7ADFCFC
:101CC800A8B99DF804202B0A63F300028DF80420BC
:101CD80001230821204601AAFFF7A6FC38B90123F1
:101CE8006A46072120468DF80050FFF79DFC03B097
:101CF80030BD37B501230D4601AA09210446FFF777
:101D08008CFC58B99DF80430092165F303038DF85C
:101D180004302046012301AAFFF786FC03B030BD3A
:101D280037B501230D4601AA09210446FFF775FCC2
:101D380058B99DF80430092165F307138DF804306C
:101D48002046012301AAFFF76FFC03B030BD37B569
:101D580001230D4601AA0A210446FFF75EFC58B983
:101D68009DF804300A2165F302038DF804302046FB
:101D7800012301AAFFF758FC03B030BD38B50D4662
:101D880002210446FFF71AFD98B901232A46462185
:101D98002046FFF742FC60B9012347212046EA1894
:101DA800FFF73BFC28B901462046BDE83840FFF75D
:101DB80005BD38BD37B50C4602210546FFF7FEFCC8
:101DC80050B901235F21284601AAFFF726FC18B95C
:101DD80001462846FFF7F2FC9DF80430C3F3C10220
:101DE800022A07D0032A05D0012A03D00023237032
:101DF80003B030BD2270FBE737B50D46022104461B
:101E0800FFF7DCFC78B901230521204601AAFFF77A
:101E180004FC40B901462046FFF7D0FC9DF8043089
:101E2800C3F300132B7003B030BD0A4601233821D9
:101E3800FFF7F3BB37B50C4602210546FFF7BEFC9A
:101E4800A8B901236021284601AAFFF7E6FB70B96B
:101E58009DF80430C3F30112022A0AD0032A08D0DD
:101E6800012A06D0207000212846FFF7A7FC03B0FE
:101E780030BD2270F7E773B50D4601A90446FFF798
:101E88007DFF98BB9DF80420C2F34001C2F3000314
:101E98000B43C2F380010B43C2F3C0010B43C2F3EF
:101EA80000110B43C2F340110B43C2F380110B43E3
:101EB80043EAD2139DF80520C2F300010B43C2F395
:101EC80040010B43C2F380010B43C2F3C0010B4333
:101ED800C2F300110B43C2F340110B43C2F380114C
:101EE8000B4343EAD213DB0702D400202E4612E04C
:101EF80020460DF10101FFF75DFF0028F6D19DF89E
:101F08000130032BF2D8DFE803F00223272B012D41
:101F18002E4638BF012600238DF80230002849D10B
:101F280020460DF10201FFF767FF9DF80230012BF3
:101F38003ED120460DF10301FFF77CFF002839D17F
:101F48009DF80330032B12D8DFE803F00E262A2E63
:101F5800012DCAD80226DEE7022DC6D80326DAE705
:101F6800032DC2D80426D6E7012D38BF01252E46F9
:101F780001236A4610212046FFF74FFBD0B99DF890
:101F880000306A4666F307138DF8003010210123EC
:101F98002046FFF749FB0DE0022D38BF0225E6E792
:101FA800032D38BF0325E2E7042D38BF0425DEE7FB
:101FB8000028DDD002B070BD73B50D4601A90446F6
:101FC800FFF7DCFE98BB9DF80420C2F34001C2F382
:101FD80000030B43C2F380010B43C2F3C0010B4360
:101FE800C2F300110B43C2F340110B43C2F380113B
:101FF8000B4343EAD2139DF80520C2F300010B43BB
:10200800C2F340010B43C2F380010B43C2F3C0018A
:102018000B43C2F300110B43C2F340110B43C2F34D
:1020280080110B4343EAD213DB0702D400202E466B
:1020380012E020460DF10101FFF7BCFE0028F6D1A1
:102048009DF80130032BF2D8DFE803F00223272B99
:10205800012D2E4638BF012600238DF802300028B6
:1020680049D120460DF10201FFF7C6FE9DF8023066
:10207800012B3ED120460DF10301FFF7DBFE0028BE
:1020880039D19DF80330032B12D8DFE803F00E2670
:102098002A2E012DCAD80226DEE7022DC6D803262D
:1020A800DAE7032DC2D80426D6E7012D38BF01256B
:1020B8002E4601236A4611212046FFF7AEFAD0B911
:1020C8009DF800306A4666F307138DF80030112139
:1020D80001232046FFF7A8FA0DE0022D38BF02259C
:1020E800E6E7032D38BF0325E2E7042D38BF0425B2
:1020F800DEE70028DDD002B070BD00000F4A10B541
:102108001368032043F48073136000F04BF802F067
:102118003FFA0B4B0B4A1B6A03F00F03D35CD84002
:10212800094B18600F2010F06BF9044618B910F02D
:1021380099FB204610BD0124FBE700BF00200240A8
:10214800000C0246846D0208A8000020034A044BD4
:1021580011681B780B441360704700BFDC11002026
:1021680000000020014B1868704700BFDC110020F8
:1021780038B50446FFF7F6FF0546631C1EBF044B3F
:102188001B78E418FFF7EEFF431BA342FAD338BDD0
:1021980000000020024A536843F00203536070476E
:1021A800004004E0C31E042B10B5044603D9BC212B
:1021B800084810F0C7F823024FF6FF04064903F455
:1021C800E063CA681440234343F0BF6343F4003319
:1021D800CB6010BD045A020800ED00E00F2A70B56C
:1021E80005460C46164603D9D5211B4810F0AAF817
:1021F8000F2C03D9D621184810F0A4F8174BD8682B
:10220800C0F30220C0F10703021D042B28BF0423DA
:10221800062A4FF0FF3298BF002002FA03F388BF66
:10222800033824EA0303834002FA00F026EA000692
:10223800002D43EA0603ACBF05F16045084A4FEAA2
:102248000313DBB2ABBF05F5614505F00F0585F853
:102258000033535570BD00BF045A020800ED00E07A
:1022680014ED00E0002803DAEA21064810F06AB805
:102278000123420900F01F0003FA00F0024B43F863
:1022880022007047045A020800E100E0002803DA3F
:10229800FB21094810F056B80122430900F01F003D
:1022A80002FA00F0054A203342F82300BFF34F8FAB
:1022B800BFF36F8F704700BF045A020800E100E0C7
:1022C800002809DB0122430900F01F0002FA00F090
:1022D800024A603342F82300704700BF00E100E083
:1022E80070B50446FFF73EFF0646002C00F08183D8
:1022F8002368B34DAB4200F0BE80B24A934200F06F
:10230800BA8002F170428032934200F0B48002F148
:102318008052934200F0AF8002F1704280329342C3
:1023280000F0A98002F18052934200F0A48002F1EB
:1023380070428032934200F09E8002F180529342B4
:1023480000F0998002F170428032934200F093804D
:1023580002F18052934200F08E8002F17042803286
:10236800934200F0888002F18052934200F083800B
:1023780002F17042803293427DD002F18052934242
:1023880079D002F170428032934274D002F18052C7
:10239800934270D002F17042803293426BD002F1C6
:1023A8008052934267D002F170428032934262D0E9
:1023B80002F1805293425ED002F170428032934221
:1023C80059D002F18052934255D002F170428032C6
:1023D800934250D002F1805293424CD002F17042A5
:1023E8008032934247D002F18052934243D002F1A7
:1023F8007042803293423ED002F1805293423AD0EA
:1024080002F170428032934235D002F180529342F9
:1024180031D002F17042803293422CD002F18052C6
:10242800934228D002F1764202F59142934222D09B
:1024380002F1805293421ED002F1704280329342E0
:1024480019D002F18052934215D002F170428032C5
:10245800934210D002F1805293420CD002F17042A4
:102468008032934207D002F18052934203D0FA217E
:1024780055480FF067FFE36833F4007206D0B3F5F0
:10248800806F03D0FB2150480FF05CFFE368B3F581
:10249800806F02D0B3F5007F09D16368B3F5007F80
:1024A80005D0712B03D9FE2147480FF04BFFA368D5
:1024B80033F4006304D04FF4807143480FF042FFB7
:1024C800236933F0080304D040F201113E480FF0AD
:1024D80039FF636933F4002304D04FF481713A481B
:1024E8000FF030FFA369022B04D940F203113648DC
:1024F8000FF028FFE36933F4803207D0B3F5003FCB
:1025080004D04FF4827130480FF01CFF236A33F473
:10251800400304D040F205112B480FF013FF236B42
:1025280033F0404304D04FF4837127480FF00AFF7B
:10253800636B23B140F2071123480FF003FF2368B0
:10254800AB4200F094801F4A934200F0908002F161
:1025580070428032934200F08A8002F180529342A6
:1025680000F0858002F17042803293427FD002F100
:10257800805293427BD002F170428032934276D0EF
:1025880002F18052934272D002F17042803293423B
:102598006DD002F18052934269D002F170428032CC
:1025A800934264D002F18052934260D002F17042AB
:1025B800803293425BD002F18052934257D005E0BB
:1025C8005000024050000250645A020802F1704262
:1025D800803293424BD002F18052934247D002F1AD
:1025E80070428032934242D002F1805293423ED0F0
:1025F80002F170428032934239D002F18052934204
:1026080035D002F170428032934230D002F18052CC
:1026180093422CD002F170428032934227D002F1CB
:102628008052934223D002F17042803293421ED0EE
:1026380002F1805293421AD002F1704280329342E2
:1026480015D002F18052934211D002F170428032CB
:1026580093420CD002F18052934208D002F17042AA
:102668008032934203D002F1805293421AD1636AB6
:10267800013B3F2B04D940F20B11B0480FF062FE2A
:10268800A36A013B3F2B04D94FF48671AB480FF086
:1026980059FEE36A33F0402304D040F20D11A748F5
:1026A8000FF050FE002384F84C300223226884F88F
:1026B8005430536943F00603536123685A69D207BB
:1026C80000F18C815A69216A22F443020A435A6153
:1026D800E1696269AB4242EA01022169984842EA2B
:1026E8000102A16942EA010200F0878095498B4204
:1026F80000F0838001F1704180318B427DD001F17F
:1027080080518B4279D001F1704180318B4274D075
:1027180001F180518B4270D001F1704180318B42C0
:102728006BD001F180518B4267D001F1704180314B
:102738008B4262D001F180518B425ED001F1704131
:1027480080318B4259D001F180518B4255D001F133
:10275800704180318B4250D001F180518B424CD076
:1027680001F1704180318B4247D001F180518B4299
:1027780043D001F1704180318B423ED001F180514C
:102788008B423AD001F1704180318B4235D001F152
:1027980080518B4231D001F1704180318B422CD075
:1027A80001F180518B4228D001F1704180318B4278
:1027B80023D001F180518B421FD083421DD080313C
:1027C8008B421AD001F1704180318B4215D001F152
:1027D80080518B4211D001F1704180318B420CD075
:1027E80001F180518B4208D001F1704180318B4258
:1027F80003D001F180518B420DD1A16A013909053D
:1028080001F07C710A43E16A1143626A013A1201DC
:1028180002F47C720A43196C666801F080210A434D
:102828001A64216BA26806F07F060A4342EA060191
:10283800E268B2F5806F40F0DE80AB4200F0918034
:10284800404A934200F08D8002F1704280329342F8
:1028580000F0878002F18052934200F0828002F1FA
:102868007042803293427CD002F18052934278D0F9
:1028780002F170428032934273D002F18052934247
:102888006FD002F17042803293426AD002F18052D6
:10289800934266D002F170428032934261D002F1D5
:1028A800805293425DD002F170428032934258D0F8
:1028B80002F18052934254D002F170428032934226
:1028C8004FD002F1805293424BD002F170428032D5
:1028D800934246D002F18052934242D002F17042B4
:1028E800803293423DD002F18052934239D002F1B6
:1028F80070428032934234D002F18052934230D0F9
:1029080002F17042803293422BD002F180529342FE
:1029180027D0834225D08032934222D002F17042E0
:10292800803293421DD002F18052934219D002F1B5
:1029380070428032934214D006E000BF645A020805
:10294800500602405000025002F18052934208D0D3
:1029580002F170428032934203D002F180529342D6
:1029680001D141F480615A6C834222F0434222F43F
:102978007F1222F4676222F00F0242EA01025A64CF
:102988004FF000029A641DD01E4A93421AD002F1F9
:1029980070428032934215D002F18052934211D096
:1029A80002F17042803293420CD002F1805293427D
:1029B80008D002F170428032934203D002F1805273
:1029C800934202D100225A659A650020D867636B4A
:1029D800A0652365012384F8543070BDFFF7C2FB5E
:1029E800801B05287FF669AE1023A365032384F8AE
:1029F80054300120F1E7B2F5007F08BF41F40071BF
:102A0800B1E700BF500602502DE9B0438846914611
:102A18001F460446002844D05A1E4FF6FE739A42B9
:102A280004D940F20B2121480FF08CFC94F84C306B
:102A3800012B38D0012094F8543084F84C0083429C
:102A48004FF0000328D1022284F85420A3654FF4E4
:102A5800FE432068BFB2856C2D0C2D043D43856470
:102A6800C360C0F84C80C0F85090436943F4BA433F
:102A78004361636E1BB1436943F400734361236F81
:102A88001BB1436943F400534361436943F00103B5
:102A980043610020BDE8B083402284F84C30A26531
:102AA800F8E70120F6E70220F4E700BF645A0208BD
:102AB80028B190F85430022B03D0202383650120DD
:102AC80070470423026880F854305369002043F4A7
:102AD800005343F00403536170470121036810B5A4
:102AE80023F47F6222F00F020446D068C3F30B027E
:102AF800503AC2F3C41201FA02F2024200F0B18065
:102B08001A69520508D55A69500505D54FF48062EF
:102B1800DA60A26D0A43A2651A69120509D55A69D5
:102B2800100506D54FF40062DA60A26D42F0020289
:102B3800A2651A69D10409D55A69D20406D54FF499
:102B48008052DA60A26D42F00402A2651A6950044C
:102B580009D55A69510406D54FF48042DA60A26D4E
:102B680042F00802A2651A69920509D55A699005CA
:102B780006D54FF40072DA60636E0BB120469847B1
:102B880023681A6991042FD55A6992042CD54FF4F9
:102B98000052DA6094F85420042A1ED15A6922F4AB
:102BA80000525A615A6942F002025A615B69D807B9
:102BB8004CBF0323012384F85430236D190642BF08
:102BC8000122636F1A73002384F84C30E36E002BE4
:102BD80047D02046BDE810401847052384F85430F4
:102BE800236F0BB12046984723681A69D20518D578
:102BF8005A69D00515D5226D11062BD5DA6F32B971
:102C08009A6C22B90122616F84F854200A734FF438
:102C18004072DA60002384F84C30236E0BB12046F2
:102C28009847A36DEBB123685A6942F002025A61D2
:102C38005B69DA074CBF0323012384F85430236D02
:102C48001B0642BF0122636F1A73002384F84C30BD
:102C5800A36EBCE79A6C002AD9D1012284F85420CB
:102C6800D5E710BD806D704738B50C46054618B3DA
:102C7800A1F11003012B04D940F26B5110480FF059
:102C880061FB14F0100319D0012100202B6804F017
:102C9800110423F47F62C3F30B03503B22F00F02AD
:102CA800C3F3C41301FA03F35168112C0CBF0B438F
:102CB80021EA0303536038BD0120FCE71846FAE710
:102CC800645A0208830706D509B1064B0B600AB19E
:102CD80007231360704709B1034B0B60002AF9D032
:102CE8000523F6E7000001FE000001F837B50446A9
:102CF80000284FD0426F002A4CD090F85410036837
:102D080001295869CDB203D0022D3ED1C1033CD56B
:102D180094F854100129CDB22FD194F84C10022008
:102D2800012930D0002184F8540084F84C501073E5
:102D3800A1651161596941F4BA415961616E19B1CE
:102D4800596941F400715961216F19B1596941F408
:102D580000515961136801A90022186AFFF7B2FFF0
:102D6800636F21681B681A0C120423F003030A60BE
:102D78001B04019A1B0C1343CB670020226853697C
:102D880043F00103536103B030BD4023A365002322
:102D980084F84C300120F6E7064B9A6A002ABFBF38
:102DA800054A9A6002F188329A60BABF986AC00FE1
:102DB800002070470020024023016745044B9A6AAF
:102DC80042F000429A62986AC043C00F704700BF41
:102DD80000200240064B986A10F0804007D0054A50
:102DE8001A6102F144321A61986AC0F38070704720
:102DF800002002403B2A1908054B9A6A42F080429B
:102E08009A62986A80F08040C0F38070704700BF73
:102E180000200240034A0120936A43F00063936252
:102E2800704700BF0020024070B50546FFF79AF9C9
:102E3800104C4619236A13F4403F0BD142F2FA02B0
:102E4800206A02400ED001200B494B6813434B60A7
:102E5800226270BD6B1CEDD0FFF784F9B042E9D354
:102E68000320F6E7206A10F00100F2D00123104693
:102E78002362EEE7002002400800002003682DE9E5
:102E8800F0474F2B804604D940F2431169480FF0B0
:102E980059FA694F3B78012B00F08C8101233B7074
:102EA80000234FF47A707B60FFF7BEFF002840F0E4
:102EB8007681D8F80030DA0745D5D8E90164082EBC
:102EC800D8F80C9098F8105004D84FF48B73F3404E
:102ED800DB0704D44FF4757156480FF033FA4FF6F8
:102EE800FD71DFF860A1BAF8A0305A1E92B28A428A
:102EF8008CBF80231B099C4204D340F2D5314D4836
:102F08000FF020FA4FF6FD71BAF8A0305A1E92B2AF
:102F18008A428CBF80231B09994504D340F2D631DD
:102F280044480FF00FFA012D04D940F2D731414837
:102F38000FF008FA012E414B32D1ED4344EA09441F
:102F480044EAC5749C65D8F800309D0714D5D8F8B4
:102F58001440AA2C0AD0552C08D0BB2C06D0CC2C57
:102F680004D040F20E4133480FF0ECF9334A136CA9
:102F780023F0FF0323431364D8F800305C062ED5F2
:102F8800D8E90A365A1E012AD8F830502B4C22D9D3
:102F980040F2214127480FF0D5F9A667E5671EE002
:102FA800022E06D1ED4344EA094444EAC574DC65BF
:102FB800C9E7042E06D1ED4344EA094444EAC5743E
:102FC8009C66C0E7082E01BFED4344EA094444EA81
:102FD800C574DC66B7E7012BDFD126676567D8F8CB
:102FE8000030580740F1C380D8E90665144B721EBB
:102FF8009A4204D940F24D410E480FF0A3F916F059
:10300800010421D015F4E06410D0B4F5807F0DD010
:10301800B4F5007F0AD0B4F5407F07D0B4F5806FCF
:1030280004D040F2524103480FF08CF94FF4E063AA
:103038000BE000BFC15A020808000020002002402F
:10304800FEFF1F000007FA0B2346B10742BF05F435
:103058008052144343F48053720742BF05F4005270
:10306800144343F40053300742BF05F4804214432D
:1030780043F48043F10642BF05F40042144343F48D
:103088000043B20642BF05F48032144343F4803350
:10309800700642BF05F40032144343F4003331068E
:1030A80042BF05F48022144343F48023F20542BF53
:1030B80005F40022144343F40023B00542BF05F48D
:1030C8008012144343F48013710542BF05F40012C3
:1030D800144343F40013320542BF05F4800214433D
:1030E80043F48003F00442BF05F40002144343F4A0
:1030F8000003B10442BF05F08072144343F08073AB
:10310800720442BF05F00072144343F000733004A8
:1031180042BF05F08062144343F08063F10342BF6D
:1031280005F00062144343F00063B20342BF05F0A8
:103138008052144343F08053700342BF05F000529D
:10314800144343F0005331031B4942BF05F080424A
:10315800144343F08043F2020A6C42BF05F0004575
:1031680043F000432C4322EA03031C430C64D8F8C1
:103178000030114C13F0080F09D0D8F82020531E46
:10318800012B10D94FF4B5610C480FF0DBF8A36A96
:103198004FF47A7043F40033A362FFF745FE00232F
:1031A8003B70BDE8F087D8F82430012A0CBF63646F
:1031B800A364ECE70220F4E700200240C15A0208A9
:1031C800062342680360082A15D84FF48B73D3404E
:1031D800DB0710D50723012A0360284B2AD19A6DF3
:1031E80002F07F0282609A6DC2F30642C2609B6D54
:1031F800DB43DB0F0374214A136CDBB2AA2B04D028
:10320800552B02D0CC2B18BFBB234361136C016A2A
:1032180023F0FF03C3614B1E012B0AD80368012961
:1032280043F0080303600CBF536C936C23F07F03D7
:1032380043627047022A09D1DA6D02F07F02826088
:10324800DA6DC2F30642C260DB6DD1E7042A09D108
:103258009A6E02F07F0282609A6EC2F30642C260E2
:103268009B6EC5E7082AC6D1DA6E02F07F0282603B
:10327800DA6EC2F30642C260DB6EB9E70020024094
:103288009E4B2DE9F74F984204460D4646D003F170
:103298008053984242D09A4B98423FD003F18053D2
:1032A80098423BD0974B984238D003F180539842CC
:1032B80034D0954B984231D003F1805398422DD0A9
:1032C800924B98422AD003F18053984226D0904BD3
:1032D800984223D003F1805398421FD08D4B9842D7
:1032E8001CD003F18053984218D08B4B984215D0CC
:1032F80003F18053984211D0884B98420ED003F1C5
:10330800805398420AD0864B984207D003F18053E5
:10331800984203D0CE2183480FF014F82B689AB254
:1033280012B11B0C1B041BB1CF217E480FF00AF809
:103338006B68032B17D9A3F11102012A13D97A4913
:1033480023F400128A420ED001F580118B420AD074
:10335800A1F570218A4206D0744A934203D0D02145
:1033680070480EF0EFFFA2464FF0000B704BDFF8ED
:10337800C88103EA94236F4F01932E6836FA0BF342
:1033880002D103B0BDE8F08F012000FA0BF006402F
:1033980000F0AF80624B69689C4240F0CF802368A0
:1033A80001F0010123EA000001FA0BF10143216059
:1033B800D8E900A909F007014FEA810E0F214FEA69
:1033C800D9000AEB8000036A01FA0EF123EA010C26
:1033D8000B2101FA0EF141EA0C0101620321DAF82E
:1033E80000004FEA490C01FA0CF120EA0100022121
:1033F80001FA0CF10143CAF80010696821F01001C4
:103408000139012925D8E968032904D94FF48F71B6
:1034180044480EF097FF0321DAF808004FEA490CF8
:1034280001FA0CF120EA0100E96801FA0CF1014304
:103438000120CAF80810DAF8041000FA09F021EAA5
:1034480000006968C1F3001101FA09F10143CAF8E3
:1034580004106968032916D0A968022904D94FF411
:10346800987130480EF06EFF0321DAF80C004FEA2D
:10347800490901FA09F120EA0100A96801FA09F1EC
:103488000143CAF80C106B68D90032D54FF00F0908
:103498002BF0030000F18C4000F508300BF003011D
:1034A800026EC90009FA01F922EA090E019A02FA24
:1034B80001F141EA0E010166F0433968DA0254BFAE
:1034C80001403143396079689A0254BF0140314361
:1034D8007960D7F884109A0354BF01403143C7F884
:1034E8008410D7F88010DB0354BF01403143C7F87C
:1034F80080100BF1010B08F108083EE700000242BA
:103508000004024200080242000C0242001002427B
:103518000014024200180242001C0242002002422B
:1035280000000246235B0208000011100000221070
:103538007F7F2F0000200246845B020821F01001E3
:1035480002294FEA4B09604977D18C4246D001F1F4
:1035580080518C4242D05D498C423FD001F180516C
:103568008C423BD05A498C4238D001F180518C4270
:1035780034D058498C4231D001F180518C422DD041
:1035880055498C422AD001F180518C4226D05349AA
:103598008C4223D001F180518C421FD050498C427B
:1035A8001CD001F180518C4218D04E498C4215D064
:1035B80001F180518C4211D04B498C420ED001F15F
:1035C80080518C420AD049498C4207D0FD21484895
:1035D8000EF0B8FEFE2146480EF0B4FE29690F2908
:1035E80003D9FF2142480EF0ADFE0BF007014FEA68
:1035F800810E0F214FEADB0004EB8000036A01FA19
:103608000EF123EA010C296901F00F0101FA0EF10C
:1036180041EA0C0101620320DAF8001000FA09F00F
:1036280021EA0000696801F0030101FA09F949EA91
:103638000000CAF80000D946DFE68C42EBD02D49DD
:103648008C42E8D021498C42E5D001F180518C426E
:10365800E1D01F498C42DED001F180518C42DAD092
:103668001C498C42D7D001F180518C42D3D01A49E1
:103678008C42D0D001F180518C42CCD017498C4279
:10368800C9D001F180518C42C5D015498C42C2D0B5
:1036980001F180518C42BED012498C42BBD001F15D
:1036A80080518C42B7D010498C42B4D001F180517E
:1036B8008C42B0D00D498C42ADD04FF488710C4883
:1036C8000EF040FEA7E700BF0000024200040242DD
:1036D80000080242000C024200100242001402429A
:1036E80000180242001C024200200242000002565A
:1036F800235B02080000025270B5054616460C46C8
:1037080021B94FF4FE7108480EF01CFE012E06D9AF
:1037180040F2FD1104480EF015FEAC6170BD002E9C
:10372800FBD1AC62FAE700BF235B0208F0B50446A0
:103738008BB0002839D00368494A934207D002F178
:103748008052934203D0892146480EF0FBFD94F83D
:10375800BD34256803F0FF0223B9204684F8BC2451
:103768000EF0F2FD032384F8BD34EB6B25466E465C
:1037780013F4807355F8100B08BF236106F0C2F9E3
:103788000FCD0FC60FCD0FC695E80300254686E876
:103798000300271D55F8100B97E80E0006F002F9F4
:1037A800064620B1022384F8BD34012554E00146C1
:1037B800206806F0ADF930464FF0010E2426014688
:1037C800D4F804C0C2B2944500F101001CD800230B
:1037D80024261946D8B2844503F1010322D80FCD17
:1037E8006E460FC60FCD0FC695E8030086E80300A6
:1037F80097E80E00206806F00BFA01230546F0B1A1
:10380800022284F8BD24D0E706FB0243C3E9121163
:1038180083F83DE083F83C20A3F8442083F8401067
:103828005965CFE706FB0042C2E9A21182F87D1272
:1038380082F87C0282F88012C2F89412CAE784F8EF
:10384800380084F8BD34636A012B02D1204600F0A9
:103858001FFD206806F072FD28460BB0F0BD00BFC2
:1038680000000442045C020810B5044694F8BC3415
:103878000068012B12D0012384F8BC34A36A012B01
:1038880002BF836B43F48033836306F035F9206805
:1038980006F046FD002084F8BC0410BD0220FCE7B9
:1038A80038B590F8BC340446012B18D001230568BC
:1038B80080F8BC34284606F025F9206806F03EFD5D
:1038C8001021206806F052F90020A36A012B02BFDC
:1038D800AB6B23F48033AB6384F8BC0438BD02209F
:1038E800FCE770477047704770477047704710B5DE
:1038F80090F8BC240446012A0BD0012280F8381025
:1039080080F8BC24006806F0FBFC002084F8BC04A6
:1039180010BD0220FCE770B501F00F0606EBC604E7
:1039280011F0800F05464FEA84044FF024001FD0A1
:1039380004F13C01012400FB0650294480F83D4075
:10394800CA604A780E700B7102B10E81022B04BF57
:1039580000234B7195F8BC34012B12D00123286841
:1039680085F8BC3406F009FA002085F8BC0470BD5F
:1039780004F51F71002400FB0650294480F87D429D
:10398800DEE70220F3E710B5044601F00F0000EB74
:10399800C00311F0800F4FF024024FEA830316D0C2
:1039A80003F13C01012302FB0042214482F83D302F
:1039B800087094F8BC34012B12D00123206884F8D5
:1039C800BC3406F019FA002084F8BC0410BD03F5D5
:1039D8001F71002302FB0042214482F87D32E7E791
:1039E8000220F3E738B5242401F00F0504FB050194
:1039F80004FB0504C4F894320023C4F88C22C4F8EC
:103A08009C3284F87D3284F87C52036901F51F7179
:103A1800012B08BFC4F890220068DAB21DB906F07D
:103A280041FA002038BD06F00DFBFAE7242301F027
:103A38000F0103FB0100D0F89C02704738B524241D
:103A480001F00F0504FB050104FB05046365002371
:103A5800E3650123E26484F83D3084F83C5003694F
:103A68003C31012B08BF22650068DAB21DB906F0A7
:103A780019FA002038BD06F0E5FAFAE738B54368C8
:103A880001F00F059D4204462CD811F0800F4FF02D
:103A980024001ED0012300FB054100FB05423C31F8
:103AA80082F83D3001230D708B7094F8BC249A4243
:103AB8001AD0206884F8BC3406F0CEFB2DB9217CDE
:103AC800206804F2C44206F08BFC002084F8BC0491
:103AD80038BD00FB01431A4603F51F71002382F825
:103AE8007D32DFE70120F3E70220F1E738B54368CC
:103AF80001F00F029A4204462AD802EBC20311F0E1
:103B0800800F4FF024004FEA830318D003F13C01E3
:103B1800012300FB0240214480F83D3000250A7053
:103B28008D7094F8BC34012B14D00123206884F8DC
:103B3800BC3406F0BCFB284684F8BC5438BD03F5F9
:103B48001F71002300FB0240214480F87D32E5E725
:103B58000120F3E70220F1E701F00F0303EBC303B1
:103B68000A064FEA83034CBF03F13C0103F51F71BA
:103B78000144006806F010BA2DE9F04F066889B0D4
:103B88000446304606F017FC0390002840F0718187
:103B9800206806F0E1FB002800F06B81D6F80838B1
:103BA8002068C3F30D23C4F8FC3406F0D5FB810765
:103BB80048BF2268206848BF536906F5006544BFBE
:103BC80003F00203536106F0C7FBC2062CD5226836
:103BD800936923F010039361D6F82080C8F3434318
:103BE800022B08F00F0740F0478147F6F07318EAF8
:103BF800030F14D0242303FB0747C8F30A194A46C6
:103C08003046D7F88C1206F007FBD7F88C324B44B5
:103C1800C7F88C32D7F89C324B44C7F89C322268DC
:103C2800936943F010039361206806F095FB030342
:103C380000F13481206806F08FFB47030CD520681B
:103C480006F096FB27464FF00009049006F5106A27
:103C5800049B002B40F0EA81206806F07DFB0028D9
:103C680013DA6B6823F001036B6094F8F434012BCA
:103C780040F085820021204684F8F41400F01BFBF4
:103C88002268536903F000435361206806F064FB1F
:103C980000050AD5AB68D90702D52046FFF722FEF2
:103CA8002268536903F400635361206806F054FBEB
:103CB800020114D523685A6902F000625A6194F827
:103CC800F424002A40F05F82012184F8F4145B6D2B
:103CD8002046C3F38303C4F8F83400F0ECFA2068F4
:103CE80006F03AFBC30433D56B68102123F00103B7
:103CF8006B60206805F03AFF4FF67F3106F51063D8
:103D080062680398824200F24782EB6943F001132C
:103D1800EB61236B002B00F05882D5F8843043F018
:103D28000B03C5F884306B6C43F00B036B64D6F857
:103D3800003804F2C44223F4FE63C6F80038217C3C
:103D4800206806F04DFB2268536903F480535361E1
:103D5800206806F001FB870416D5206806F02FFBC3
:103D6800206805F0FFFFE060276800F069FE227B0D
:103D78000146384605F050FE20460AF0F7F822685A
:103D8800536903F400535361206806F0E5FA00070D
:103D980007D52046FFF7A5FD2268536903F00803FD
:103DA8005361206806F0D8FA010600F119822068EC
:103DB80006F0D2FAC2020CD5A046012706F5126910
:103DC8006368BB4200F225822268536903F48013BA
:103DD8005361206806F0C0FA83022DD523460121DD
:103DE800D4F804E006F532608E4520D993F8A4C2D1
:103DF8000268BCF1010F40F02282002A80F21F8283
:103E0800D4F8FC7402F4803207F00107BA4240F09B
:103E1800168283F8A3C2B26942F08002B261726965
:103E2800170600F10C826B6843F400736B6022681C
:103E3800536903F400135361206806F08DFA4100BA
:103E480007D52046FFF752FD2268536903F08043E7
:103E58005361206806F080FA42070AD523685D6836
:103E68006B0702D520460AF099F8226853682B435D
:103E7800536009B0BDE8F08F062B7FF4D0AE08225E
:103E8800304604F2C44106F0C7F9242303FB074770
:103E9800D7F89C32C8F30A184344BEE6206806F0F7
:103EA8005FFAA2460027049006F53068049B002BB1
:103EB8003FF4C0AE049BD80776D55FFA87FB594616
:103EC800206806F05DFA10F0010F81461CD001232E
:103ED80020682169C8F8083000F5306303EB471300
:103EE8000129D0F840C09A6840F08B80110707D5A7
:103EF800A7498C4508D9100406D54FF4004202E0C2
:103F080091065AD520229A6019F0080F21D008236B
:103F1800C8F8083023689E481A6C03F5306303EB31
:103F280047138242996804D9090444BF4FF40041F9
:103F380099602046059209F013FF954B059A9A421D
:103F480007D92169012904D1206804F2C44206F086
:103F580047FA19F0100F1CBF1023C8F8083019F0E1
:103F6800020F14D073691A0642BF6B6843F480636A
:103F78006B609AF87F32012B06D100235946204600
:103F88008AF87F32FFF7B0FC0223C8F8083019F02E
:103F9800200F1CBF2023C8F8083019F4005F1CBF8D
:103FA8004FF40053C8F80830049B01375B080493AA
:103FB80008F120080AF1240A78E712F0280FA3D1A3
:103FC80073498C4501D9120497D41A69DAF89832E2
:103FD800C2F312029B1ACAF89C326FB9D4F8942221
:103FE8002AB9012104F2C44206F0FAF904E0D4F82F
:103FF8008C221344C4F88C325946204609F064FFD9
:1040080082E764498C4507D111043FF576AF9006E5
:10401800F2D520229A60EFE7002FEDD1D4F8943240
:10402800002BE9D1394604F2C442DDE7049BDB07E3
:1040380040F19C805FFA89FB5946206806F0A9F98F
:1040480010F0010F804620D001216B6B09F00F02A0
:1040580001FA02F223EA02036B630B46CAF808105E
:10406800216999420DD1D7E912231344FB64B9F1B0
:10407800000F06D1636D23B9206804F2C44206F02C
:10408800AFF95946204609F0C9FE18F0080F1CBFC1
:104098000823CAF8083018F0100F1CBF1023CAF8FC
:1040A800083018F0400F1CBF4023CAF8083018F039
:1040B800020F12D04946304605F058FD97F83F30B8
:1040C800012B07D14FF000035946204687F83F30AF
:1040D800FFF70BFC0223CAF8083018F0800F45D010
:1040E800FA6D7B6D9A4241D89B1ABA6C216893424B
:1040F80028BF134603339B08069301F5106303EBAF
:10410800491305910793079B06989969FA6D89B237
:1041180081427B6D28D39A420CD30120059B09F07C
:104128000F01D3F8342800FA01F122EA0102C3F89A
:1041380034281BE0A3EB0208BB6C5A46984528BFFD
:10414800984608F103039B080693237C059800937F
:10415800F96C1FFA88F305F061FFFB6C4344FB64BC
:10416800FB6D4344FB65CEE79A42D6D2049B09F126
:1041780001095B08049324370AF1200A68E5204600
:10418800FFF7B1FB7CE52046FFF7ACFBA7E500BFD6
:104198000A30544F0A31544F99601A68203322F478
:1041A800001243F8202CC3F8E811D3F8E02122F4D8
:1041B8000012C3F8E021D3F8E02142F00062C3F80E
:1041C800E021039A013203929AE56B6943F40053A4
:1041D80043F02B036B612B6943F00B032B61A6E5BE
:1041E80001274FF02409B36904F27F2823F08003E4
:1041F800B3616368BB427FF6DAAD09FB07F318F8D1
:104208000330012B03D12046F9B2FFF7A5FC013793
:10421800EFE798F86430D9F80020012B09D1002A7B
:1042280007DA67F07F01204688F86330C9B2FFF7E4
:1042380093FC013708F1240809F12009C0E5013190
:1042480024332030D0E500BF006870B51204446AFA
:1042580019B922438262002070BD836A4D1E04EBA7
:10426800134400235E1CDBB29D4205D83F31224334
:1042780000EB81004260EEE7403300EB83035B68AC
:1042880004EB13443346EDE7036800205962704796
:1042980000210123026880F8F414C0F800359369FE
:1042A800084643F000639361536D43F0805343F035
:1042B8000303536570477047431E012B10B504462E
:1042C8005DD9B0F1011F5AD0304B20F480729A4268
:1042D80055D02F4B984252D020F4007203F580231A
:1042E8009A424CD020F4801323F48063042B20F4EA
:1042F800806244D0274B9A4241D020F4800323F4B3
:104308000063082B20F4006239D0234B9A4236D040
:1043180020F0807323F48053102B20F480522ED089
:104328001E4B9A422BD020F0806323F40053202B9D
:1043380025D01B4A934222D020F0805323F4804397
:10434800402B1CD0174A934219D020F0804323F405
:104358000043802B13D0144A934210D040F201132B
:1043680020F480329A420AD040F2022320F48022BC
:104378009A4204D04FF4FC710C480DF0E3FF0C4B4B
:10438800E4B2586920EA04045C6110BD010002002F
:104398000200040004002000080080001000000251
:1043A800200000084000002080000080615C0208B6
:1043B800000802464B1E012B10B50C4604D940F2EA
:1043C80052210C480DF0BEFF0B4A012C136823F054
:1043D80007031360094B1A6942F004021A6105D1F8
:1043E80030BF1A6922F004021A6110BD40BF20BF15
:1043F80020BFF6E7615C02080008024600ED00E015
:1044080030F4403310B5044604D04FF4A1711B4872
:104418000DF098FF1A4BDA6B02F4403294422BD01D
:104428004FF47A72D868B4F5803F20F4E02044EA6B
:10443800000488BF44F48024DC60124B32211B68DE
:10444800B3FBF2F34B43B3FBF2F301331A460C49C7
:10445800C868000404D40AB903200EE0013AF7E75B
:10446800002AF9D0064AD16B090403D4002BF3D0F3
:10447800013BF8E7002BEFD0002010BDBE5C02081E
:1044880000080246A8000020024BD86B00F4403018
:10449800704700BF00080246024A136943F0805380
:1044A8001361704700080246024A136943F000533B
:1044B8001361704700080246024A136943F000730B
:1044C8001361704700080246024AD36A43F00103A9
:1044D800D36270470008024637B52B4D0446D5F81D
:1044E80094305B0718D5FFF7CFFF20F48033B3F57E
:1044F800003F26D1B4F1805F2CBF00200120234A61
:10450800136823F00F0303431360136803F00F03CA
:10451800181A18BF01201BE0D5F8943043F00403A3
:10452800C5F89430D5F8943003F004030193019B47
:10453800FFF7AAFFD5F8943023F00403C5F89430A8
:10454800D3E7B4F1805F05D2B0F5803F15D00120E4
:1045580003B030BDB4F1005F06D980B9B4F1405F53
:104568008CBF00200120CAE7B4F1805F09D1B0F503
:10457800803F0CBF01200220C1E70320BFE70020D5
:10458800BDE70120BBE700BF000C02460020024047
:104598003E4A30B5D369916A13F00C0305D00C2B51
:1045A80042D101F0030101293ED19168090254BFAB
:1045B800D2F8F4209268364954BFC2F30332120F7E
:1045C80051F82200002B5BD000220C2B5BD12F4925
:1045D800B7EE006A8C6A8B6A8D6AC3F303230133D2
:1045E80007EE903A8A6BF8EEE76AC2F3CC03C5F39C
:1045F8000012534307EE903A04F00304022CFAEE3B
:10460800E97A1DD0032C1BD04B6BC3F3080307EECC
:10461800103AB8EEC77A77EE277A07EE100A77EEE7
:10462800867AB8EE476A18E0D26902F00C02042ACA
:1046380004D0082B25D000220020C6E7154AFBE746
:104648004B6BC3F3080307EE103AB8EEC77A77EE60
:10465800277A77EE867A9FED106A86EE267A0B4BDC
:1046680067EE877A5B6BC3F30663013307EE103A94
:10467800B8EEC77AC7EE876AFCEEE67A17EE900ABC
:1046880030BD0448FCE71046FAE700BF000C0246BC
:104698009C6D02080024F4000024744B2DE9F341BA
:1046A8000D46044618B9012002B0BDE8F081036840
:1046B800013B1E2B04D940F24A51A4480DF042FE9A
:1046C8000F2D04D940F24B51A0480DF03BFEA04AF3
:1046D800136803F00F03AB42C0F0AE802368DA061C
:1046E80000F1B68023681B0717D59A4E2269336AF2
:1046F8001B0903F070039A420FD922F03002402AB6
:1047080004D040F26E5191480DF01CFE336A2269C4
:1047180023F4E06343EA0213336223685F0715D585
:104728008C4EE368326A02F0700293420ED923F08D
:104738003003402B04D04FF4AF6184480DF002FEE3
:10474800336AE26823F070031343336223689E07D9
:1047580014D5804EA368326A02F00F0293420DD935
:10476800083B072B04D940F2825178480DF0EAFD46
:10477800336AA26823F00F03134333622368D80710
:104788007ED42368990700F11781714A136803F0F2
:104798000F03AB4200F229812368590700F13181E8
:1047A80023681A071AD56B4D22692B6A1B0903F077
:1047B80070039A4212D232F0400308D0502A06D031
:1047C800602A04D040F2276160480DF0BBFD2B6AD7
:1047D800226923F4E06343EA02132B622368DB06B1
:1047E80018D55C4D63696A6A02F07002934211D26F
:1047F80033F0400208D0502B06D0602B04D040F292
:10480800316152480DF09EFD6B6A626923F07003B6
:1048180013436B62FFF7BCFE4E4B4F4A1B6A03F013
:104828000F03D35CD8404D4B18604D4B186802B04D
:10483800BDE8F0410DF0E4BD136823F00F032B43EE
:104848001360136803F00F03AB427FF42CAF45E706
:10485800404E6369726A02F0700293427FF642AF7B
:1048680023F03003402B04D040F2655137480DF057
:1048780069FD736A626923F070031343736231E759
:104888006368032B04D940F28A5130480DF05AFD71
:104898006268304B032A4ED1D3F8942052073DD496
:1048A8000127D3F8942042F00402C3F89420D3F8E7
:1048B800943003F004030193019BFDF753FCDFF8E8
:1048C800A4800646D8F80C305B0329D4214B2FB1BD
:1048D800D3F8942022F00402C3F894201B6813F044
:1048E800007F3FF4E0AE1B4E6268F36941F28838FE
:1048F80023F003031343F361FDF734FC63680746B1
:10490800032B34D1F36903F00C030C2B3FF439AFBC
:10491800FDF728FCC01B4045F4D90AE00027CCE786
:10492800D8F80C305804D1D4FDF71CFC801B0228A1
:10493800F6D90320B8E6022A1B6802D113F4003F17
:10494800CFE78AB913F0040FCBE700BF1E5D02085A
:1049580000200240000C0246846D0208A8000020D6
:10496800040000200008024613F4806FB9E7022B08
:104978000BD1F36903F00C03082B3FF402AFFDF7EA
:10498800F1FBC01B4045F4D9D3E77BB9F36913F0B9
:104998000C0F3FF4F6AEFDF7E5FBC01B4045F5D91B
:1049A800C7E7FDF7DFFBC01B4045C2D8F36903F03A
:1049B8000C03042BF5D1E4E61F4AA368126A02F03F
:1049C8000F029342BFF4E1AE3BB1083B062B04D97A
:1049D80040F2056119480DF0B5FC174AA168136A41
:1049E80023F00F030B431362CFE6136823F00F0382
:1049F8002B431360136803F00F03AB427FF453AEED
:104A0800CAE60D4DE3682A6A02F070029342BFF4C9
:104A1800C7AE33F0400208D0502B06D0602B04D02C
:104A280040F21D6105480DF08DFC2B6AE26823F009
:104A3800700313432B62B3E6000C02461E5D0208A6
:104A480008B5FFF7A5FD054B054A1B6A03F00F03E0
:104A5800D35CD840034B186008BD00BF000C024669
:104A6800846D0208A80000202DE9FF41044608B91A
:104A7800012078E003683BB133F0FF0304D040F233
:104A88002D21A1480DF05EFCA04BDE699F6A2368CA
:104A980006F00C06D90607F0030740F1C180E36968
:104AA800012B04D940F2362197480DF04BFC236ABC
:104AB800FF2B04D940F2372193480DF043FC636A79
:104AC80033F040530DD0B3F1804F0AD0B3F1004F0B
:104AD80007D0B3F1404F04D04FF40E718A480DF05F
:104AE80031FC8A4B1EB10C2E79D1012F77D11B686E
:104AF8005A0702D5E369002BBAD0844D606AAB68C7
:104B08001B0256BFD5F8F430AB681B0403F07043A2
:104B1800984237D9AEB1AB6843F40003AB60AB68D9
:104B2800616A23F070430B43AB60B1F1404F226AD6
:104B38000CD20029EB6819DA23F4787343EA42139C
:104B480008E0FFF7C9FC0028E5D091E7EB6823F0FF
:104B58001F031343EB60FFF773FF6D4B18680DF0ED
:104B68004FFC00285CD004B0BDE8F081B1F1804F63
:104B78002BBF23F4F84323F4782343EA822343EA40
:104B8800C233E7E7AB68B0F1404F43F40003AB60D2
:104B9800AB6823F0704343EA0003AB60226AEB681A
:104BA8000AD323F01F031343EB60002ED3D1FFF782
:104BB80093FC0028CFD05BE7002804DA23F478734D
:104BC80043EA4213F0E7B0F1804F2BBF23F4F843D8
:104BD80023F4782343EA822343EAC233E4E7E26911
:104BE800002A7DD01A68494D42F001021A60FDF78B
:104BF800B9FA80462B68580757D5AB6843F40003C9
:104C0800AB60AB68616A23F070430B43AB60B1F1F2
:104C1800404F226AEB6850D323F01F031343EB6025
:104C28002368DA0778D423689B0700F1E3802368B8
:104C3800180740F18281636933F0806304D040F241
:104C4800173131480DF07EFB304BD3F894205107D3
:104C580000F125810127D3F8942042F00402C3F81B
:104C68009420D3F8943003F004030193019B294D59
:104C7800AB6ADA0740F115816369244D002B40F0D7
:104C88002581D5F8F03023F0A053C5F8F030FDF7B2
:104C980069FA0646D5F8F0301B0140F14681FDF768
:104CA80061FA801B0228F5D905E0FDF75BFAA0EB55
:104CB800080002289ED9032055E7002904DA23F4C6
:104CC800787343EA4213AAE7B1F1804F2BBF23F46C
:104CD800F84323F4782343EA822343EAC2339EE766
:104CE8001A68DFF8288022F001021A60FDF73AFA04
:104CF8000546D8F80030590792D5FDF733FA401B1E
:104D08000228F6D9D7E700BF1E5D0208000C02464C
:104D18000400002000080246636833F4803209D09A
:104D280023F48013B3F5A02F04D040F2A7216548DF
:104D38000DF008FB082E644B03D00C2E0AD1032F6C
:104D480008D11B689D037FF56EAF6368002B7FF465
:104D58006AAF8DE66268B2F5803F13D11A6842F4F3
:104D680080321A60FDF7FEF90546DFF85C81D8F855
:104D7800003098033FF557AFFDF7F4F9401B64285E
:104D8800F5D998E7B2F5A02F08D11A6842F4802225
:104D98001A601A6822F480121A60DFE74A4DB2F5E9
:104DA800A81F2B680BD143F480232B602B6843F496
:104DB80080132B602B6843F480332B60D2E723F4F5
:104DC80080332B602B6823F480232B602B6823F41B
:104DD80080132B60002AC5D1FDF7C4F980462B68E3
:104DE80099037FF520AFFDF7BDF9A0EB0800642813
:104DF800F5D960E7E36833F4807304D04FF4367173
:104E080030480DF09FFA23691F2B04D940F2D921AD
:104E18002C480DF097FA042E2B4B03D00C2E11D1F1
:104E2800022F0FD11B685A0503D5E368002B3FF406
:104E38001FAE254A2169136923F4F81343EA014395
:104E48001361F4E6E268C2B11A681F4D42F4807239
:104E58001A60FDF787F906462B685B0507D52B69AD
:104E6800226923F4F81343EA02432B61DFE6FDF7D6
:104E780079F9801B0228EFD91DE71A68124E22F42F
:104E880080721A60FDF76EF9054633685F057FF595
:104E9800CEAEFDF767F9401B0228F6D90BE70027CD
:104EA800E5E6AB6A43F00103AB62FDF75BF9064642
:104EB800AB6ADB073FF5E0AEFDF754F9801B02282B
:104EC800F6D9F8E61E5D0208000C0246A369D5F87B
:104ED800F05033F0805304D040F23931AA480DF035
:104EE80031FAA26905F080539A4210D005F0406368
:104EF800B3F1006F3FF4BCAD68017AD4A34AA1694D
:104F0800D2F8F03023F080530B43C2F8F0309F4DB5
:104F1800D5F8F03043F08063C5F8F030FDF722F99A
:104F28000646D5F8F0301A0178D537B1974AD2F845
:104F3800943023F00403C2F8943023685E0740F1EC
:104F4800B880A368012B0AD9812B08D023F08003ED
:104F5800052B04D04FF461718B480DF0F3F98B4B9E
:104F6800D3F89420550760D40127D3F8942042F051
:104F78000402C3F89420D3F8943003F00403029396
:104F8800029B834DAB6AD80751D5A3687F4D13F0B8
:104F9800010F5CD1D5F8F02022F00102C5F8F0200D
:104FA800D5F8F02022F00402C5F8F020002B5DD1DE
:104FB800FDF7D8F841F288380646D5F8F030990759
:104FC80000F1AC80D5F8F0301A066AD541F288387D
:104FD800D5F8F03023F08003C5F8F0306B4DD5F8E4
:104FE800F0301B055DD5FDF7BDF8801B4045F6D9AF
:104FF80061E6664DD5F8F03023F0A053C5F8F030DF
:10500800FDF7B0F80646D5F8F03019017FF576AF10
:10501800FDF7A8F8801B0228F5D94CE6FDF7A2F8A1
:10502800801B02287FF67DAF45E60027A9E7AB6A1B
:1050380043F00103AB62FDF795F80646AB6AD90762
:10504800A3D4FDF78FF8801B0228F7D933E613F0B5
:10505800040FD5F8F0301EBF43F00403C5F8F03054
:10506800D5F8F03043F00103C5F8F030FDF77AF8D1
:1050780041F288380546454ED6F8F0309A0730D5C3
:10508800A36813F0800FD6F8F03036D041F2883894
:1050980043F08003C6F8F0303C4ED6F8F0301B05DC
:1050A80025D537B1394AD2F8943023F00403C2F831
:1050B800943023689E0638D423681D066AD4236872
:1050C8005A0600F19780A36B022B04D940F286415F
:1050D8002D480DF037F9A06B002840F0038100201F
:1050E80041E5FDF73FF8401B4045C5D9E3E5FDF72D
:1050F80039F8401B4045D0D9DDE541F2883823F026
:105108008003C6F8F030214ED6F8F0301805C8D51F
:10511800FDF728F8401B4045F6D9CCE5FDF722F805
:10512800801B40457FF649AFC5E5E36ADBB1B3F5BF
:10513800805F10D1154D2B6843F480532B60FDF729
:1051480011F806462B689804B6D4FDF70BF8801BB7
:105158000228F7D9AFE540F206410B480DF0F2F806
:10516800E36A002BE6D1094D2B6823F480532B60AA
:10517800FCF7F8FF06462B6899049DD5FCF7F2FF6B
:10518800801B0228F7D996E51E5D0208000C02462E
:1051980000080246236BDBB1B3F5804F10D14F4DA9
:1051A8002B6843F480432B60FCF7DCFF06462B6832
:1051B8001B0484D4FCF7D6FF801B0228F7D97AE5B4
:1051C80040F22F4146480DF0BDF8236B002BE6D185
:1051D800424D2B6823F480432B60FCF7C3FF06463F
:1051E8002B681F047FF56BAFFCF7BCFF801B022800
:1051F800F6D960E5636B33F0100304D040F25741F1
:1052080037480DF09FF8A36A33F040730DD0B3F11F
:10521800806F0AD0B3F1006F07D0B3F1406F04D0AC
:105228004FF48B612E480DF08DF8236AFF2B04D9BB
:1052380040F259412A480DF085F8636B274D002B41
:105248003AD0AB6843F40003AB60AB68A26A23F0C2
:1052580070631343AB60D4E90823B3F1404F16D30E
:10526800EB6823F01F031343EB601C4D2B6843F0DE
:1052780010032B60FCF776FF06462B6898063FF56F
:1052880022AFFCF76FFF801B0228F6D913E5002B2D
:1052980005DAEB6823F4787343EA4213E4E7B3F1E1
:1052A800804FEB682BBF23F4F84323F4782343EAB9
:1052B800822343EAC233D7E72B6823F010032B601D
:1052C800FCF750FF06462B6899067FF5FCAEFCF705
:1052D80049FF801B0228F6D9EDE400BF000C024606
:1052E8001E5D0208A14DEB6903F00C030C2B00F0C6
:1052F8000781022840F0EB80636C33F440520AD0F7
:10530800B2F5804F07D0B3F5004F04D040F2924178
:1053180097480DF017F8E36B013B022B04D940F2D4
:10532800934193480DF00EF8236C013B0F2B04D9E1
:1053380040F294418E480DF005F8A36C043BB3F598
:10534800FE7F04D940F2954189480CF0FBFFE36CDD
:10535800013B7F2B04D940F2964185480CF0F2FFBF
:10536800236D013B7F2B04D940F2974180480CF014
:10537800E9FF636D013B7F2B04D94FF493617C48AF
:105388000CF0E0FF794E336823F080733360FCF74C
:10539800E9FE0746356815F0007540F09080D6F8AC
:1053A80094305A070CD40125D6F8943043F00403FE
:1053B800C6F89430D6F8943003F004030393039BA3
:1053C8006C4B6A4FDE68DA6806F4802622F4802285
:1053D800DA60BA6A616CE36B22F47F420B4322F015
:1053E80003021343226C013A43EA0223BB62A36C13
:1053F800796B614A013B0A40C3F308031343E26C2B
:10540800013A520292B21343226D013A120402F495
:10541800FE021343626D013A120602F0FE42134384
:105428007B63E36DB3F5005F04D340F2BF4150489E
:105438000CF088FFBB6A23F01003BB62BB6BE26D04
:1054480023F47F4323F0F80343EAC203BB63BB6A38
:1054580043F01003BB62A36D33B10C2B04D040F2B0
:10546800CA4143480CF06EFF404AA16D936A23F08D
:105478000C030B43936226B13E49CB6843F4802367
:10548800CB602DB1D2F8943023F00403C2F89430E5
:10549800364CA36A43F48023A362236843F08073E5
:1054A8002360FCF75FFE054623689B013FF517AEB6
:1054B800FCF758FE401B0228F6D9FFF7FCBBFCF7A7
:1054C80051FEC01B02287FF665AFFFF7F4BB2B68BF
:1054D80023F080732B60FCF745FE04462B6813F01D
:1054E800007306D1AA6A22F4E02222F00302AA621B
:1054F800F5E5FCF737FE001B0228EFD9FFF7DBBB09
:105508000128AA6A6B6B3FF42EABE06B02F0030133
:1055180081427FF4ADAA216CC2F30320013988428D
:105528007FF4A6AA616CC2F303328A427FF4A0AA70
:10553800A26CC3F30801013A91427FF499AAE26C84
:10554800C3F34621013A91427FF492AA226DC3F334
:105558000641013A91427FF48BAA606DC3F306635A
:105568000138181A18BF0120FFF7FDBA000C0246CF
:105578001E5D0208000802460000808008B5FFF79B
:105588005FFA044B044A1B6AC3F30213D35CD84086
:1055980008BD00BF000C0246946D020808B5FFF76D
:1055A8004FFA044B044A1B6AC3F30223D35CD84066
:1055B80008BD00BF000C0246946D020808B5FFF74D
:1055C8003FFA044B044A5B6AC3F30213D35CD84026
:1055D80008BD00BF000C0246946D020810B50446D1
:1055E80020B94FF4E86146480CF0ACFE3F23236035
:1055F800444B1A6802F4A012B2F5802F5CD14FF424
:10560800A02262601A6802F00102E2611A6802F0E0
:1056180070426262B2F1404FDB685DD303F01F0352
:105628002362384B1A6802F48072E2601A69C2F386
:1056380004422261D3F8F02052075AD58523A3608B
:10564800304BD3F8F02002F0806262611A6802F4ED
:105658008052E2621A6812F0807F14BF022201228F
:10566800A2639A6A02F00302E2639A6AC2F303220F
:10567800013222645A6BC2F308020132A2645A6BE7
:10568800C2F30642013222655A6BC2F30662013246
:1056980062655A6BC2F346220132E2649A6A02F0EA
:1056A8000C02A2659A6BC2F3CC02E2659B6AC3F353
:1056B80003330133636410BD1A6802F4A012B2F513
:1056C800A01F02D14FF4A8129BE71A6812F4803287
:1056D80018BF4FF4803294E7002A02DAC3F3441368
:1056E8009EE7B2F1804F2CBFC3F38423C3F3C433C6
:1056F80096E7D3F8F03013F0010318BF81239EE733
:105708001E5D0208000C024638B50D46044620B955
:1057180040F2C77113480CF015FE25B94FF4F96132
:1057280010480CF00FFE1F2323600F4BDA6902F0BC
:10573800030262601A6A02F00F02A2601A6A02F09B
:105748007002E2601A6A120902F0700222615B6A52
:1057580003F070036361054B1B6803F00F032B60B4
:1057680038BD00BF1E5D0208000C02460020024042
:10577800036870B5013B022B054604D940F66171F8
:105788004B480CF0DFFD6B68013B0F2B04D940F64A
:10579800627147480CF0D6FDAB68043BB3F5FE7F59
:1057A80004D940F6637142480CF0CCFDEB68013B2C
:1057B8007F2B04D940F664713D480CF0C3FD2B697A
:1057C800013B7F2B04D940F6657139480CF0BAFDCE
:1057D8006B69013B7F2B04D940F6667134480CF0A5
:1057E800B1FD344C236823F080532360FCF7BAFCE6
:1057F800064623689A004DD4236B29686A6823F407
:10580800706323F00303013A0B4343EA0223236343
:10581800AB68616C284A013B0A40C3F30803134391
:10582800EA68013A520292B213432A69013A120411
:1058380002F4FE0213436A69013A120602F0FE42BC
:1058480013436364236BAA6923F00C031343236394
:10585800236B2A6A13432363236B23F01003236308
:10586800A36CEA6923F47F4323F0F80343EAC203F5
:10587800A364236B0F4D43F010032363236843F0A5
:1058880080532360FCF76EFC04462B689B0008D508
:10589800002005E0FCF766FC801B0228A9D903203C
:1058A80070BDFCF75FFC001B0228EED9F7E700BFCC
:1058B8007B5D0208000C024600008080036870B51A
:1058C800013B022B054604D940F618714B480CF0F1
:1058D80039FD6B68013B0F2B04D940F61971474815
:1058E8000CF030FDAB68043BB3F5FE7F04D940F6FD
:1058F8001A7142480CF026FDEB68013B7F2B04D956
:1059080040F61B713D480CF01DFD2B69013B7F2BB8
:1059180004D940F61C7139480CF014FD6B69013B41
:105928007F2B04D940F61D7134480CF00BFD344C24
:10593800236823F080632360FCF714FC0646236881
:105948001A014DD4E36A29686A6823F4706323F066
:105958000303013A0B4343EA0223E362AB68E16BBA
:10596800284A013B0A40C3F308031343EA68013A93
:10597800520292B213432A69013A120402F4FE0257
:1059880013436A69013A120602F0FE421343E363C5
:10599800E36AAA6923F00C031343E362E36A2A6A01
:1059A8001343E362E36A23F01003E362236CEA69BA
:1059B80023F47F4323F0F80343EAC2032364E36A32
:1059C8000F4D43F01003E362236843F080632360C4
:1059D800FCF7C8FB04462B681B0108D5002005E02E
:1059E800FCF7C0FB801B0228A9D9032070BDFCF777
:1059F800B9FB001B0228EED9F7E700BF7B5D020860
:105A0800000C0246000080802DE9F347D0E90032FF
:105A180033F06041044603D003F06043134304D0DD
:105A28004FF4D571A9480CF08DFC2368D80710D520
:105A3800236D032B04D94FF4D871A4480CF082FCD1
:105A4800A34A216DD2F8E03023F003030B43C2F8D8
:105A5800E0302368990711D5636D33F00C0304D047
:105A68004FF4DD7199480CF06DFC994A616DD2F8DC
:105A7800E03023F00C030B43C2F8E03023685A07E8
:105A880011D5A36D33F0300304D04FF4E2718F4881
:105A98000CF058FC8E4AA16DD2F8E03023F03003A8
:105AA8000B43C2F8E03023681B0711D5E36D33F0D0
:105AB800C00304D04FF4E77184480CF043FC844AD7
:105AC800E16DD2F8E03023F0C0030B43C2F8E030B8
