:020000040800F2
:1000000000000C207D2F0208092702080F27020894
:10001000152702081B27020821270208CD2F0208F6
:10002000000000000000000000000000CD2F0208CA
:100030002727020800000000B1020008A9040008F8
:10004000CD2F0208CD2F0208CD2F0208CD2F020898
:10005000CD2F0208CD2F0208CD2F0208CD2F020888
:10006000CD2F0208CD2F0208CD2F02084927020804
:10007000CD2F0208CD2F0208CD2F0208CD2F020868
:10008000CD2F0208CD2F0208CD2F020855270208D8
:10009000CD2F0208CD2F0208CD2F0208CD2F020848
:1000A000CD2F0208CD2F020861270208CD2F0208AC
:1000B000CD2F02086D27020881270208CD2F0208E4
:1000C000CD2F0208CD2F0208CD2F0208CD2F020818
:1000D000CD2F0208CD2F0208CD2F0208CD2F020808
:1000E000CD2F0208CD2F0208CD2F0208CD2F0208F8
:1000F000CD2F0208CD2F0208CD2F0208CD2F0208E8
:10010000CD2F020835270208CD2F0208CD2F020877
:10011000CD2F0208CD2F0208CD2F0208CD2F0208C7
:10012000CD2F0208CD2F0208CD2F0208CD2F0208B7
:1001300095270208CD2F0208CD2F0208CD2F0208E7
:10014000CD2F0208CD2F0208CD2F0208CD2F020897
:10015000CD2F0208CD2F0208CD2F0208CD2F020887
:10016000CD2F0208A9270208CD2F0208CD2F0208A3
:10017000CD2F0208CD2F0208CD2F0208CD2F020867
:10018000CD2F0208CD2F0208CD2F0208CD2F020857
:10019000CD2F0208CD2F0208CD2F0208CD2F020847
:1001A000CD2F0208CD2F0208CD2F0208CD2F020837
:1001B000CD2F0208CD2F0208CD2F0208CD2F020827
:1001C000CD2F0208CD2F0208CD2F0208CD2F020817
:1001D000CD2F0208CD2F0208CD2F0208CD2F020807
:1001E000CD2F0208CD2F0208CD2F0208CD2F0208F7
:1001F000CD2F0208CD2F0208CD2F0208CD2F0208E7
:10020000CD2F0208CD2F0208CD2F0208CD2F0208D6
:10021000CD2F0208CD2F0208CD2F0208CD2F0208C6
:10022000CD2F0208CD2F0208CD2F0208CD2F0208B6
:04023000CD2F0208C4
:1002380010B5054C237833B9044B13B1044800E0DA
:1002480000BF0123237010BDC01100200000000072
:10025800F8BE030808B5034B1BB10349034800E087
:1002680000BF08BD00000000C4110020F8BE03084C
:10027800EFF3108180F31088081C70474FF00000DE
:100288002E4A1060EFF3148020F0040080F31488E5
:1002980062B64FF080504FF0E021C1F8040DBFF373
:1002A8004F8FBFF36F8FFEE72548264A4FF00003B4
:1002B800016891B10360EFF3098C2CE9F00F1EF08F
:1002C800100F01D12CED108A1F4C4CF804EDC1F829
:1002D80008C025680DB18D61236072B61168D1B16F
:1002E800016062B64F68184C8D6907F101074F60CD
:1002F8002560D1F80CC08CF30B88D1F808C05CF8E5
:1003080004EB1EF0100F01D1BCEC108ABCE8F00F12
:100318008CF30988704772B61168016009B962B632
:10032800F9E74FF000674FF0E028C8F8047D62B69F
:10033800D8E700BFB0EE400A70470000086C022002
:10034800706B0220746B022074710220026922F023
:100358000702A2F144026FF0430313604FF0000359
:1003680053609360D360136153619361D3611362E7
:1003780053629362D362136353634FF0FF33936303
:10038800D1634FF080731364826070472249086814
:1003980000F101000860214B1A683AB1A2F101028C
:1003A8001A601AB91E4B4FF0010018601D49086801
:1003B800026822B11C4B4FF001021A6008E000F1FC
:1003C80004001A4B1A68904201D1194B186808604A
:1003D800134B1A6812B914490868D0B12DE90140C5
:1003E8001149086808B117F005FB0D4B1A6872B17E
:1003F80017F002F90F48016849B90F4801680F4A18
:1004080013680F484FF08052994200D00260BDE84F
:100418000140BFF34F8F7047146C022074710220A3
:10042800186C0220A46C0220A86C0220A06C022088
:100438009C6C0220086C0220706B0220746B0220F6
:1004480004ED00E072B61B481B4901F1040101608C
:100458004FF0E0201949C0F8081D1948016841F01B
:100468000101016017481549096801604FF0E02053
:10047800154941614FF0070101614FF00001C0F8D3
:10048800181D4FF07F41C0F81C1D1049C0F8201DF1
:10049800704700BFFFF7FEBF01B5BDE801407047D8
:1004A80001B5FFF773FFBDE801407047FFF7FEBFD6
:1004B800FFF7FEBF686B0220A0B40220000000080E
:1004C800001000E06C6B0220FF7002000000FF408B
:1004D80010F8012B11F8013B012A28BF9A42F7D0E6
:1004E800D01A7047034613F8012B002AFBD1181ABB
:1004F8000138704781F0004102E000BF83F00043FB
:1005080030B54FEA41044FEA430594EA050F08BFA6
:1005180090EA020F1FBF54EA000C55EA020C7FEA6A
:10052800645C7FEA655C00F0E2804FEA5454D4EBE7
:100538005555B8BF6D420CDD2C4480EA020281EAB1
:10054800030382EA000083EA010180EA020281EAE9
:100558000303362D88BF30BD11F0004F4FEA01313B
:100568004FF4801C4CEA113102D0404261EB41014A
:1005780013F0004F4FEA03334CEA133302D05242D0
:1005880063EB430394EA050F00F0A780A4F101048C
:10059800D5F1200E0DDB02FA0EFC22FA05F28018C6
:1005A80041F1000103FA0EF2801843FA05F35941AC
:1005B8000EE0A5F120050EF1200E012A03FA0EFC2B
:1005C80028BF4CF0020C43FA05F3C01851EBE37155
:1005D80001F0004507D54FF0000EDCF1000C7EEB72
:1005E80000006EEB0101B1F5801F1BD3B1F5001FB0
:1005F8000CD349085FEA30004FEA3C0C04F10104CF
:100608004FEA445212F5800F80F09A80BCF1004FF7
:1006180008BF5FEA500C50F1000041EB045141EA79
:10062800050130BD5FEA4C0C404141EB0101013C42
:1006380028BFB1F5801FE9D291F0000F04BF014631
:100648000020B1FA81F308BF2033A3F10B03B3F103
:1006580020020CDA0C3208DD02F1140CC2F10C0293
:1006680001FA0CF021FA02F10CE002F11402D8BFF1
:10067800C2F1200C01FA02F120FA0CFCDCBF41EABD
:100688000C019040E41AA2BF01EB0451294330BD8C
:100698006FEA04041F3C1CDA0C340EDC04F1140469
:1006A800C4F1200220FA04F001FA02F340EA030040
:1006B80021FA04F345EA030130BDC4F10C04C4F186
:1006C800200220FA02F001FA04F340EA0300294666
:1006D80030BD21FA04F0294630BD94F0000F83F4B0
:1006E800801306BF81F480110134013D4EE77FEA93
:1006F800645C18BF7FEA655C29D094EA050F08BFDF
:1007080090EA020F05D054EA000C04BF19461046BF
:1007180030BD91EA030F1EBF0021002030BD5FEA03
:10072800545C05D14000494128BF41F0004130BD2B
:1007380014F580043CBF01F5801130BD01F000457F
:1007480045F0FE4141F470014FF0000030BD7FEAF2
:10075800645C1ABF194610467FEA655C1CBF0B46ED
:10076800024650EA013406BF52EA033591EA030F04
:1007780041F4002130BD00BF90F0000F04BF0021FC
:10078800704730B54FF4806404F132044FF000052F
:100798004FF0000150E700BF90F0000F04BF0021A8
:1007A800704730B54FF4806404F1320410F000450E
:1007B80048BF40424FF000013EE700BF42004FEA09
:1007C800E2014FEA31014FEA02701FBF12F07F4386
:1007D80093F07F4F81F06051704732F07F4208BF3D
:1007E800704793F07F4F04BF41F40021704730B544
:1007F8004FF4607401F0004521F000411CE700BF90
:1008080050EA010208BF704730B54FF000050AE012
:1008180050EA010208BF704730B511F0004502D513
:10082800404261EB41014FF4806404F132045FEA15
:10083800915C3FF4D8AE4FF003025FEADC0C18BFBE
:1008480003325FEADC0C18BF033202EBDC02C2F1B0
:10085800200300FA03FC20FA02F001FA03FE40EA42
:100868000E0021FA02F11444BDE600BF70B54FF046
:10087800FF0C4CF4E06C1CEA11541DBF1CEA135524
:1008880094EA0C0F95EA0C0F00F0DEF82C4481EA8C
:10089800030621EA4C5123EA4C5350EA013518BFAC
:1008A80052EA033541F4801143F4801338D0A0FB99
:1008B80002CE4FF00005E1FB02E506F00042E0FB46
:1008C80003E54FF00006E1FB03569CF0000F18BF4C
:1008D8004EF0010EA4F1FF04B6F5007F64F54074F4
:1008E80004D25FEA4E0E6D4146EB060642EAC62187
:1008F80041EA55514FEAC52040EA5E504FEACE2EF4
:10090800B4F1FD0C88BFBCF5E06F1ED8BEF1004FF6
:1009180008BF5FEA500E50F1000041EB045170BD72
:1009280006F0004646EA010140EA020081EA0301B6
:10093800B4EB5C04C2BFD4EB0C0541EA045170BDB2
:1009480041F480114FF0000E013C00F3AB8014F12C
:10095800360FDEBF002001F0004170BDC4F1000475
:10096800203C35DA0C341BDC04F11404C4F12005F6
:1009780000FA05F320FA04F001FA05F240EA020051
:1009880001F0004221F0004110EBD37021FA04F687
:1009980042EB06015EEA430E08BF20EAD37070BD41
:1009A800C4F10C04C4F1200500FA04F320FA05F0A0
:1009B80001FA04F240EA020001F0004110EBD370A2
:1009C80041F100015EEA430E08BF20EAD37070BD12
:1009D800C4F1200500FA05F24EEA020E20FA04F3EB
:1009E80001FA05F243EA020321FA04F001F000419A
:1009F80021FA04F220EA020000EBD3705EEA430E0B
:100A080008BF20EAD37070BD94F0000F0FD101F039
:100A18000046400041EB010111F4801F08BF013C72
:100A2800F7D041EA060195F0000F18BF704703F0B0
:100A38000046520043EB030313F4801F08BF013D37
:100A4800F7D043EA0603704794EA0C0F0CEA1355F3
:100A580018BF95EA0C0F0CD050EA410618BF52EAAD
:100A68004306D1D181EA030101F000414FF00000B3
:100A780070BD50EA410606BF1046194652EA4306C1
:100A880019D094EA0C0F02D150EA013613D195EA35
:100A98000C0F05D152EA03361CBF104619460AD17D
:100AA80081EA030101F0004141F0FE4141F4700187
:100AB8004FF0000070BD41F0FE4141F4780170BD77
:100AC80070B54FF0FF0C4CF4E06C1CEA11541DBFDC
:100AD8001CEA135594EA0C0F95EA0C0F00F0A7F8DE
:100AE800A4EB050481EA030E52EA03354FEA01310B
:100AF80000F088804FEA03334FF0805545EA13131E
:100B080043EA12634FEA022245EA111545EA1065E5
:100B18004FEA00260EF000419D4208BF964244F17C
:100B2800FD0404F5407402D25B084FEA3202B61A9B
:100B380065EB03055B084FEA32024FF480104FF46F
:100B4800002CB6EB020E75EB030E22BFB61A7546E3
:100B580040EA0C005B084FEA3202B6EB020E75EB76
:100B6800030E22BFB61A754640EA5C005B084FEADE
:100B78003202B6EB020E75EB030E22BFB61A7546AB
:100B880040EA9C005B084FEA3202B6EB020E75EBB6
:100B9800030E22BFB61A754640EADC0055EA060E77
:100BA80018D04FEA051545EA16754FEA06164FEABA
:100BB800C30343EA52734FEAC2025FEA1C1CC0D166
:100BC80011F4801F0BD141EA00014FF000004FF0F3
:100BD800004CB6E711F4801F04BF01430020B4F1B4
:100BE800FD0C88BFBCF5E06F3FF6AFAEB5EB030C6C
:100BF80004BFB6EB020C5FEA500C50F1000041EB69
:100C0800045170BD0EF0004E4EEA113114EB5C0435
:100C1800C2BFD4EB0C0541EA045170BD41F4801108
:100C28004FF0000E013C90E645EA060E8DE60CEA10
:100C3800135594EA0C0F08BF95EA0C0F3FF43BAF2D
:100C480094EA0C0F0AD150EA01347FF434AF95EAE4
:100C58000C0F7FF425AF104619462CE795EA0C0FC8
:100C680006D152EA03353FF4FDAE1046194622E795
:100C780050EA410618BF52EA43067FF4C5AE50EA6F
:100C880041047FF40DAF52EA43057FF4EBAE12E75F
:100C98004FF0FF3C06E000BF4FF0010C02E000BF40
:100CA8004FF0010C4DF804CD4FEA410C7FEA6C5C23
:100CB8004FEA430C18BF7FEA6C5C1BD001B050EAC6
:100CC800410C0CBF52EA430C91EA030F02BF90EAB1
:100CD800020F0020704710F1000F91EA030F58BF70
:100CE800994208BF90422CBFD8176FEAE37040F0D2
:100CF800010070474FEA410C7FEA6C5C02D150EA70
:100D0800013C07D14FEA430C7FEA6C5CD6D152EA2A
:100D1800033CD3D05DF8040B704700BF84461046EF
:100D280062468C461946634600E000BF01B5FFF7EE
:100D3800B7FF002848BF10F1000F01BD4DF808EDBE
:100D4800FFF7F4FF0CBF012000205DF808FB00BF8F
:100D58004DF808EDFFF7EAFF34BF012000205DF8E9
:100D680008FB00BF4DF808EDFFF7E0FF94BF012036
:100D780000205DF808FB00BF4DF808EDFFF7CEFF37
:100D880094BF012000205DF808FB00BF4DF808ED76
:100D9800FFF7C4FF34BF012000205DF808FB00BF47
:100DA8004FEA410C7FEA6C5C02D150EA013C0AD15F
:100DB8004FEA430C7FEA6C5C02D152EA033C02D151
:100DC8004FF0000070474FF0010070474FEA4102B2
:100DD80012F5001215D211D56FF47873B3EB625285
:100DE80012D94FEAC12343F0004343EA505311F0AC
:100DF800004F23FA02F018BF404270474FF000003E
:100E0800704750EA013005D111F0004008BF6FF07B
:100E1800004070474FF00000704700BF4A0011D2F1
:100E280012F5001211D20DD56FF47873B3EB62523C
:100E38000ED44FEAC12343F0004343EA505323FA48
:100E480002F070474FF00000704750EA013002D1BD
:100E58004FF0FF3070474FF0000070474FEA4102F3
:100E6800B2F1E04324BFB3F5001CDCF1FE5C0DD900
:100E780001F0004C4FEAC0024CEA5070B2F1004F4A
:100E880040EB830008BF20F00100704711F0804F4D
:100E980021D113F13872BCBF01F00040704741F412
:100EA80080114FEA5252C2F11802C2F1200C10FA16
:100EB8000CF320FA02F018BF40F001004FEAC123FA
:100EC8004FEAD32303FA0CFC40EA0C0023FA02F39E
:100ED8004FEA4303CCE77FEA625307D150EA013374
:100EE8001EBF4FF0FE4040F44000704701F0004044
:100EF80040F0FE4040F40000704700BF53B94AB9C3
:100F0800002908BF00281CBF4FF0FF314FF0FF3009
:100F180000F0B8B9ADF1080C6DE904CE00F03CF86A
:100F2800DDF804E0DDE9022304B0704738B500229B
:100F3800002304460D46FFF70BFF28B92046294633
:100F4800BDE8384000F00AB8204605F1004100F03D
:100F580005F8404261EB410138BD00BFD0B5002221
:100F68000B4B06460F46FFF781FCFFF757FF044679
:100F7800FFF702FC0022074BFFF778FC02460B46FE
:100F880030463946FFF7BAFAFFF748FF2146D0BD89
:100F98000000F03D0000F0412DE9F04F099D0446A6
:100FA8000F46002B48D18A42944661D9B2FA82F39F
:100FB80043B1C3F120019F4002FA03FC9C4020FA90
:100FC80001F10F434FEA1C411FFA8CFE220CB7FBBC
:100FD800F1F601FB167706FB0EF042EA0742904253
:100FE80008D91CEB020206F1FF3702D2904200F248
:100FF80037813E46121AA4B2B2FBF1F001FB10226F
:1010080000FB0EFE44EA0244A64508D91CEB040482
:1010180000F1FF3202D2A64500F21C81104640EAD8
:101028000640A4EB0E0400261DB1DC400023C5E9F0
:1010380000433146BDE8F08F8B4209D9002D00F0FE
:10104800FD800026C5E9000130463146BDE8F08F35
:10105800B3FA83F6002E4BD18B42C0F0F280824265
:1010680040F2EF803046002DE3D0C5E90047E0E7C5
:1010780002B9FFDEB2FA82F3002B40F09D80891A94
:101088004FEA124E97B20126200CB1FBFEF20EFB7E
:10109800121140EA014107FB02F088420FD91CEB0C
:1010A800010102F1FF382CBF4FF001094FF0000990
:1010B800884203D9B9F1000F00F0CF804246091ADF
:1010C800A4B2B1FBFEF00EFB101100FB07F744EAD7
:1010D8000144A74208D91CEB040400F1FF3102D2F5
:1010E800A74200F2B4800846E41B40EA02409BE7AE
:1010F800C6F12007B34001FA06F422FA07FCF940CA
:10110800B2404CEA030C20FA07F34FEA1C491C438F
:101118001FFA8CFE00FA06F3200CB1FBF9F809FB64
:10112800181140EA014108FB0EF088420FD91CEB68
:10113800010108F1FF3A2CBF4FF0010B4FF0000BF3
:10114800884203D9BBF1000F00F08D80D046091A00
:10115800A4B2B1FBF9F009FB101100FB0EFE44EA42
:1011680001418E4507D91CEB010100F1FF3401D282
:101178008E457FD8204640EA0840A1EB0E01A0FB2F
:10118800029841454C46C64602D306D14B4504D287
:101198000138B9EB020468EB0C0E002D70D01A1B55
:1011A80061EB0E0122FA06F301FA07F7F140002677
:1011B8001F43C5E900713CE702FA03FCC3F12000B4
:1011C80001FA03F221FA00F64FEA1C4E24FA00F164
:1011D8001FFA8CF79C401143B6FBFEF00A0C0EFB7D
:1011E800106642EA064200FB07F696420ED91CEB4F
:1011F800020200F1FF382CBF4FF001094FF000093F
:10120800964202D9B9F1000F31D04046921B89B2FB
:10121800B2FBFEF60EFB162241EA024106FB07F27C
:101228008A4207D91CEB010106F1FF3801D28A4234
:1012380023D84646891A46EA004625E72E46284618
:10124800F7E6841A61EB030301201F460BE76444A9
:10125800023849E764440238E1E6023A61442EE77D
:10126800023E6244C6E6A8F1020861446FE702380C
:101278006244CBE7023861447DE7023E6144D9E726
:101288002E46D6E6704700BF90B587B000AFF8602D
:101298007A601A460B46FB7213463B81FB685C6812
:1012A800FB6898683B89F97A7A68A04778617B6916
:1012B80018461C37BD4690BD90B587B000AFF860A2
:1012C8007A601A460B46FB7213463B81FB681C6822
:1012D800FB6898683B89F97A7A68A04778617B69E6
:1012E80018461C37BD4690BD80B584B000AF786005
:1012F8000B46FB7007F10802012310217868FFF7FD
:10130800C3FFF860FB68002B0FD1FB7803F00303E1
:10131800DAB23B7A62F383033B7207F108020123D6
:1013280010217868FFF7C8FFF860FB681846103787
:10133800BD4680BD80B584B000AF78600B46FB70B9
:1013480007F10802012310217868FFF79DFFF86074
:10135800FB68002B0FD1FB7803F00703DAB23B7A66
:1013680062F347133B7207F10802012310217868E2
:10137800FFF7A2FFF860FB6818461037BD4680BD2E
:1013880080B584B000AF78600B46FB7007F10802A7
:1013980001230B217868FFF777FFF860FB68002BC3
:1013A8000FD1FB7803F00103DAB23B7A62F3C7137B
:1013B8003B7207F1080201230B217868FFF77CFFD5
:1013C800F860FB6818461037BD4680BD80B584B00C
:1013D80000AF7860396001233A680F217868FFF719
:1013E80053FFF860FB6818461037BD4680BD80B5CE
:1013F80084B000AF78600B46FB7007F10802012348
:1014080012217868FFF740FFF860FB68002B0FD1C6
:10141800FB7803F00103DAB23B7A62F300033B7214
:1014280007F10802012312217868FFF745FFF860E9
:10143800FB6818461037BD4680BD80B584B000AF44
:101448007860396007F10802012312217868FFF7F4
:101458001BFFF8603B7AC3F30003DBB21A463B6814
:101468001A70FB6818461037BD4680BD80B586B037
:1014780000AF78600B46FB7007F1100201231021C2
:101488007868FFF701FF78617B69002B11D1FB7841
:10149800DB09DBB203F00103DAB23B7C62F3410300
:1014A8003B7407F11002012310217868FFF704FF4D
:1014B80078617B69002B07D107F10C020123172102
:1014C8007868FFF7E1FE78617B69002B21D1FB7812
:1014D8001B0903F00103DAB23B7B62F382033B731F
:1014E800FB785B0903F00103DAB23B7B62F3041378
:1014F8003B73FB7803F00703DAB23B7B62F34713D5
:101508003B7307F10C02012317217868FFF7D4FE1B
:1015180078617B6918461837BD4680BD80B584B0B0
:1015280000AF78600B46FB7007F108020123132116
:101538007868FFF7A9FEF860FB68002B0FD1FB78ED
:1015480003F00103DAB23B7A62F382033B7207F1DC
:101558000802012313217868FFF7AEFEF860FB68E4
:1015680018461037BD4680BD80B586B000AF78609C
:10157800396007F1100201230D217868FFF784FE16
:1015880078617B69002B07D107F1080201235E21EE
:101598007868FFF779FE78617B69002B07D107F13E
:1015A8000C02012356217868FFF76EFE78613B68CC
:1015B8001B78C3F30003DAB23B7C62F300033B748D
:1015C8003B681B78C3F34003DAB23B7C62F38203C7
:1015D8003B743B681B78C3F38003DAB23B7C62F34D
:1015E800C3033B743B681B78C3F3C003DAB23B7C8C
:1015F80062F304133B743B681B78C3F30013DAB23D
:101608003B7C62F345133B743B681B78C3F3401380
:10161800DAB23B7C62F386133B743B681B78C3F3F6
:101628008013DAB23B7A62F345133B723B681B784E
:10163800C3F3C013DAB23B685B78C3F30003DBB2D1
:101648001343DAB23B7A62F3C7133B723B685B78A9
:10165800C3F30003DAB23B7B62F345133B737B6948
:10166800002B07D107F1100201230D217868FFF73D
:1016780023FE78617B69002B07D107F1080201235B
:101688005E217868FFF718FE78617B69002B07D127
:1016980007F10C02012356217868FFF70DFE7861E7
:1016A8007B6918461837BD4680BD80B586B000AF47
:1016B8007860396007F1100201230D217868FFF77F
:1016C800E3FD78617B69002B07D107F1080201234C
:1016D8005E217868FFF7D8FD78617B69002B07D118
:1016E80007F10C02012356217868FFF7CDFD7861D8
:1016F8003B7CC3F30003D9B23A68137861F3000363
:1017080013703B7CC3F38003D9B23A68137861F352
:10171800410313703B7CC3F3C003D9B23A68137812
:1017280061F3820313703B7CC3F30013D9B23A68A8
:10173800137861F3C30313703B7CC3F34013D9B22E
:101748003A68137861F3041313703B7CC3F3801376
:10175800D9B23A68137861F3451313703B7AC3F32F
:101768004013D9B23A68137861F3861313703B7B40
:1017780003F02003DBB2002B0AD03A68537843F019
:10178800010353703A6813786FF3C713137008E0B6
:101798003B7AC3F3C013D9B23A68137861F3C7131D
:1017A80013707B6918461837BD4680BD80B586B072
:1017B80000AF78600B467B8007F10C0201230821FB
:1017C8007868FFF761FD78617B69002B0AD17B8817
:1017D800DBB23B7407F11002012307217868FFF799
:1017E8006BFD78617B69002B11D17B881B0A9BB24A
:1017F80003F00103DAB23B7B62F300033B7307F1AA
:101808000C02012308217868FFF756FD78617B698F
:1018180018461837BD4680BD80B584B000AF7860E3
:101828000B46FB7007F10802012309217868FFF7CE
:101838002BFDF860FB68002B0FD1FB7803F00F033A
:10184800DAB23B7A62F303033B7207F10802012321
:1018580009217868FFF730FDF860FB6818461037F3
:10186800BD4680BD80B584B000AF78600B46FB7084
:1018780007F1080201230A217868FFF705FDF860DF
:10188800FB68002B0FD1FB7803F00703DAB23B7A31
:1018980062F302033B7207F1080201230A21786808
:1018A800FFF70AFDF860FB6818461037BD4680BD93
:1018B80090B587B000AFF8607A601A460B46FB72A5
:1018C80013463B81FB685C68FB6898683B89F97A3A
:1018D8007A68A04778617B6918461C37BD4690BD79
:1018E80090B587B000AFF8607A601A460B46FB7275
:1018F80013463B81FB681C68FB6898683B89F97A4A
:101908007A68A04778617B6918461C37BD4690BD48
:1019180080B584B000AF78600B46FB7007F1080211
:10192800012310217868FFF7C3FFF860FB68002BDC
:101938000FD1FB7803F00303DAB23B7A62F3830337
:101948003B7207F10802012310217868FFF7C8FFEE
:10195800F860FB6818461037BD4680BD80B584B076
:1019680000AF7860396007F1080201231021786818
:10197800FFF79EFFF8603B7AC3F38103DBB2032BCA
:101988001AD801A252F823F0A1190008A9190008D1
:10199800B1190008B91900083B6800221A700FE055
:1019A8003B6801221A700BE03B6802221A7007E0BC
:1019B8003B6803221A7003E03B6800221A7000BFDC
:1019C800FB6818461037BD4680BD00BF80B586B09D
:1019D80000AF78600B46FB70FB78FB7507F10C03D2
:1019E8001946786801F05AF938613B69002B40F0D4
:1019F800C4803B7BC3F30003DAB23B7BC3F34003F1
:101A0800DBB21343DAB23B7BC3F38003DBB213438D
:101A1800DAB23B7BC3F3C003DBB21343DAB23B7BDE
:101A2800C3F30013DBB21343DAB23B7BC3F34013B7
:101A3800DBB21343DAB23B7BC3F38013DBB213434D
:101A4800DAB23B7BC3F3C013DBB21343DAB27B7B5E
:101A5800C3F30003DBB21343DAB27B7BC3F3400367
:101A6800DBB21343DAB27B7BC3F38003DBB21343ED
:101A7800DAB27B7BC3F3C003DBB21343DAB27B7BFE
:101A8800C3F30013DBB21343DAB27B7BC3F3401317
:101A9800DBB21343DAB27B7BC3F38013DBB21343AD
:101AA800DAB27B7BC3F3C013DBB21343DBB2012B87
:101AB80063D107F10B031946786801F01BF9386107
:101AC8003B69002B59D1FB7A032B53D801A252F85A
:101AD80023F000BFED1A0008FF1A00081D1B0008BC
:101AE800471B0008FB78002B02D10123FB7545E05A
:101AF800FB78FB7542E0FB78002B02D10223FB75D3
:101B08003CE0FB78012B02D10223FB7536E0FB7821
:101B1800FB7533E0FB78002B02D10323FB752DE026
:101B2800FB78012B02D10323FB7527E0FB78022BFE
:101B380002D10323FB7521E0FB78FB751EE0FB78DF
:101B4800002B02D10423FB7518E0FB78012B02D18E
:101B58000423FB7512E0FB78022B02D10423FB75EA
:101B68000CE0FB78032B02D10423FB7506E0FB781D
:101B7800FB7503E0FB78FB7500E000BF0023BB7238
:101B88003B69002B6DD107F10A031946786801F00B
:101B9800F9F83861BB7A012B63D107F109031946BB
:101BA800786801F029F938613B69002B59D17B7AB3
:101BB800032B53D801A252F823F000BFD51B00080D
:101BC800E71B0008051C00082F1C0008FB78002BE9
:101BD80002D10123FB7545E0FB78FB7542E0FB78F9
:101BE800002B02D10223FB753CE0FB78012B02D1CC
:101BF8000223FB7536E0FB78FB7533E0FB78002B9E
:101C080002D10323FB752DE0FB78012B02D10323BE
:101C1800FB7527E0FB78022B02D10323FB7521E03B
:101C2800FB78FB751EE0FB78002B02D10423FB75C3
:101C380018E0FB78012B02D10423FB7512E0FB7836
:101C4800022B02D10423FB750CE0FB78032B02D195
:101C58000423FB7506E0FB78FB7503E0FB78FB7556
:101C680000E000BF3B69002B07D107F10802012300
:101C780010217868FFF71CFE38613B69002B0FD1F3
:101C8800FB7D03F00F03DAB23B7A62F307133B7272
:101C980007F10802012310217868FFF721FE386157
:101CA8003B6918461837BD4680BD00BF80B584B073
:101CB80000AF7860396007F10802012310217868C5
:101CC800FFF7F6FDF8603B7AC3F30313DBB20B2B87
:101CD8004AD801A252F823F0111D0008191D000866
:101CE800211D0008291D0008311D0008391D0008A4
:101CF800411D0008491D0008511D0008591D000814
:101D0800611D0008691D00083B6800221A702FE059
:101D18003B6801221A702BE03B6802221A7027E008
:101D28003B6803221A7023E03B6804221A701FE004
:101D38003B6805221A701BE03B6806221A7017E000
:101D48003B6807221A7013E03B6808221A700FE0FC
:101D58003B6809221A700BE03B680A221A7007E0F8
:101D68003B680B221A7003E03B6800221A7000BF20
:101D7800FB6818461037BD4680BD00BF80B584B0EB
:101D880000AF78600B46FB7007F1080201231121B0
:101D98007868FFF78DFDF860FB68002B0FD1FB78A2
:101DA80003F00F03DAB23B7A62F303033B7207F1E5
:101DB8000802012311217868FFF792FDF860FB689B
:101DC80018461037BD4680BD80B584B000AF786036
:101DD800396007F10802012311217868FFF768FDCF
:101DE800F8603B7AC3F30303DBB20C2B34D801A2AF
:101DF80052F823F0391E0008591E0008311E000849
:101E0800611E0008411E0008611E0008611E0008CE
:101E1800611E0008491E0008611E0008611E0008B6
:101E2800611E0008511E00083B6802221A7017E064
:101E38003B6800221A7013E03B6804221A700FE016
:101E48003B6808221A700BE03B680C221A7007E006
:101E58003B6801221A7003E03B6802221A7000BF37
:101E6800FB6818461037BD4680BD00BF80B586B0F8
:101E780000AF78600B46FB70FB78FB7507F10C032D
:101E88001946786800F00AFF38613B69002B40F07A
:101E9800C4803B7BC3F30003DAB23B7BC3F340034C
:101EA800DBB21343DAB23B7BC3F38003DBB21343E9
:101EB800DAB23B7BC3F3C003DBB21343DAB23B7B3A
:101EC800C3F30013DBB21343DAB23B7BC3F3401313
:101ED800DBB21343DAB23B7BC3F38013DBB21343A9
:101EE800DAB23B7BC3F3C013DBB21343DAB27B7BBA
:101EF800C3F30003DBB21343DAB27B7BC3F34003C3
:101F0800DBB21343DAB27B7BC3F38003DBB2134348
:101F1800DAB27B7BC3F3C003DBB21343DAB27B7B59
:101F2800C3F30013DBB21343DAB27B7BC3F3401372
:101F3800DBB21343DAB27B7BC3F38013DBB2134308
:101F4800DAB27B7BC3F3C013DBB21343DBB2012BE2
:101F580063D107F10B031946786800F0CBFE3861AE
:101F68003B69002B59D1FB7A032B53D801A252F8B5
:101F780023F000BF8D1F00089F1F0008BD1F000829
:101F8800E71F0008FB78002B02D10123FB7545E011
:101F9800FB78FB7542E0FB78002B02D10223FB752E
:101FA8003CE0FB78012B02D10223FB7536E0FB787D
:101FB800FB7533E0FB78002B02D10323FB752DE082
:101FC800FB78012B02D10323FB7527E0FB78022B5A
:101FD80002D10323FB7521E0FB78FB751EE0FB783B
:101FE800002B02D10423FB7518E0FB78012B02D1EA
:101FF8000423FB7512E0FB78022B02D10423FB7546
:102008000CE0FB78032B02D10423FB7506E0FB7878
:10201800FB7503E0FB78FB7500E000BF0023BB7293
:102028003B69002B6DD107F10A031946786800F067
:10203800A9FE3861BB7A012B63D107F10903194660
:10204800786800F0D9FE38613B69002B59D17B7A5A
:10205800032B53D801A252F823F000BF75200008C3
:1020680087200008A5200008CF200008FB78002B57
:1020780002D10123FB7545E0FB78FB7542E0FB7854
:10208800002B02D10223FB753CE0FB78012B02D127
:102098000223FB7536E0FB78FB7533E0FB78002BF9
:1020A80002D10323FB752DE0FB78012B02D103231A
:1020B800FB7527E0FB78022B02D10323FB7521E097
:1020C800FB78FB751EE0FB78002B02D10423FB751F
:1020D80018E0FB78012B02D10423FB7512E0FB7892
:1020E800022B02D10423FB750CE0FB78032B02D1F1
:1020F8000423FB7506E0FB78FB7503E0FB78FB75B2
:1021080000E000BF3B69002B07D107F1080201235B
:1021180011217868FFF7CCFB38613B69002B0FD1A0
:10212800FB7D03F00F03DAB23B7A62F307133B72CD
:1021380007F10802012311217868FFF7D1FB386104
:102148003B6918461837BD4680BD00BF80B584B0CE
:1021580000AF7860396007F108020123112178681F
:10216800FFF7A6FBF8603B7AC3F30313DBB20A2B35
:1021780044D801A252F823F0AD210008B521000887
:10218800BD210008C5210008CD210008D52100087F
:10219800DD210008E5210008ED210008F5210008EF
:1021A800FD2100083B6800221A702BE03B680122E1
:1021B8001A7027E03B6802221A7023E03B6803226A
:1021C8001A701FE03B6804221A701BE03B68052266
:1021D8001A7017E03B6806221A7013E03B68072262
:1021E8001A700FE03B6808221A700BE03B6809225E
:1021F8001A7007E03B680A221A7003E03B68002265
:102208001A7000BFFB6818461037BD4680BD00BF76
:1022180080B584B000AF78600B46FB7007F1080208
:10222800012301217868FFF743FBF860FB68002B66
:102238000FD1FB7803F00303DAB23B7A62F387131A
:102248003B7207F10802012301217868FFF748FB78
:10225800F860FB6818461037BD4680BD80B584B06D
:1022680000AF7860396001233A680F217868FFF77A
:102278001FFBF860FB6818461037BD4680BD80B567
:1022880084B000AF78600B46FB7007F108020123A9
:1022980012217868FFF70CFBF860FB68002B0FD160
:1022A800FB7803F00103DAB23B7A62F300033B7276
:1022B80007F10802012312217868FFF711FBF86083
:1022C800FB6818461037BD4680BD80B584B000AFA6
:1022D8007860396007F10802012312217868FFF756
:1022E800E7FAF8603B7AC3F30003DBB21A463B68AF
:1022F8001A70FB6818461037BD4680BD80B584B09B
:1023080000AF78600B46FB7007F108020123132128
:102318007868FFF7CDFAF860FB68002B0FD1FB78DF
:1023280003F00103DAB23B7A62F382033B7207F1EE
:102338000802012313217868FFF7D2FAF860FB68D6
:1023480018461037BD4680BD80B584B000AF7860B0
:10235800396002217868FFF75BFFF860FB68002BA3
:1023680007D13B685A1D01230D217868FFF7B8FA99
:10237800F860FB68002B07D13B689A1C01230A21EF
:102388007868FFF7ADFAF860FB68002B07D13B6867
:10239800DA1C01230B217868FFF7A2FAF860FB68C2
:1023A800002B07D13B681A1D01230C217868FFF721
:1023B80097FAF860FB68002B04D100217868FFF7D2
:1023C80027FFF860FB68002B40F0D6803B689B78BD
:1023D800C3F3C013DAB23B689B78C3F34013DBB294
:1023E8001343DAB23B689B78C3F3C003DBB21343F1
:1023F800DAB23B689B78C3F30013DBB21343DAB25B
:102408003B68DB78C3F30003DBB21343DAB23B6803
:10241800DB78C3F34003DBB21343DAB23B68DB7803
:10242800C3F38003DBB21343DAB23B68DB78C3F350
:10243800C003DBB21343DAB23B68DB78C3F30013A3
:10244800DBB21343DAB23B68DB78C3F34013DBB289
:102458001343DAB23B68DB78C3F38013DBB2134370
:10246800DAB23B68DB78C3F3C013DBB21343DAB2EA
:102478003B681B79C3F30003DBB21343DAB23B6852
:102488001B79C3F34003DBB21343DAB23B681B7911
:10249800C3F38003DBB21343DAB23B681B79C3F39F
:1024A800C003DBB21343DAB23B681B79C3F30013F2
:1024B800DBB21343DAB23B681B79C3F34013DBB2D8
:1024C8001343DAB23B681B79C3F38013DBB21343BF
:1024D800DAB23B681B79C3F3C013DBB21343DAB239
:1024E8003B685B79C3F30003DBB21343DAB23B68A2
:1024F8005B79C3F34003DBB21343DAB23B685B7921
:10250800C3F38003DBB21343DAB23B685B79C3F3EE
:10251800C003DBB21343DAB23B685B79C3F3001341
:10252800DBB21343DAB23B685B79C3F34013DBB227
:102538001343DAB23B685B79C3F38013DBB213430E
:10254800DAB23B685B79C3F3C013DBB21343DBB287
:10255800002B05D03A68537843F00203537004E027
:102568003A6853786FF3410353703A6801230D2199
:102578007868FFF7B5F9F860FB68002B07D13B686E
:102588005A1C01235E217868FFF7AAF9F860FB68F6
:10259800002B79D107F10802012358217868FFF749
:1025A80087F9F8603B681B78C3F3C013DAB23B685D
:1025B8001B78C3F38003DBB21343DAB23B681B78A2
:1025C800C3F38013DBB21343DAB23B681B78C3F35F
:1025D8004003DBB21343DAB23B681B78C3F3000352
:1025E800DBB21343DAB23B681B78C3F34013DBB2A8
:1025F8001343DAB23B681B78C3F30013DBB213430F
:10260800DAB23B681B78C3F3C003DBB21343DAB218
:102618003B685B78C3F30003DBB21343DAB23B6871
:102628005B78C3F38003DBB21343DAB23B685B78B1
:10263800C3F3C003DBB21343DAB23B685B78C3F37E
:102648000013DBB21343DAB23B685B78C3F3401381
:10265800DBB21343DAB23B685B78C3F38013DBB2B7
:102668001343DAB23B685B78C3F3C013DBB213439E
:10267800DBB2002B04D03B7A43F080033B7203E0CB
:102688003B7A6FF3C7133B72FB68002B07D107F146
:102698000802012358217868FFF722F9F860FB68DF
:1026A80018461037BD4680BD80B584B000AF78604D
:1026B800396002217868FFF7ABFDF860FB68002BF2
:1026C80007D13B685A1D01230D217868FFF7F0F800
:1026D800F860FB68002B07D13B689A1C01230A218C
:1026E8007868FFF7E5F8F860FB68002B07D13B68CE
:1026F800DA1C01230B217868FFF7DAF8F860FB6829
:10270800002B07D13B681A1D01230C217868FFF7BD
:10271800CFF8F860FB68002B04D100217868FFF738
:1027280077FDF860FB68002B06D13A6801230D217C
:102738007868FFF7BDF8F860FB68002B07D13B68A5
:102748005A1C01235E217868FFF7B2F8F860FB682D
:1027580018461037BD4680BD80B584B000AF78609C
:10276800396002217868FFF753FDF860FB68002B99
:1027780007D13B685A1D012311217868FFF7B0F88B
:10278800F860FB68002B07D13B689A1C01230E21D7
:102798007868FFF7A5F8F860FB68002B07D13B685D
:1027A800DA1C01230F217868FFF79AF8F860FB68B4
:1027B800002B07D13B681A1D012310217868FFF709
:1027C8008FF8F860FB68002B04D100217868FFF7C8
:1027D8001FFDF860FB68002B40F0D6803B689B78B3
:1027E800C3F3C003DAB23B689B78C3F30013DBB2D0
:1027F8001343DAB23B689B78C3F34013DBB213434D
:10280800DAB23B689B78C3F3C013DBB21343DAB286
:102818003B68DB78C3F30003DBB21343DAB23B68EF
:10282800DB78C3F34003DBB21343DAB23B68DB78EF
:10283800C3F38003DBB21343DAB23B68DB78C3F33C
:10284800C003DBB21343DAB23B68DB78C3F300138F
:10285800DBB21343DAB23B68DB78C3F34013DBB275
:102868001343DAB23B68DB78C3F38013DBB213435C
:10287800DAB23B68DB78C3F3C013DBB21343DAB2D6
:102888003B681B79C3F30003DBB21343DAB23B683E
:102898001B79C3F34003DBB21343DAB23B681B79FD
:1028A800C3F38003DBB21343DAB23B681B79C3F38B
:1028B800C003DBB21343DAB23B681B79C3F30013DE
:1028C800DBB21343DAB23B681B79C3F34013DBB2C4
:1028D8001343DAB23B681B79C3F38013DBB21343AB
:1028E800DAB23B681B79C3F3C013DBB21343DAB225
:1028F8003B685B79C3F30003DBB21343DAB23B688E
:102908005B79C3F34003DBB21343DAB23B685B790C
:10291800C3F38003DBB21343DAB23B685B79C3F3DA
:10292800C003DBB21343DAB23B685B79C3F300132D
:10293800DBB21343DAB23B685B79C3F34013DBB213
:102948001343DAB23B685B79C3F38013DBB21343FA
:10295800DAB23B685B79C3F3C013DBB21343DBB273
:10296800002B05D03A68537843F00203537004E013
:102978003A6853786FF3410353703A6801230E2184
:102988007868FEF7ADFFF860FB68002B07D13B685D
:102998005A1C01235F217868FEF7A2FFF860FB68E4
:1029A800002B07D107F10802012358217868FEF7A8
:1029B8007FFFF860FB68002B6BD13B681B78C3F383
:1029C8000003DAB23B681B78C3F34003DBB213435E
:1029D800DAB23B681B78C3F38003DBB21343DAB285
:1029E8003B681B78C3F3C003DBB21343DAB23B681E
:1029F8001B78C3F30013DBB21343DAB23B681B78CE
:102A0800C3F34013DBB21343DAB23B681B78C3F35A
:102A18008013DBB21343DAB23B685B78C3F38003FD
:102A2800DBB21343DAB23B685B78C3F3C003DBB2B3
:102A38001343DAB23B685B78C3F30013DBB213438A
:102A4800DAB23B685B78C3F34013DBB21343DAB204
:102A58003B685B78C3F38013DBB21343DAB23B689D
:102A68005B78C3F3C013DBB21343DBB2002B04D093
:102A78003B7A43F080033B7203E03B7A6FF3C71362
:102A88003B7207F10802012358217868FEF728FFF6
:102A9800F860FB6818461037BD4680BD80B584B025
:102AA80000AF7860396002217868FFF7B1FBF86001
:102AB800FB68002B07D13B685A1D01231121786858
:102AC800FEF7F6FEF860FB68002B07D13B689A1CFE
:102AD80001230E217868FEF7EBFEF860FB68002BF7
:102AE80007D13B68DA1C01230F217868FEF7E0FE66
:102AF800F860FB68002B07D13B681A1D01231021E1
:102B08007868FEF7D5FEF860FB68002B04D1002139
:102B18007868FFF77DFBF860FB68002B06D13A6800
:102B280001230E217868FEF7C3FEF860FB68002BCE
:102B380007D13B685A1C01235F217868FEF7B8FE6D
:102B4800F860FB6818461037BD4680BD80B586B072
:102B580000AF78600B467B8007F10C020123082147
:102B68007868FEF7A5FE78617B69002B11D17B8818
:102B78001B0A9BB203F00103DAB23B7B62F300034A
:102B88003B7307F10C02012308217868FEF7A8FEC1
:102B980078617B69002B0AD17B88DBB23B7407F133
:102BA8001002012307217868FEF79AFE78617B6995
:102BB80018461837BD4680BD80B584B000AF786030
:102BC8000B46FB7007F10802012309217868FEF71C
:102BD8006FFEF860FB68002B0FD1FB7803F00F0342
:102BE800DAB23B7A62F303033B7207F1080201236E
:102BF80009217868FEF774FEF860FB6818461037FC
:102C0800BD4680BD80B584B000AF78600B46FB70D0
:102C180007F10802012309217868FEF749FEF860E8
:102C2800FB68002B0FD1FB7803F00F03DAB23B7A75
:102C380062F307133B7207F1080201230921786840
:102C4800FEF74EFEF860FB6818461037BD4680BD9B
:102C580080B584B000AF78600B46FB7007F10802BE
:102C680001230A217868FEF723FEF860FB68002B31
:102C78000FD1FB7803F00703DAB23B7A62F3020361
:102C88003B7207F1080201230A217868FEF728FE43
:102C9800F860FB6818461037BD4680BD80B584B023
:102CA80000AF7860396002217868FFF7B1FAF86000
:102CB800FB68002B06D13A68012346217868FEF7A5
:102CC800F7FDF860FB68002B07D13B685A1C01230D
:102CD80047217868FEF7ECFDF860FB68002B04D10B
:102CE80000217868FFF794FAF860FB6818461037F7
:102CF800BD4680BD80B584B000AF786039600221E0
:102D08007868FFF785FAF860FB68002B07D107F1B0
:102D1800080201235F217868FEF7CAFDF860FB68A6
:102D2800002B04D100217868FFF772FAF8603B7A2B
:102D3800C3F3C103DBB2032B1AD801A252F823F064
:102D4800592D0008612D0008692D0008712D000813
:102D58003B6800221A700FE03B6801221A700BE0F2
:102D68003B6802221A7007E03B6803221A7003E0EE
:102D78003B6800221A7000BFFB6818461037BD4632
:102D880080BD00BF80B584B000AF78603960022193
:102D98007868FFF73DFAF860FB68002B07D107F168
:102DA8000802012305217868FEF782FDF860FB68B8
:102DB800002B0BD100217868FFF72AFAF8603B7ADC
:102DC800C3F30013DBB21A463B681A70FB68184657
:102DD8001037BD4680BD80B582B000AF78603960DD
:102DE80001233A6838217868FEF762FD03461846E1
:102DF8000837BD4680BD000080B584B000AF78605C
:102E0800396002217868FFF703FAF860FB68002B45
:102E180007D107F10802012360217868FEF748FD11
:102E2800F860FB68002B2AD13B7AC3F30113DBB2AD
:102E3800032B1BD801A252F823F000BF552E00081F
:102E48005D2E0008652E00086D2E00083B680022E4
:102E58001A700FE03B6801221A700BE03B680222EF
:102E68001A7007E03B6803221A7003E03B680022EF
:102E78001A7000BF00217868FFF7CAF9F860FB688C
:102E880018461037BD4680BD80B500AF114B1B6892
:102E9800104A43F480731360032000F067F905F0CB
:102EA80087FF02460C4B1B6A03F00F030B49CB5CF0
:102EB80022FA03F30A4A13600F201FF055FB03465A
:102EC800002B01D0012302E01FF0F0FE002318467A
:102ED80080BD00BF00200240000C024608E5030840
:102EE800B000002080B400AF064B1B781A46064B92
:102EF8001B681344044A136000BFBD465DF8047B99
:102F0800704700BF04000020DC11002080B400AF2F
:102F1800034B1B681846BD465DF8047B704700BF2D
:102F2800DC11002080B584B000AF7860FFF7EEFFB9
:102F3800B8607B68FB60FB68B3F1FF3F05D00A4BC4
:102F48001B781A46FB681344FB6000BFFFF7DEFFDF
:102F58000246BB68D31AFA689A42F7D800BF00BF86
:102F68001037BD4680BD00BF0400002080B400AF0C
:102F7800054B5B68044A43F00203536000BFBD463B
:102F88005DF8047B704700BF004004E080B485B062
:102F980000AF78607B6803F00703FB600C4BDB68CD
:102FA800BB60BA684FF6FF031340BB60FB681A02A8
:102FB800BB68134343F0BF6343F40033BB60044A68
:102FC800BB68D36000BF1437BD465DF8047B70470B
:102FD80000ED00E080B400AF044BDB681B0A03F08F
:102FE80007031846BD465DF8047B704700ED00E016
:102FF80080B483B000AF0346FB7197F90730002B0C
:103008000BDBFB7903F01F02074997F907305B09CF
:10301800012000FA02F241F8232000BF0C37BD4618
:103028005DF8047B704700BF00E100E080B483B026
:1030380000AF0346FB7197F90730002B12DBFB79D1
:1030480003F01F020A4997F907305B09012000FACB
:1030580002F2203341F82320BFF34F8F00BFBFF3A4
:103068006F8F00BF00BF0C37BD465DF8047B70470B
:1030780000E100E080B483B000AF0346FB7197F92C
:103088000730002B0CDBFB7903F01F02074997F987
:1030980007305B09012000FA02F2603341F823206F
:1030A80000BF0C37BD465DF8047B704700E100E0C7
:1030B80080B483B000AF03463960FB7197F90730DD
:1030C800002B0ADB3B68DAB20C4997F9073012018A
:1030D800D2B20B4483F800230AE03B68DAB208490D
:1030E800FB7903F00F03043B1201D2B20B441A76AA
:1030F80000BF0C37BD465DF8047B704700E100E077
:1031080000ED00E080B489B000AFF860B9607A6083
:10311800FB6803F00703FB61FB69C3F10703042B9A
:1031280028BF0423BB61FB690433062B02D9FB6962
:10313800033B00E000237B614FF0FF32BB6902FADA
:1031480003F3DA43BB681A407B699A404FF0FF31BA
:103158007B6901FA03F3D9437B680B401343184694
:103168002437BD465DF8047B7047000080B582B007
:1031780000AF78607B68072B0FD07B68062B0CD0DC
:103188007B68052B09D07B68042B06D07B68032B52
:1031980003D0BC2104481FF066F97868FFF7F6FEF3
:1031A80000BF0837BD4680BD20BF030880B586B084
:1031B80000AF0346B9607A60FB737B680F2B03D9B5
:1031C800D5210E481FF04FF9BB680F2B03D9D62124
:1031D8000A481FF048F9FFF7FDFE78617A68B96878
:1031E8007869FFF78FFF024697F90F3011461846A6
:1031F800FFF75EFF00BF1837BD4680BD20BF03083C
:1032080080B582B000AF0346FB7197F90730002BF9
:1032180003DAEA2105481FF026F997F9073018461E
:10322800FFF7E6FE00BF0837BD4680BD20BF030894
:1032380080B582B000AF0346FB7197F90730002BC9
:1032480003DAFB2105481FF00EF997F907301846F5
:10325800FFF7ECFE00BF0837BD4680BD20BF03085E
:1032680080B582B000AF0346FB7197F90730184666
:10327800FFF700FF00BF0837BD4680BD80B584B0AA
:1032880000AF7860FFF742FEF8607B68002B01D141
:10329800012326E37B681B68884A934200F0D580A7
:1032A8007B681B68864A934200F0CF807B681B6866
:1032B800844A934200F0C9807B681B68824A934223
:1032C80000F0C3807B681B68804A934200F0BD8091
:1032D8007B681B687E4A934200F0B7807B681B6856
:1032E8007C4A934200F0B1807B681B687A4A93421B
:1032F80000F0AB807B681B68784A934200F0A58099
:103308007B681B68764A934200F09F807B681B6845
:10331800744A934200F099807B681B68724A934212
:1033280000F093807B681B68704A934200F08D80A0
:103338007B681B686E4A934200F087807B681B6835
:103348006C4A934200F081807B681B686A4A93420A
:103358007BD07B681B68694A934276D07B681B6880
:10336800674A934271D07B681B68664A93426CD067
:103378007B681B68644A934267D07B681B68634A12
:10338800934262D07B681B68614A93425DD07B6838
:103398001B68604A934258D07B681B685E4A934218
:1033A80053D07B681B685D4A93424ED07B681B688C
:1033B8005B4A934249D07B681B685A4A934244D07F
:1033C8007B681B68584A93423FD07B681B68574A02
:1033D80093423AD07B681B68554A934235D07B6844
:1033E8001B68544A934230D07B681B68524A934208
:1033F8002BD07B681B68514A934226D07B681B6898
:103408004F4A934221D07B681B684E4A93421CD096
:103418007B681B684C4A934217D07B681B684B4AF1
:10342800934212D07B681B68494A93420DD07B684F
:103438001B68484A934208D07B681B68464A9342F7
:1034480003D0FA2145481FF00EF87B68DB68002B93
:103458000DD07B68DB68B3F5806F08D07B68DB68CC
:10346800B3F5007F03D0FB213C481EF0FCFF7B68CE
:10347800DB68B3F5806F04D07B68DB68B3F5007F49
:103488000CD17B685B68B3F5007F07D07B685B680D
:10349800712B03D9FE2131481EF0E5FF7B689B683C
:1034A800002B5DD07B689B68B3F5006F58D04FF454
:1034B80080712A481EF0D7FF52E000BF500002403A
:1034C80050000250D0000240D0000250500102408B
:1034D80050010250D0010240D00102505002024077
:1034E80050020250D0020240D00202505003024063
:1034F80050030250D0030240D0030250500402404F
:1035080050040250D0040240D0040250500502403A
:1035180050050250D0050240D00502505006024026
:1035280050060250D0060240D00602505007024012
:1035380050070250D0070240D007025050500246B0
:1035480050500256D0500246D050025650510246B2
:1035580050510256D0510246D051025680BF03083E
:103568007B681B69002B08D07B681B69082B04D07B
:1035780040F201118A481EF076FF7B685B69002BD8
:1035880009D07B685B69B3F5002F04D04FF48171D3
:1035980083481EF068FF7B689B69002B0CD07B6812
:1035A8009B69012B08D07B689B69022B04D040F2F1
:1035B80003117B481EF057FF7B68DB69002B0ED098
:1035C8007B68DB69B3F5803F09D07B68DB69B3F5BD
:1035D800003F04D04FF4827171481EF044FF7B68AD
:1035E8001B6A002B13D07B681B6AB3F5800F0ED0C3
:1035F8007B681B6AB3F5000F09D07B681B6AB3F5BB
:10360800400F04D040F2051165481EF02CFF7B687E
:103618001B6B002B13D07B681B6BB3F1804F0ED054
:103628007B681B6BB3F1004F09D07B681B6BB3F150
:10363800404F04D04FF4837159481EF014FF7B6843
:103648005B6B002B04D040F2071155481EF00BFFAE
:103658007B681B68534A934200F0A0807B681B6814
:10366800514A934200F09A807B681B684F4A934204
:1036780000F094807B681B684D4A934200F08E806E
:103688007B681B684B4A934200F088807B681B6804
:10369800494A934200F082807B681B68474A9342FC
:1036A8007CD07B681B68464A934277D07B681B684E
:1036B800444A934272D07B681B68434A93426DD058
:1036C8007B681B68414A934268D07B681B68404A04
:1036D800934263D07B681B683E4A93425ED07B6806
:1036E8001B683D4A934259D07B681B683B4A93420A
:1036F80054D07B681B683A4A93424FD07B681B685A
:10370800384A93424AD07B681B68374A934245D06F
:103718007B681B68354A934240D07B681B68344AF3
:1037280093423BD07B681B68324A934236D07B6811
:103738001B68314A934231D07B681B682F4A9342F9
:103748002CD07B681B682E4A934227D07B681B6865
:103758002C4A934222D07B681B682B4A93421DD087
:103768007B681B68294A934218D07B681B68284AE3
:10377800934213D07B681B68264A93420ED07B681D
:103788001B68254A934209D07B681B68234A9342E9
:1037980004D07B681B68224A934243D1012342E04C
:1037A80080BF03085000024050000250D000024081
:1037B800D00002505001024050010250D001024096
:1037C800D00102505002024050020250D002024082
:1037D800D00202505003024050030250D00302406E
:1037E800D00302505004024050040250D00402405A
:1037F800D00402505005024050050250D005024046
:10380800D00502505006024050060250D006024031
:10381800D00602505007024050070250D00702401D
:10382800D00702500023002B24D07B685B6A002B52
:1038380003D07B685B6A402B04D940F20B112B48FC
:103848001EF011FE7B689B6A002B03D07B689B6A85
:10385800402B04D94FF4867124481EF004FE7B687F
:10386800DB6A23F04023002B04D040F20D111F48DF
:103878001EF0F9FD7B68002283F84C207B68022249
:1038880083F854207B681B685A697B681B6842F080
:1038980006025A610FE0FFF739FB0246FB68D31AAC
:1038A800052B08D97B6810229A657B68032283F868
:1038B8005420012315E07B681B685B6903F0010352
:1038C800002BE8D1786800F099FA7B685A6B7B681E
:1038D8001A657B6800229A657B68012283F8542068
:1038E800002318461037BD4680BD00BF80BF0308BF
:1038F80080B584B000AFF860B9607A603B60FB685F
:10390800002B01D101235BE03B68002B03D03B680F
:10391800B3F5803F04D340F20B212B481EF0A3FDE2
:10392800FB6893F84C30012B01D1022348E0FB6877
:10393800012283F84C20FB6893F85430DBB2012B4A
:1039480036D1FB68022283F85420FB6800229A656E
:103958003B687A68B968F86800F02AFAFB681B685F
:103968005A69FB681B6842F4BA425A61FB685B6E8D
:10397800002B07D0FB681B685A69FB681B6842F478
:1039880000725A61FB681B6F002B07D0FB681B682D
:103998005A69FB681B6842F400525A61FB681B684D
:1039A8005A69FB681B6842F001025A61002307E06C
:1039B800FB6840229A65FB68002283F84C200123AB
:1039C80018461037BD4680BD80BF030880B483B059
:1039D80000AF78607B68002B01D1012319E07B6878
:1039E80093F85430DBB2022B04D07B6820229A650E
:1039F80001230EE07B68042283F854207B681B684F
:103A08005B697A68126843F4005343F00403536116
:103A1800002318460C37BD465DF8047B704780B517
:103A280084B000AF78607B681B6823F47F6323F061
:103A38000F03FB607B681B68C3F30B03503BDB0978
:103A480003F01F03012202FA03F3BB60FB68DA6884
:103A5800BB681340002B00F050817B681B681B6912
:103A680003F48063002B11D07B681B685B6903F447
:103A78008063002B0AD07B681B684FF48062DA6091
:103A88007B689B6D43F001027B689A657B681B68C5
:103A98001B6903F40063002B11D07B681B685B690A
:103AA80003F40063002B0AD07B681B684FF40062A4
:103AB800DA607B689B6D43F002027B689A657B68DD
:103AC8001B681B6903F48053002B11D07B681B68AB
:103AD8005B6903F48053002B0AD07B681B684FF4A2
:103AE8008052DA607B689B6D43F004027B689A65BC
:103AF8007B681B681B6903F48043002B11D07B682B
:103B08001B685B6903F48043002B0AD07B681B6841
:103B18004FF48042DA607B689B6D43F008027B6853
:103B28009A657B681B681B6903F40073002B13D02C
:103B38007B681B685B6903F40073002B0CD07B68FF
:103B48001B684FF40072DA607B685B6E002B03D051
:103B58007B685B6E786898477B681B681B6903F411
:103B68000053002B55D07B681B685B6903F4005336
:103B7800002B4ED07B681B684FF40052DA607B68DC
:103B880093F85430DBB2042B37D17B681B685A6931
:103B98007B681B6822F400525A617B681B685A696B
:103BA8007B681B6842F002025A617B681B685B698C
:103BB80003F00103002B04D07B68032283F8542010
:103BC80003E07B68012283F854207B681B6D03F0B7
:103BD8008003002B03D07B685B6F01221A737B681C
:103BE800002283F84C207B68DB6E002B00F0878076
:103BF8007B68DB6E7868984781E07B68052283F8EC
:103C080054207B681B6F002B03D07B681B6F786880
:103C180098477B681B681B6903F48073002B39D0B5
:103C28007B681B685B6903F48073002B32D07B6868
:103C38001B6D03F08003002B12D07B681B68DB6FC1
:103C4800002B16D17B681B689B6C002B11D17B68FD
:103C5800012283F854207B685B6F01221A7308E005
:103C68007B681B689B6C002B03D17B68012283F85F
:103C780054207B681B684FF44072DA607B6800222E
:103C880083F84C207B681B6E002B03D07B681B6E6F
:103C9800786898477B689B6D002B31D07B681B68E0
:103CA8005A697B681B6842F002025A617B681B688C
:103CB8005B6903F00103002B04D07B68032283F8BF
:103CC800542003E07B68012283F854207B681B6D35
:103CD80003F08003002B03D07B685B6F01221A730B
:103CE8007B68002283F84C207B689B6E002B07D0F2
:103CF8007B689B6E7868984702E000BF00E000BFD1
:103D08001037BD4680BD80B483B000AF78607B6853
:103D18009B6D18460C37BD465DF8047B7047000064
:103D280080B584B000AF786039607B68002B01D122
:103D3800012336E03B68112B07D03B68102B04D0D9
:103D480040F26B5119481EF08EFB7B681B6823F408
:103D58007F6323F00F03FB607B681B68C3F30B03CF
:103D6800503BDB0903F01F03012202FA03F3BB6097
:103D78003B6803F01003002B12D03B6803F01103DB
:103D8800112B06D1FB685A68BB681A43FB685A6056
:103D980006E0FB685A68BB68DB431A40FB685A6058
:103DA800002318461037BD4680BD00BF80BF0308FA
:103DB80080B485B000AFF860B9607A603B60FB689A
:103DC8001B689B6C1B0C1B043A6891B2FA6812685A
:103DD8000B439364FB681B684FF4FE42DA60FB6890
:103DE8001B68BA68DA64FB681B687A681A6500BFE2
:103DF8001437BD465DF8047B7047000080B485B079
:103E080000AF78607B681B6AFB607B681B685B6936
:103E180023F443017B681B68FA680A435A617B688C
:103E28005A697B68DB691A437B681B691A437B689C
:103E38009B691343FB607B681B68534A934200F0FD
:103E4800A0807B681B68514A934200F09A807B6887
:103E58001B684F4A934200F094807B681B684D4A68
:103E6800934200F08E807B681B684B4A934200F0B7
:103E780088807B681B68494A934200F082807B688F
:103E88001B68474A93427CD07B681B68454A93422B
:103E980077D07B681B68444A934272D07B681B6862
:103EA800424A93426DD07B681B68414A934268D06E
:103EB8007B681B683F4A934263D07B681B683E4A15
:103EC80093425ED07B681B683C4A934259D07B681A
:103ED8001B683B4A934254D07B681B68394A93421B
:103EE8004FD07B681B68384A93424AD07B681B686E
:103EF800364A934245D07B681B68354A934240D086
:103F08007B681B68334A93423BD07B681B68324A04
:103F1800934236D07B681B68304A934231D07B6825
:103F28001B682F4A93422CD07B681B682D4A93420A
:103F380027D07B681B682C4A934222D07B681B6879
:103F48002A4A93421DD07B681B68294A934218D09D
:103F58007B681B68274A934213D07B681B68264AF4
:103F680093420ED07B681B68244A934209D07B6831
:103F78001B68234A934204D07B681B68214A9342FA
:103F880042D1012341E000BF5000024050000250DE
:103F9800D0000240D00002505001024050010250AF
:103FA800D0010240D001025050020240500202509B
:103FB800D0020240D0020250500302405003025087
:103FC800D0030240D0030250500402405004025073
:103FD800D0040240D004025050050240500502505F
:103FE800D0050240D005025050060240500602504B
:103FF800D0060240D0060250500702405007025037
:10400800D0070240D00702500023002B12D07B6853
:10401800DA6A7B689B6A013B1B0503F07C731A43D1
:104028007B685B6A013B1B0103F47C731343FA68EA
:104038001343FB607B681B681B6C03F080217B6863
:104048001B68FA680A431A647B689A687B685B682D
:1040580003F07F031A437B681B6B1343FB607B6889
:10406800DB68B3F5806F40F0B0807B681B68824ADC
:10407800934200F0A0807B681B68804A934200F05E
:104088009A807B681B687E4A934200F094807B6824
:104098001B687C4A934200F08E807B681B687A4AD2
:1040A800934200F088807B681B68784A934200F04E
:1040B80082807B681B68764A93427CD07B681B6849
:1040C800744A934277D07B681B68734A934272D0D4
:1040D8007B681B68714A93426DD07B681B68704A85
:1040E800934268D07B681B686E4A934263D07B68B2
:1040F8001B686D4A93425ED07B681B686B4A93428B
:1041080059D07B681B686A4A934254D07B681B6805
:10411800684A93424FD07B681B68674A93424AD0EB
:104128007B681B68654A934245D07B681B68644A74
:10413800934240D07B681B68624A93423BD07B68BD
:104148001B68614A934236D07B681B685F4A93427A
:1041580031D07B681B685E4A93422CD07B681B6811
:104168005C4A934227D07B681B685B4A934222D003
:104178007B681B68594A93421DD07B681B68584A64
:10418800934218D07B681B68564A934213D07B68C9
:104198001B68554A93420ED07B681B68534A93426A
:1041A80009D07B681B68524A934204D07B681B681D
:1041B800504A934201D1012300E00023002B0DD087
:1041C800FB6843F48063FB6008E07B68DB68B3F559
:1041D800007F03D1FB6843F40073FB607B681B68B6
:1041E8005A6C454B13407A681268F9680B4353645C
:1041F8007B681B6800229A647B681B68364A934276
:1042080022D07B681B68354A93421DD07B681B68A7
:10421800334A934218D07B681B68324A934213D0C2
:104228007B681B68304A93420ED07B681B682F4A14
:10423800934209D07B681B682D4A934204D07B685F
:104248001B682C4A934201D1012300E00023002B74
:1042580007D07B681B6800225A657B681B680022B0
:104268009A657B681B680022DA6700BF1437BD4671
:104278005DF8047B704700BF5000024050000250B8
:10428800D0000240D00002505001024050010250BC
:10429800D0010240D00102505002024050020250A8
:1042A800D0020240D0020250500302405003025094
:1042B800D0030240D0030250500402405004025080
:1042C800D0040240D004025050050240500502506C
:1042D800D0050240D0050250500602405006025058
:1042E800D0060240D0060250500702405007025044
:1042F800D0070240D00702508031C03C80B586B05C
:1043080000AF78607B68002B03D07B685B6F002B65
:1043180001D1012382E07B6893F85430FB757B68F8
:104328001B685B6903F480333B61FB7D012B05D07F
:10433800FB7D022B6AD13B69002B67D07B6893F821
:104348005430DBB2012B57D17B6893F84C30012BEA
:1043580001D1022362E07B68012283F84C207B684C
:10436800022283F854207B685B6F02221A737B68F1
:1043780000229A657B685B6F00221A617B681B6864
:104388005A697B681B6842F4BA425A617B685B6E63
:10439800002B07D07B681B685A697B681B6842F44E
:1043A80000725A617B681B6F002B07D07B681B6803
:1043B8005A697B681B6842F400525A617B685B6FDC
:1043C8001B6807F10C010022184600F02BF87B68E7
:1043D8005B6F1B6819467B681A680B0C1B0413601B
:1043E8007B685B6F1B681A464FF6FC731340F968CD
:1043F8007A6812680B43D3677B681B685A697B68C5
:104408001B6842F001025A61002307E07B684022E2
:104418009A657B68002283F84C20012318461837D8
:10442800BD4680BD80B485B000AFF860B9607A60E1
:10443800FB681B6A03F00203002B0CD0BB68002B3F
:1044480002D0BB680D4A1A607B68002B0FD07B68CE
:1044580007221A600BE0BB68002B02D0BB68084A31
:104468001A607B68002B02D07B6805221A6000BFA7
:104478001437BD465DF8047B704700BF000001FE9D
:10448800000001F880B483B000AF0023FB710B4B30
:104498009B6A002B0BDA094B094A9A60074B094AB9
:1044A8009A60064B9B6A002B01DA0123FB71FB79AA
:1044B80018460C37BD465DF8047B70470020024063
:1044C80023016745AB89EFCD80B483B000AF0123EA
:1044D800FB71094B9B6A084A43F000439362064B01
:1044E8009B6A002B01DA0023FB71FB7918460C3715
:1044F800BD465DF8047B70470020024080B400AFE1
:104508000C4B9B6A03F08043002B0DD0094B0A4AE1
:104518001A61084B094A1A61064B9B6A03F08043EB
:10452800002B01D0012300E000231846BD465DF8AA
:10453800047B7047002002403B2A19087F6E5D4CBF
:1045480080B400AF094B9B6A084A43F080439362EA
:10455800064B9B6A03F08043002B01D0002300E048
:1045680001231846BD465DF8047B704700200240D1
:1045780080B400AF054B9B6A044A43F00063936222
:1045880001231846BD465DF8047B704700200240B1
:1045980080B586B000AF7860FEF7B8FC02467B684D
:1045A80013447B611B4B3B610BE07B68B3F1FF3F1E
:1045B80007D0FEF7ABFC02467B69934201D8032380
:1045C80023E03B691B6803F44033002BEDD13B69C2
:1045D8001A6842F2FA031340FB60FB68002B0AD00A
:1045E8000D4B5A68FB6813430B4A53603B69FA68E2
:1045F8001A60012309E03B691B6803F00103002BE3
:1046080002D03B6901221A60002318461837BD46BC
:1046180080BD00BF202002400800002080B584B083
:1046280000AF78607B681B684F2B04D940F24311B8
:1046380038481DF018FF384B1B78012B01D1022395
:1046480064E0354B01221A70334B00225A604FF454
:104658007A70FFF79DFF0346FB73FB7B002B51D15C
:104668007B681B6803F00103002B09D07B6858683E
:104678007B6899687B68DA687B681B7C00F09EF829
:104688007B681B6803F00203002B04D07B685B691E
:10469800184600F02DF97B681B6803F04003002BD7
:1046A80008D07B68986A7B68D96A7B681B6B1A4656
:1046B80000F044F97B681B6803F00403002B07D063
:1046C8007B689A697B68DB691946104600F060F9D7
:1046D8007B681B6803F00803002B07D07B681A6A05
:1046E8007B685B6A1946104600F002FC0B4B9B6A1C
:1046F8000A4A43F4003393624FF47A70FFF748FF95
:104708000346FB73044B00221A70FB7B18461037D4
:10471800BD4680BDE0BF030808000020002002401D
:1047280080B582B000AF78607B6806221A607B682B
:104738005B68012B0BD07B685B68022B07D07B681A
:104748005B68042B03D07B685B68082B11D17B68FE
:104758001B6843F001027B681A607B6858687B68B5
:1047680003F108017B6803F10C027B68103300F049
:10477800E5FB00F055FC02467B685A6100F06CFCD2
:1047880002467B68DA617B681B6A012B03D07B6871
:104798001B6A022B0DD17B681B6843F008027B68FB
:1047A8001A607B681A6A7B6824331946104600F041
:1047B80067FC00BF0837BD4680BD000080B584B0E7
:1047C80000AFF860B9607A60FB70FB68012B0DD010
:1047D800FB68022B0AD0FB68042B07D0FB68082B68
:1047E80004D04FF475713F481DF03DFE3E4B1B88C9
:1047F8004FF6FF7293420BD03B4B1B88002B05D022
:10480800394B1B889B025B085B0B02E0802300E0AE
:104818008023BA68934204D840F2D53131481DF05C
:1048280022FE314B1B884FF6FF7293420BD02E4B62
:104838001B88002B05D02C4B1B889B025B085B0B4D
:1048480002E0802300E080237A68934204D840F293
:10485800D63124481DF007FEFB78002B07D0FB78E3
:10486800012B04D040F2D7311E481DF0FCFDFB6837
:10487800012B0AD1FB78DB43DA077B681B041A4358
:104888001A49BB6813438B6528E0FB68022B0AD1E1
:10489800FB78DB43DA077B681B041A431349BB68C0
:1048A8001343CB651AE0FB68042B0AD1FB78DB4382
:1048B800DA077B681B041A430C49BB6813438B66F1
:1048C8000CE0FB68082B09D1FB78DB43DA077B682F
:1048D8001B041A430549BB681343CB6600BF103756
:1048E800BD4680BDE0BF0308A007FA0B00200240C8
:1048F80080B582B000AF78607B68AA2B0DD07B684A
:10490800552B0AD07B68BB2B07D07B68CC2B04D0F7
:1049180040F20E4107481DF0A6FD074B1B6C23F023
:10492800FF0205497B6813430B6400BF0837BD4687
:1049380080BD00BFE0BF03080020024080B584B0FE
:1049480000AFF860B9607A60FB68012B07D0FB689C
:10495800022B04D040F221410B481DF084FDFB6876
:10496800012B06D1094ABB681367084A7B6853675D
:1049780005E0064ABB689367044A7B68D36700BFB3
:104988001037BD4680BD00BFE0BF030800200240CD
:1049980080B584B000AF786039600023FB600023E5
:1049A800BB607B68B3F5001F02D27B68002B04D183
:1049B80040F24D41A1481DF056FD7B6803F001030C
:1049C800002B2BD03B6803F4E063002B1CD03B6822
:1049D80003F4E063B3F5807F16D03B6803F4E0632B
:1049E800B3F5007F10D03B6803F4E063B3F5407F74
:1049F8000AD03B6803F4E063B3F5806F04D040F25B
:104A080052418E481DF02FFD3B6803F4E063FA68BD
:104A18001343FB60BB6843F4E063BB607B6803F04F
:104A28000203002B18D03B6803F48053002B09D0F5
:104A38003B6803F48053002B04D140F25C417F486B
:104A48001DF011FD3B6803F48053FA681343FB60C3
:104A5800BB6843F48053BB607B6803F00403002BFE
:104A680018D03B6803F40053002B09D03B6803F4CB
:104A78000053002B04D140F2664170481DF0F3FC4E
:104A88003B6803F40053FA681343FB60BB6843F4C4
:104A98000053BB607B6803F00803002B18D03B6809
:104AA80003F48043002B09D03B6803F48043002BB8
:104AB80004D14FF48E6161481DF0D5FC3B6803F4C6
:104AC8008043FA681343FB60BB6843F48043BB60D0
:104AD8007B6803F01003002B18D03B6803F40043F5
:104AE800002B09D03B6803F40043002B04D140F2AB
:104AF8007A4152481DF0B7FC3B6803F40043FA685A
:104B08001343FB60BB6843F40043BB607B6803F05E
:104B18002003002B18D03B6803F48033002B09D006
:104B28003B6803F48033002B04D140F284414348AE
:104B38001DF099FC3B6803F48033FA681343FB606B
:104B4800BB6843F48033BB607B6803F04003002BF1
:104B580018D03B6803F40033002B09D03B6803F4FA
:104B68000033002B04D140F28E4134481DF07BFC09
:104B78003B6803F40033FA681343FB60BB6843F4F3
:104B88000033BB607B6803F08003002B18D03B68C0
:104B980003F48023002B09D03B6803F48023002B07
:104BA80004D14FF4936125481DF05DFC3B6803F484
:104BB8008023FA681343FB60BB6843F48023BB601F
:104BC8007B6803F48073002B18D03B6803F4002340
:104BD800002B09D03B6803F40023002B04D140F2DA
:104BE800A24116481DF03FFC3B6803F40023FA6815
:104BF8001343FB60BB6843F40023BB607B6803F48A
:104C08000073002B1CD03B6803F48013002B09D0E1
:104C18003B6803F48013002B04D140F2AC410748F1
:104C28001DF021FC3B6803F48013FA681343FB6012
:104C3800BB6843F48013BB6002E000BFE0BF030819
:104C48007B6803F48063002B18D03B6803F40013DF
:104C5800002B09D03B6803F40013002B04D140F269
:104C6800B641A1481DF0FFFB3B6803F40013FA6846
:104C78001343FB60BB6843F40013BB607B6803F419
:104C88000063002B18D03B6803F48003002B09D085
:104C98003B6803F48003002B04D14FF498619248D9
:104CA8001DF0E1FB3B6803F48003FA681343FB60E3
:104CB800BB6843F48003BB607B6803F48053002B1C
:104CC80018D03B6803F40003002B09D03B6803F4B9
:104CD8000003002B04D140F2CA4183481DF0C3FBF6
:104CE8003B6803F40003FA681343FB60BB6843F4B2
:104CF8000003BB607B6803F40053002B18D03B68AB
:104D080003F08073002B09D03B6803F08073002BFD
:104D180004D140F2D44174481DF0A5FB3B6803F070
:104D28008073FA681343FB60BB6843F08073BB6011
:104D38007B6803F48043002B18D03B6803F00073B2
:104D4800002B09D03B6803F00073002B04D140F21C
:104D5800DE4165481DF087FB3B6803F00073FA6885
:104D68001343FB60BB6843F00073BB607B6803F4CC
:104D78000043002B18D03B6803F08063002B09D058
:104D88003B6803F08063002B04D14FF49D615648C3
:104D98001DF069FB3B6803F08063FA681343FB600E
:104DA800BB6843F08063BB607B6803F48033002BEF
:104DB80018D03B6803F00063002B09D03B6803F070
:104DC8000063002B04D140F2F24147481DF04BFB31
:104DD8003B6803F00063FA681343FB60BB6843F069
:104DE8000063BB607B6803F40033002B18D03B687A
:104DF80003F08053002B09D03B6803F08053002B4D
:104E080004D140F2FC4138481DF02DFB3B6803F00B
:104E18008053FA681343FB60BB6843F08053BB6060
:104E28007B6803F48023002B18D03B6803F0005301
:104E3800002B09D03B6803F00053002B04D140F24B
:104E4800065129481DF00FFB3B6803F00053FA6830
:104E58001343FB60BB6843F00053BB607B6803F4FB
:104E68000023002B18D03B6803F08043002B09D0A7
:104E78003B6803F08043002B04D14FF4A2611A4829
:104E88001DF0F1FA3B6803F08043FA681343FB60B6
:104E9800BB6843F08043BB607B6803F48013002B3E
:104EA80014D03B68002B07DA3B68002B04DB40F288
:104EB8001A510D481DF0D7FA3B6803F00043FA6811
:104EC8001343FB60BB6843F00043BB60074B1A6C9D
:104ED800BB68DB431A400549FB6813430B6400BFFA
:104EE8001037BD4680BD00BFE0BF03080020024068
:104EF80080B582B000AF786039607B68012B07D03D
:104F08007B68022B04D04FF4B5610A481DF0ABFA58
:104F18007B68012B03D1084A3B68536405E07B6832
:104F2800022B02D1044A3B68936400BF0837BD4690
:104F380080BD00BFE0BF03080020024080B485B0F8
:104F480000AFF860B9607A603B60FB68012B15D14F
:104F5800324B9B6D03F07F02BB681A602F4B9B6D31
:104F68001B0C03F07F027B681A602C4B9B6DDB43A4
:104F7800DB0FDBB21A463B681A7049E0FB68022B6C
:104F880015D1264BDB6D03F07F02BB681A60234BFB
:104F9800DB6D1B0C03F07F027B681A601F4BDB6D17
:104FA800DB43DB0FDBB21A463B681A7030E0FB6864
:104FB800042B15D1194B9B6E03F07F02BB681A6056
:104FC800164B9B6E1B0C03F07F027B681A60134B19
:104FD8009B6EDB43DB0FDBB21A463B681A7017E0A7
:104FE800FB68082B14D10D4BDB6E03F07F02BB6806
:104FF8001A600A4BDB6E1B0C03F07F027B681A6099
:10500800064BDB6EDB43DB0FDBB21A463B681A70DC
:1050180000BF1437BD465DF8047B7047002002408E
:1050280080B483B000AF0B4B1B6CDBB27B607B683A
:10503800AA2B07D07B68552B04D07B68CC2B01D0DA
:10504800BB2300E07B6818460C37BD465DF8047B3F
:10505800704700BF0020024080B483B000AF074B08
:105068001B6C7B607B6823F0FF037B607B681846C2
:105078000C37BD465DF8047B704700BF0020024036
:1050880080B483B000AF786039607B68012B06D1AB
:105098000A4B5B6C23F07F023B681A6008E07B6870
:1050A800022B05D1054B9B6C23F07F023B681A60ED
:1050B80000BF0C37BD465DF8047B704700200240F6
:1050C80080B588B000AF7860396000237B617B6869
:1050D800874A93424FD07B68864A93424BD07B687D
:1050E800854A934247D07B68844A934243D07B6881
:1050F800834A93423FD07B68824A93423BD07B6885
:10510800814A934237D07B68804A934233D07B6888
:105118007F4A93422FD07B687E4A93422BD07B688C
:105128007D4A934227D07B687C4A934223D07B6890
:105138007B4A93421FD07B687A4A93421BD07B6894
:10514800794A934217D07B68784A934213D07B6898
:10515800774A93420FD07B68764A93420BD07B689C
:10516800754A934207D07B68744A934203D0CE2194
:1051780073481DF078F93B681B689BB2002B05D07B
:105188003B681B681B0C1B04002B03D0CF216C4809
:105198001DF069F93B685B68002B35D03B685B689C
:1051A800012B31D03B685B68112B2DD03B685B68C5
:1051B800022B29D03B685B68122B25D03B685B68C3
:1051C800604A934220D03B685B685F4A93421BD099
:1051D8003B685B685D4A934216D03B685B685C4AF3
:1051E800934211D03B685B685A4A93420CD03B68A3
:1051F8005B68594A934207D03B685B68032B03D02E
:10520800D0214F481DF02FF97B683B6175E33B685F
:105218001A6801217B6901FA03F31340FB607B697B
:10522800BB61FB68002B00F065837B68424A9342B0
:1052380040F096807B681B68FB6101227B6902FA5B
:1052480003F3DB43FA691340FB613B685B6803F0D7
:1052580001027B6902FA03F3FA691343FB617B6875
:10526800FA691A603D4A7B6952F833303B613B4A20
:105278007B69DB0013445B68BB61BB69DA083B6987
:10528800083253F82230FB61BB6903F007039B0027
:105298000F2202FA03F3DB43FA691340FB61BB698F
:1052A80003F007039B000B2202FA03F3FA69134386
:1052B800FB61BB69DA083B690832F96943F82210D7
:1052C8003B691B68FB61BB695B00032202FA03F3BD
:1052D800DB43FA691340FB61BB695B00022202FAF7
:1052E80003F3FA691343FB613B69FA691A60CAE17F
:1052F800000002420000025200040242000402526E
:105308000008024200080252000C0242000C02523D
:10531800001002420010025200140242001402520D
:105328000018024200180252001C0242001C0252DD
:1053380000200242002002520000024600000256ED
:1053480044C00308000011100000211000003110B3
:1053580000001210000022100000321058E3030869
:105368003B685B68022B04D03B685B68122B40F0FB
:105378001B817B68774A93424FD07B68764A934279
:105388004BD07B68754A934247D07B68744A9342F6
:1053980043D07B68734A93423FD07B68724A9342FA
:1053A8003BD07B68714A934237D07B68704A9342FE
:1053B80033D07B686F4A93422FD07B686E4A934202
:1053C8002BD07B686D4A934227D07B686C4A934206
:1053D80023D07B686B4A93421FD07B686A4A93420A
:1053E8001BD07B68694A934217D07B68684A93420E
:1053F80013D07B68674A93420FD07B68664A934212
:105408000BD07B68654A934207D07B68644A934215
:1054180003D0FD2163481DF026F87B684D4A93426E
:105428004FD07B684C4A93424BD07B684B4A93429F
:1054380047D07B684A4A934243D07B68494A9342A3
:105448003FD07B68484A93423BD07B68474A9342A7
:1054580037D07B68464A934233D07B68454A9342AB
:105468002FD07B68444A93422BD07B68434A9342AF
:1054780027D07B68424A934223D07B68414A9342B3
:105488001FD07B68404A93421BD07B683F4A9342B7
:1054980017D07B683E4A934213D07B683D4A9342BB
:1054A8000FD07B683C4A93420BD07B683B4A9342BF
:1054B80007D07B683A4A934203D0FE2139481CF052
:1054C800D2FF3B681B690F2B03D9FF2135481CF01D
:1054D800CAFF7B69DA087B68083253F82230FB611F
:1054E8007B6903F007039B000F2202FA03F3DB43F7
:1054F800FA691340FB613B681B6903F00F027B6983
:1055080003F007039B0002FA03F3FA691343FB61F4
:105518007B69DA087B680832F96943F822103B692D
:105528001B68FB61BB695B00032202FA03F3DB43E0
:10553800FA691340FB613B685B6803F00302BB69CF
:105548005B0002FA03F3FA691343FB613B69FA69EA
:105558001A6098E000000242000002520004024271
:10556800000402520008024200080252000C0242E3
:10557800000C0252001002420010025200140242B3
:10558800001402520018024200180252001C024283
:10559800001C025200200242002002520000024673
:1055A8000000025644C003087B68954A934250D0D5
:1055B8007B68944A93424CD07B68934A934248D084
:1055C8007B68924A934244D07B68914A934240D088
:1055D8007B68904A93423CD07B688F4A934238D08C
:1055E8007B688E4A934234D07B688D4A934230D090
:1055F8007B688C4A93422CD07B688B4A934228D094
:105608007B688A4A934224D07B68894A934220D097
:105618007B68884A93421CD07B68874A934218D09B
:105628007B68864A934214D07B68854A934210D09F
:105638007B68844A93420CD07B68834A934208D0A3
:105648007B68824A934204D04FF4887180481CF0EA
:105658000AFF3B691B68FB61BB695B00032202FA16
:1056680003F3DB43FA691340FB613B685B6803F0B3
:105678000302BB695B0002FA03F3FA691343FB6197
:105688003B69FA691A603B685B68012B0BD03B6881
:105698005B68022B07D03B685B68112B03D03B6823
:1056A8005B68122B45D13B68DB68002B10D03B6848
:1056B800DB68012B0CD03B68DB68022B08D03B6809
:1056C800DB68032B04D04FF48F7161481CF0CBFECC
:1056D8003B699B68FB61BB695B00032202FA03F329
:1056E800DB43FA691340FB613B68DA68BB695B001E
:1056F80002FA03F3FA691343FB613B69FA699A609A
:105708003B695B68FB610122BB6902FA03F3DB4377
:10571800FA691340FB613B685B681B0903F00102EF
:10572800BB6902FA03F3FA691343FB613B69FA693F
:105738005A603B685B68032B28D03B689B68002B4A
:105748000CD03B689B68012B08D03B689B68022BF8
:1057580004D04FF498713E481CF085FE3B69DB6825
:10576800FB61BB695B00032202FA03F3DB43FA69BE
:105778001340FB613B689A68BB695B0002FA03F35C
:10578800FA691343FB613B69FA69DA603B685B6855
:1057980003F08053002B00F0AD802E4A7B699B08F4
:1057A800183352F82330FB617B6903F00303DB00F5
:1057B8000F2202FA03F3DB43FA691340FB617B68AB
:1057C8009A0A254B13407A6902F00302D2009340EB
:1057D800FA691343FB611F497B699B081833FA690F
:1057E80041F823201B4B1B68FB61FB68DB43FA690C
:1057F8001340FB613B685B6803F480132EE000BF35
:105808000000024200000252000402420004025258
:105818000008024200080252000C0242000C025228
:1058280000100242001002520014024200140252F8
:105838000018024200180252001C0242001C0252C8
:1058480000200242002002520000024600000256D8
:1058580044C00308002002467F7F2F00002B03D09E
:10586800FA69FB681343FB612A4AFB691360294BF9
:105878005B68FB61FB68DB43FA691340FB613B68CB
:105888005B6803F40013002B03D0FA69FB68134329
:10589800FB61204AFB6953601E4BD3F88430FB61DF
:1058A800FB68DB43FA691340FB613B685B6803F400
:1058B8000033002B03D0FA69FB681343FB61154AD8
:1058C800FB69C2F88430134BD3F88030FB61FB6866
:1058D800DB43FA691340FB613B685B6803F4803380
:1058E800002B03D0FA69FB681343FB61094AFB6983
:1058F800C2F880307B6901337B613B681A687B6939
:1059080022FA03F3002B7FF482AC00BF00BF2037DC
:10591800BD4680BD0020024680B582B000AF7860E9
:105928000B467B8013467B707B88002B04D07B88DA
:105938001B0C1B04002B04D04FF4FE710D481CF007
:1059480092FD7B78002B07D07B78012B04D040F2A6
:10595800FD1108481CF087FD7B78002B03D07A885E
:105968007B689A6102E07A887B689A6200BF083790
:10597800BD4680BD44C00308F0B58FB00AAF78605B
:105988007B68002B01D1012324E17B681B68934AC3
:10599800934208D07B681B68914A934203D08921BF
:1059A80090481CF060FD7B681B68BB607B6893F8BF
:1059B800BD34DBB2002B06D17B68002283F8BC24FF
:1059C80078681CF05BFD7B68032283F8BD24BB6804
:1059D800DB6B03F48073002B02D17B6800221A6111
:1059E8007B681B6818460BF050FB7B681B683B60A4
:1059F8007E686D4606F110040FCC0FC50FCC0FC59D
:105A080094E8030085E80300331D0ECB38680BF0DB
:105A18005DFA0346002B05D07B68022283F8BD247B
:105A28000123D7E07B681B68002118460BF03EFB7A
:105A38000023FB734AE0FA7B79681346DB001344C2
:105A48009B000B443D3301221A70FA7B7968134698
:105A5800DB0013449B000B443C33FA7B1A70FA7B3F
:105A6800FB7B98B279681346DB0013449B000B4418
:105A7800443302461A80FA7B79681346DB001344E4
:105A88009B000B44403300221A70FA7B7968134656
:105A9800DB0013449B000B44483300221A60FA7B56
:105AA80079681346DB0013449B000B444C330022F7
:105AB8001A60FA7B79681346DB0013449B000B4499
:105AC800543300221A60FB7B0133FB73FA7B7B683B
