:020000040800F2
:1000000000000A20F955010849560108495601081F
:1000100049560108495601084956010800000000E8
:1000200000000000000000000000000041E900089E
:10003000495601080000000051EB00080542010884
:100040001B42010849560108495601084956010852
:1000500049560108495601084D4201084956010810
:100060004956010849560108495601082542010828
:100070003942010849560108495601084956010804
:1000800049560108495601084956010849560108D0
:1000900049560108495601084956010859420108C4
:1000A0004956010885420108495601084956010888
:1000B00049560108495601084956010849560108A0
:1000C0004956010849560108495601084956010890
:1000D0004956010849560108495601084956010880
:1000E0006542010849560108495601084956010868
:1000F0004956010849560108495601084956010860
:100100004956010849560108994201084956010813
:100110004956010849560108291A01087142010887
:10012000495601084956010849560108495601082F
:10013000495601084956010849560108495601081F
:10014000495601084956010849560108AD420108BF
:1001500049560108495601084956010849560108FF
:1001600049560108495601084956010849560108EF
:1001700049560108495601084956010849560108DF
:1001800049560108495601084956010849560108CF
:10019000495601084956010800000000000000000F
:1001A00000000000000000004956010849560108FF
:0C01B0004956010849560108495601084B
:1001C00010B5054C237833B9044B13B10448AFF391
:1001D00000800123237010BDA01200200000000049
:1001E000DC9F020808B5034B1BB103490348AFF37A
:1001F000008008BD00000000A4120020DC9F02085F
:1002000001F0FF01102A2BDB10F0070F08D010F8C7
:10021000013B013A8B422DD010F0070F42B3F6D1CB
:10022000F0B441EA012141EA014122F007047FF0E4
:1002300000070023F0E80256083C85EA010586EA3B
:10024000010685FA47F5A3FA87F586FA47F6A5FA77
:1002500087F68EB9EED1F0BC01F0FF0102F0070283
:1002600032B110F8013B013A83EA010313B1F8D12E
:100270000020704701387047002D06BF354603380F
:10028000073815F0010F07D1013015F4807F02BF48
:10029000013015F4C03F0130F0BC0138704700BF99
:1002A000034613F8012B002AFBD1181A01387047B6
:1002B00081F0004102E000BF83F0004330B54FEA17
:1002C00041044FEA430594EA050F08BF90EA020F84
:1002D0001FBF54EA000C55EA020C7FEA645C7FEA17
:1002E000655C00F0E2804FEA5454D4EB5555B8BF3A
:1002F0006D420CDD2C4480EA020281EA030382EAAB
:10030000000083EA010180EA020281EA0303362D3C
:1003100088BF30BD11F0004F4FEA01314FF4801C0F
:100320004CEA113102D0404261EB410113F0004F21
:100330004FEA03334CEA133302D0524263EB4303D8
:1003400094EA050F00F0A780A4F10104D5F1200E76
:100350000DDB02FA0EFC22FA05F2801841F10001D1
:1003600003FA0EF2801843FA05F359410EE0A5F1A5
:1003700020050EF1200E012A03FA0EFC28BF4CF0D6
:10038000020C43FA05F3C01851EBE37101F000458C
:1003900007D54FF0000EDCF1000C7EEB00006EEB99
:1003A0000101B1F5801F1BD3B1F5001F0CD3490823
:1003B0005FEA30004FEA3C0C04F101044FEA44527A
:1003C00012F5800F80F09A80BCF1004F08BF5FEA01
:1003D000500C50F1000041EB045141EA050130BDE1
:1003E0005FEA4C0C404141EB0101013C28BFB1F5F3
:1003F000801FE9D291F0000F04BF01460020B1FA3E
:1004000081F308BF2033A3F10B03B3F120020CDA10
:100410000C3208DD02F1140CC2F10C0201FA0CF0EE
:1004200021FA02F10CE002F11402D8BFC2F1200C53
:1004300001FA02F120FA0CFCDCBF41EA0C01904009
:10044000E41AA2BF01EB0451294330BD6FEA040452
:100450001F3C1CDA0C340EDC04F11404C4F120023D
:1004600020FA04F001FA02F340EA030021FA04F34F
:1004700045EA030130BDC4F10C04C4F1200220FAA6
:1004800002F001FA04F340EA0300294630BD21FAE4
:1004900004F0294630BD94F0000F83F4801306BFAA
:1004A00081F480110134013D4EE77FEA645C18BF9E
:1004B0007FEA655C29D094EA050F08BF90EA020F35
:1004C00005D054EA000C04BF1946104630BD91EA2D
:1004D000030F1EBF0021002030BD5FEA545C05D130
:1004E0004000494128BF41F0004130BD14F580046F
:1004F0003CBF01F5801130BD01F0004545F0FE41E3
:1005000041F470014FF0000030BD7FEA645C1ABF17
:10051000194610467FEA655C1CBF0B46024650EA4E
:10052000013406BF52EA033591EA030F41F400217A
:1005300030BD00BF90F0000F04BF0021704730B500
:100540004FF4806404F132044FF000054FF00001D5
:1005500050E700BF90F0000F04BF0021704730B596
:100560004FF4806404F1320410F0004548BF40426B
:100570004FF000013EE700BF42004FEAE2014FEAC0
:1005800031014FEA02701FBF12F07F4393F07F4F9B
:1005900081F06051704732F07F4208BF704793F09E
:1005A0007F4F04BF41F40021704730B54FF46074B1
:1005B00001F0004521F000411CE700BF50EA0102B4
:1005C00008BF704730B54FF000050AE050EA01025D
:1005D00008BF704730B511F0004502D5404261EBCD
:1005E00041014FF4806404F132045FEA915C3FF40E
:1005F000D8AE4FF003025FEADC0C18BF03325FEAAB
:10060000DC0C18BF033202EBDC02C2F1200300FA5B
:1006100003FC20FA02F001FA03FE40EA0E0021FA80
:1006200002F11444BDE600BF70B54FF0FF0C4CF46E
:10063000E06C1CEA11541DBF1CEA135594EA0C0F20
:1006400095EA0C0F00F0DEF82C4481EA030621EA5B
:100650004C5123EA4C5350EA013518BF52EA033596
:1006600041F4801143F4801338D0A0FB02CE4FF048
:100670000005E1FB02E506F00042E0FB03E54FF078
:100680000006E1FB03569CF0000F18BF4EF0010E70
:10069000A4F1FF04B6F5007F64F5407404D25FEA6C
:1006A0004E0E6D4146EB060642EAC62141EA55511F
:1006B0004FEAC52040EA5E504FEACE2EB4F1FD0C61
:1006C00088BFBCF5E06F1ED8BEF1004F08BF5FEADF
:1006D000500E50F1000041EB045170BD06F0004691
:1006E00046EA010140EA020081EA0301B4EB5C043E
:1006F000C2BFD4EB0C0541EA045170BD41F4801136
:100700004FF0000E013C00F3AB8014F1360FDEBF5A
:10071000002001F0004170BDC4F10004203C35DA36
:100720000C341BDC04F11404C4F1200500FA05F3B9
:1007300020FA04F001FA05F240EA020001F000425A
:1007400021F0004110EBD37021FA04F642EB0601D0
:100750005EEA430E08BF20EAD37070BDC4F10C04FA
:10076000C4F1200500FA04F320FA05F001FA04F2BE
:1007700040EA020001F0004110EBD37041F10001AA
:100780005EEA430E08BF20EAD37070BDC4F12005B5
:1007900000FA05F24EEA020E20FA04F301FA05F21D
:1007A00043EA020321FA04F001F0004121FA04F2C5
:1007B00020EA020000EBD3705EEA430E08BF20EA95
:1007C000D37070BD94F0000F0FD101F000464000CF
:1007D00041EB010111F4801F08BF013CF7D041EA51
:1007E000060195F0000F18BF704703F00046520055
:1007F00043EB030313F4801F08BF013DF7D043EA26
:100800000603704794EA0C0F0CEA135518BF95EADB
:100810000C0F0CD050EA410618BF52EA4306D1D162
:1008200081EA030101F000414FF0000070BD50EA81
:10083000410606BF1046194652EA430619D094EA0B
:100840000C0F02D150EA013613D195EA0C0F05D1F5
:1008500052EA03361CBF104619460AD181EA030149
:1008600001F0004141F0FE4141F470014FF0000001
:1008700070BD41F0FE4141F4780170BD70B54FF09C
:10088000FF0C4CF4E06C1CEA11541DBF1CEA13551C
:1008900094EA0C0F95EA0C0F00F0A7F8A4EB0504FE
:1008A00081EA030E52EA03354FEA013100F08880F5
:1008B0004FEA03334FF0805545EA131343EA1263BE
:1008C0004FEA022245EA111545EA10654FEA002673
:1008D0000EF000419D4208BF964244F1FD0404F52C
:1008E000407402D25B084FEA3202B61A65EB030588
:1008F0005B084FEA32024FF480104FF4002CB6EB45
:10090000020E75EB030E22BFB61A754640EA0C00C4
:100910005B084FEA3202B6EB020E75EB030E22BF04
:10092000B61A754640EA5C005B084FEA3202B6EB45
:10093000020E75EB030E22BFB61A754640EA9C0004
:100940005B084FEA3202B6EB020E75EB030E22BFD4
:10095000B61A754640EADC0055EA060E18D04FEA92
:10096000051545EA16754FEA06164FEAC30343EA32
:1009700052734FEAC2025FEA1C1CC0D111F4801FFF
:100980000BD141EA00014FF000004FF0004CB6E7F8
:1009900011F4801F04BF01430020B4F1FD0C88BF97
:1009A000BCF5E06F3FF6AFAEB5EB030C04BFB6EBA2
:1009B000020C5FEA500C50F1000041EB045170BD95
:1009C0000EF0004E4EEA113114EB5C04C2BFD4EBC2
:1009D0000C0541EA045170BD41F480114FF0000E46
:1009E000013C90E645EA060E8DE60CEA135594EAC2
:1009F0000C0F08BF95EA0C0F3FF43BAF94EA0C0FC5
:100A00000AD150EA01347FF434AF95EA0C0F7FF439
:100A100025AF104619462CE795EA0C0F06D152EA8D
:100A200003353FF4FDAE1046194622E750EA410671
:100A300018BF52EA43067FF4C5AE50EA41047FF482
:100A40000DAF52EA43057FF4EBAE12E74FF0FF3CE7
:100A500006E000BF4FF0010C02E000BF4FF0010CB8
:100A60004DF804CD4FEA410C7FEA6C5C4FEA430C31
:100A700018BF7FEA6C5C1BD001B050EA410C0CBF80
:100A800052EA430C91EA030F02BF90EA020F0020E2
:100A9000704710F1000F91EA030F58BF994208BF49
:100AA00090422CBFD8176FEAE37040F00100704706
:100AB0004FEA410C7FEA6C5C02D150EA013C07D15D
:100AC0004FEA430C7FEA6C5CD6D152EA033CD3D0A8
:100AD0005DF8040B704700BF8446104662468C46A2
:100AE0001946634600E000BF01B5FFF7B7FF0028D5
:100AF00048BF10F1000F01BD4DF808EDFFF7F4FFFE
:100B00000CBF012000205DF808FB00BF4DF808ED88
:100B1000FFF7EAFF34BF012000205DF808FB00BFAB
:100B20004DF808EDFFF7E0FF94BF012000205DF8CD
:100B300008FB00BF4DF808EDFFF7CEFF94BF012082
:100B400000205DF808FB00BF4DF808EDFFF7C4FF7B
:100B500034BF012000205DF808FB00BF4FEA410CC4
:100B60007FEA6C5C02D150EA013C0AD14FEA430CA7
:100B70007FEA6C5C02D152EA033C02D14FF00000E4
:100B800070474FF0010070474FEA410212F5001222
:100B900015D211D56FF47873B3EB625212D94FEAC4
:100BA000C12343F0004343EA505311F0004F23FAAE
:100BB00002F018BF404270474FF00000704750EA03
:100BC000013005D111F0004008BF6FF000407047C0
:100BD0004FF00000704700BF4A0011D212F500121A
:100BE00011D20DD56FF47873B3EB62520ED44FEA85
:100BF000C12343F0004343EA505323FA02F0704705
:100C00004FF00000704750EA013002D14FF0FF3042
:100C100070474FF0000070474FEA4102B2F1E043E5
:100C200024BFB3F5001CDCF1FE5C0DD901F0004CD3
:100C30004FEAC0024CEA5070B2F1004F40EB830023
:100C400008BF20F00100704711F0804F21D113F14F
:100C50003872BCBF01F00040704741F480114FEA88
:100C60005252C2F11802C2F1200C10FA0CF320FA11
:100C700002F018BF40F001004FEAC1234FEAD3232E
:100C800003FA0CFC40EA0C0023FA02F34FEA430398
:100C9000CCE77FEA625307D150EA01331EBF4FF021
:100CA000FE4040F44000704701F0004040F0FE403C
:100CB00040F40000704700BF53B94AB9002908BF8B
:100CC00000281CBF4FF0FF314FF0FF3000F074B927
:100CD000ADF1080C6DE904CE00F006F8DDF804E093
:100CE000DDE9022304B070472DE9F047089D044672
:100CF0008E46002B4DD18A42944669D9B2FA82F2CF
:100D000052B101FA02F3C2F1200120FA01F10CFA0A
:100D100002FC41EA030E94404FEA1C48210CBEFB42
:100D2000F8F61FFA8CF708FB16E341EA034306FBCB
:100D300007F199420AD91CEB030306F1FF3080F05A
:100D40001F81994240F21C81023E63445B1AA4B2A7
:100D5000B3FBF8F008FB103344EA034400FB07F749
:100D6000A7420AD91CEB040400F1FF3380F00A818A
:100D7000A74240F207816444023840EA0640E41B7F
:100D800000261DB1D4400023C5E900433146BDE82B
:100D9000F0878B4209D9002D00F0EF800026C5E9CD
:100DA000000130463146BDE8F087B3FA83F6002EE5
:100DB0004AD18B4202D3824200F2F980841A61EB5D
:100DC000030301209E46002DE0D0C5E9004EDDE77B
:100DD00002B9FFDEB2FA82F2002A40F09280A1EB63
:100DE0000C014FEA1C471FFA8CFE0126200CB1FBB8
:100DF000F7F307FB131140EA01410EFB03F08842B1
:100E000008D91CEB010103F1FF3802D2884200F23D
:100E1000CB804346091AA4B2B1FBF7F007FB1011CF
:100E200044EA01440EFB00FEA64508D91CEB04046D
:100E300000F1FF3102D2A64500F2BB800846A4EBC8
:100E40000E0440EA03409CE7C6F12007B34022FAB3
:100E500007FC4CEA030C20FA07F401FA06F31C43E2
:100E6000F9404FEA1C4900FA06F3B1FBF9F8200CEF
:100E70001FFA8CFE09FB181140EA014108FB0EF035
:100E8000884202FA06F20BD91CEB010108F1FF3A85
:100E900080F08880884240F28580A8F10208614491
:100EA000091AA4B2B1FBF9F009FB101144EA01419F
:100EB00000FB0EFE8E4508D91CEB010100F1FF344A
:100EC0006CD28E456AD90238614440EA0840A0FBE2
:100ED0000294A1EB0E01A142C846A64656D353D0B8
:100EE0005DB1B3EB080261EB0E0101FA07F722FADC
:100EF00006F3F1401F43C5E9007100263146BDE805
:100F0000F087C2F12003D8400CFA02FC21FA03F367
:100F1000914001434FEA1C471FFA8CFEB3FBF7F0E8
:100F200007FB10360B0C43EA064300FB0EF69E420D
:100F300004FA02F408D91CEB030300F1FF382FD2A6
:100F40009E422DD9023863449B1B89B2B3FBF7F64E
:100F500007FB163341EA034106FB0EF38B4208D927
:100F60001CEB010106F1FF3816D28B4214D9023E68
:100F70006144C91A46EA004638E72E46284605E786
:100F80000646E3E61846F8E64B45A9D2B9EB020857
:100F900064EB0C0E0138A3E74646EAE7204694E7E7
:100FA0004046D1E7D0467BE7023B614432E730461A
:100FB00009E76444023842E7704700BF90B587B044
:100FC00000AFF8607A601A460B46FB7213463B810D
:100FD000FB685C68FB6898683B89F97A7A68A04787
:100FE00078617B6918461C37BD4690BD90B587B0C7
:100FF00000AFF8607A601A460B46FB7213463B81DD
:10100000FB681C68FB6898683B89F97A7A68A04796
:1010100078617B6918461C37BD4690BD80B584B0A9
:1010200000AF78600B46FB7007F108020123102126
:101030007868FFF7C3FFF860FB68002B0FD1FB78DF
:1010400003F00303DAB23B7A62F383033B7207F1E6
:101050000802012310217868FFF7C8FFF860FB68D9
:1010600018461037BD4680BD80B584B000AF7860AB
:101070000B46FB7007F10802012310217868FFF787
:101080009DFFF860FB68002B0FD1FB7803F007038E
:10109000DAB23B7A62F347133B7207F1080201238D
:1010A00010217868FFF7A2FFF860FB681846103738
:1010B000BD4680BD80B584B000AF78600B46FB7044
:1010C00007F1080201230B217868FFF777FFF8602A
:1010D000FB68002B0FD1FB7803F00103DAB23B7AF7
:1010E00062F3C7133B7207F1080201230B217868F2
:1010F000FFF77CFFF860FB6818461037BD4680BDDF
:1011000080B584B000AF7860396001233A680F2160
:101110007868FFF753FFF860FB6818461037BD4644
:1011200080BD80B584B000AF78600B46FB7007F1DE
:101130000802012312217868FFF740FFF860FB687E
:10114000002B0FD1FB7803F00103DAB23B7A62F394
:1011500000033B7207F10802012312217868FFF7B0
:1011600045FFF860FB6818461037BD4680BD80B566
:1011700084B000AF7860396007F1080201231221C2
:101180007868FFF71BFFF8603B7AC3F30003DBB21C
:101190001A463B681A70FB6818461037BD4680BD7A
:1011A00080B586B000AF78600B46FB7007F1100287
:1011B000012310217868FFF701FF78617B69002B1C
:1011C00011D1FB78DB09DBB203F00103DAB23B7C1F
:1011D00062F341033B7407F1100201231021786888
:1011E000FFF704FF78617B69002B07D107F10C0240
:1011F000012317217868FFF7E1FE78617B69002BF6
:1012000021D1FB781B0903F00103DAB23B7B62F3C7
:1012100082033B73FB785B0903F00103DAB23B7B8B
:1012200062F304133B73FB7803F00703DAB23B7BF2
:1012300062F347133B7307F10C020123172178680F
:10124000FFF7D4FE78617B6918461837BD4680BD2C
:1012500080B584B000AF78600B46FB7007F10802E0
:10126000012313217868FFF7A9FEF860FB68002BC3
:101270000FD1FB7803F00103DAB23B7A62F3820309
:101280003B7207F10802012313217868FFF7AEFED5
:10129000F860FB6818461037BD4680BD80B586B043
:1012A00000AF7860396007F1100201230D217868E2
:1012B000FFF784FE78617B69002B07D107F10802F4
:1012C00001235E217868FFF779FE78617B69002B46
:1012D00007D107F10C02012356217868FFF76EFE53
:1012E00078613B681B78C3F30003DAB23B7C62F39E
:1012F00000033B743B681B78C3F34003DAB23B7CCA
:1013000062F382033B743B681B78C3F38003DAB259
:101310003B7C62F3C3033B743B681B78C3F3C0039D
:10132000DAB23B7C62F304133B743B681B78C3F373
:101330000013DAB23B7C62F345133B743B681B78C5
:10134000C3F34013DAB23B7C62F386133B743B6811
:101350001B78C3F38013DAB23B7A62F345133B7216
:101360003B681B78C3F3C013DAB23B685B78C3F306
:101370000003DBB21343DAB23B7A62F3C7133B726A
:101380003B685B78C3F30003DAB23B7B62F345133F
:101390003B737B69002B07D107F1100201230D215C
:1013A0007868FFF723FE78617B69002B07D107F18E
:1013B000080201235E217868FFF718FE78617B69D7
:1013C000002B07D107F10C02012356217868FFF7A3
:1013D0000DFE78617B6918461837BD4680BD80B523
:1013E00086B000AF7860396007F1100201230D214B
:1013F0007868FFF7E3FD78617B69002B07D107F17F
:10140000080201235E217868FFF7D8FD78617B69C7
:10141000002B07D107F10C02012356217868FFF752
:10142000CDFD78613B7CC3F30003D9B23A681378F1
:1014300061F3000313703B7CC3F38003D9B23A68B5
:10144000137861F3410313703B7CC3F3C003D9B23B
:101450003A68137861F3820313703B7CC3F3001383
:10146000D9B23A68137861F3C30313703B7CC3F3BA
:101470004013D9B23A68137861F3041313703B7CBC
:10148000C3F38013D9B23A68137861F3451313702C
:101490003B7AC3F34013D9B23A68137861F38613E9
:1014A00013703B7B03F02003DBB2002B0AD03A68B9
:1014B000537843F0010353703A6813786FF3C713FE
:1014C000137008E03B7AC3F3C013D9B23A681378BB
:1014D00061F3C71313707B6918461837BD4680BD8A
:1014E00080B586B000AF78600B467B8007F10C02B8
:1014F000012308217868FFF761FD78617B69002B83
:101500000AD17B88DBB23B7407F11002012307216B
:101510007868FFF76BFD78617B69002B11D17B88C0
:101520001B0A9BB203F00103DAB23B7B62F30003B8
:101530003B7307F10C02012308217868FFF756FD81
:1015400078617B6918461837BD4680BD80B584B088
:1015500000AF78600B46FB7007F1080201230921F8
:101560007868FFF72BFDF860FB68002B0FD1FB7844
:1015700003F00F03DAB23B7A62F303033B7207F125
:101580000802012309217868FFF730FDF860FB6845
:1015900018461037BD4680BD80B584B000AF786076
:1015A0000B46FB7007F1080201230A217868FFF758
:1015B00005FDF860FB68002B0FD1FB7803F00703F3
:1015C000DAB23B7A62F302033B7207F108020123AD
:1015D0000A217868FFF70AFDF860FB6818461037A3
:1015E000BD4680BD90B587B000AFF8607A601A46FE
:1015F0000B46FB7213463B81FB685C68FB6898688E
:101600003B89F97A7A68A04778617B6918461C376C
:10161000BD4690BD90B587B000AFF8607A601A46BD
:101620000B46FB7213463B81FB681C68FB6898689D
:101630003B89F97A7A68A04778617B6918461C373C
:10164000BD4690BD80B584B000AF78600B46FB709E
:1016500007F10802012310217868FFF7C3FFF86043
:10166000FB68002B0FD1FB7803F00303DAB23B7A5F
:1016700062F383033B7207F10802012310217868AB
:10168000FFF7C8FFF860FB6818461037BD4680BDFD
:1016900080B586B000AF78600B46FB70FB78FB75B9
:1016A00007F10C031946786800F0ECFD38613B69DE
:1016B000002B40F0C4803B7BC3F30003DAB23B7BDA
:1016C000C3F34003DBB21343DAB23B7BC3F38003C3
:1016D000DBB21343DAB23B7BC3F3C003DBB2134389
:1016E000DAB23B7BC3F30013DBB21343DAB23B7BCA
:1016F000C3F34013DBB21343DAB23B7BC3F3801373
:10170000DBB21343DAB23B7BC3F3C013DBB2134348
:10171000DAB27B7BC3F30003DBB21343DAB27B7B29
:10172000C3F34003DBB21343DAB27B7BC3F3800322
:10173000DBB21343DAB27B7BC3F3C003DBB21343E8
:10174000DAB27B7BC3F30013DBB21343DAB27B7BE9
:10175000C3F34013DBB21343DAB27B7BC3F38013D2
:10176000DBB21343DAB27B7BC3F3C013DBB21343A8
:10177000DBB2012B63D107F10B031946786800F047
:10178000ADFD38613B69002B59D1FB7A032B53D84F
:1017900001A252F823F000BFA9170008BB170008E8
:1017A000D917000803180008FB78002B02D1012389
:1017B000FB7545E0FB78FB7542E0FB78002B02D11E
:1017C0000223FB753CE0FB78012B02D10223FB7561
:1017D00036E0FB78FB7533E0FB78002B02D1032366
:1017E000FB752DE0FB78012B02D10323FB7527E06D
:1017F000FB78022B02D10323FB7521E0FB78FB75FC
:101800001EE0FB78002B02D10423FB7518E0FB7867
:10181000012B02D10423FB7512E0FB78022B02D1CD
:101820000423FB750CE0FB78032B02D10423FB752A
:1018300006E0FB78FB7503E0FB78FB7500E000BF7A
:101840000023BB723B69002B6DD107F10A031946D7
:10185000786800F08BFD3861BB7A012B63D107F10A
:1018600009031946786800F0ABFD38613B69002B2D
:1018700059D17B7A032B53D801A252F823F000BF31
:1018800091180008A3180008C1180008EB180008F8
:10189000FB78002B02D10123FB7545E0FB78FB753B
:1018A00042E0FB78002B02D10223FB753CE0FB7881
:1018B000012B02D10223FB7536E0FB78FB7533E088
:1018C000FB78002B02D10323FB752DE0FB78012B65
:1018D00002D10323FB7527E0FB78022B02D10323FF
:1018E000FB7521E0FB78FB751EE0FB78002B02D135
:1018F0000423FB7518E0FB78012B02D10423FB7550
:1019000012E0FB78022B02D10423FB750CE0FB787C
:10191000032B02D10423FB7506E0FB78FB7503E083
:10192000FB78FB7500E000BF3B69002B07D107F196
:101930000802012310217868FFF754FE38613B69E3
:10194000002B0FD1FB7D03F00F03DAB23B7A62F379
:1019500007133B7207F10802012310217868FFF793
:1019600059FE38613B6918461837BD4680BD00BF37
:1019700080B584B000AF78600B46FB7007F10802B9
:10198000012311217868FFF72DFEF860FB68002B1A
:101990000FD1FB7803F00F03DAB23B7A62F3030353
:1019A0003B7207F10802012311217868FFF732FE2C
:1019B000F860FB6818461037BD4680BD80B586B01C
:1019C00000AF78600B46FB70FB78FB7507F10C03EA
:1019D0001946786800F056FC38613B69002B40F0EE
:1019E000C4803B7BC3F30003DAB23B7BC3F3400309
:1019F000DBB21343DAB23B7BC3F38003DBB21343A6
:101A0000DAB23B7BC3F3C003DBB21343DAB23B7BF6
:101A1000C3F30013DBB21343DAB23B7BC3F34013CF
:101A2000DBB21343DAB23B7BC3F38013DBB2134365
:101A3000DAB23B7BC3F3C013DBB21343DAB27B7B76
:101A4000C3F30003DBB21343DAB27B7BC3F340037F
:101A5000DBB21343DAB27B7BC3F38003DBB2134305
:101A6000DAB27B7BC3F3C003DBB21343DAB27B7B16
:101A7000C3F30013DBB21343DAB27B7BC3F340132F
:101A8000DBB21343DAB27B7BC3F38013DBB21343C5
:101A9000DAB27B7BC3F3C013DBB21343DBB2012B9F
:101AA00063D107F10B031946786800F017FC386121
:101AB0003B69002B59D1FB7A032B53D801A252F872
:101AC00023F000BFD51A0008E71A0008051B00081C
:101AD0002F1B0008FB78002B02D10123FB7545E08A
:101AE000FB78FB7542E0FB78002B02D10223FB75EB
:101AF0003CE0FB78012B02D10223FB7536E0FB783A
:101B0000FB7533E0FB78002B02D10323FB752DE03E
:101B1000FB78012B02D10323FB7527E0FB78022B16
:101B200002D10323FB7521E0FB78FB751EE0FB78F7
:101B3000002B02D10423FB7518E0FB78012B02D1A6
:101B40000423FB7512E0FB78022B02D10423FB7502
:101B50000CE0FB78032B02D10423FB7506E0FB7835
:101B6000FB7503E0FB78FB7500E000BF0023BB7250
:101B70003B69002B6DD107F10A031946786800F024
:101B8000F5FB3861BB7A012B63D107F109031946D4
:101B9000786800F015FC38613B69002B59D17B7ADD
:101BA000032B53D801A252F823F000BFBD1B00083D
:101BB000CF1B0008ED1B0008171C0008FB78002B4A
:101BC00002D10123FB7545E0FB78FB7542E0FB7811
:101BD000002B02D10223FB753CE0FB78012B02D1E4
:101BE0000223FB7536E0FB78FB7533E0FB78002BB6
:101BF00002D10323FB752DE0FB78012B02D10323D7
:101C0000FB7527E0FB78022B02D10323FB7521E053
:101C1000FB78FB751EE0FB78002B02D10423FB75DB
:101C200018E0FB78012B02D10423FB7512E0FB784E
:101C3000022B02D10423FB750CE0FB78032B02D1AD
:101C40000423FB7506E0FB78FB7503E0FB78FB756E
:101C500000E000BF3B69002B07D107F10802012318
:101C600011217868FFF7BEFC38613B69002B0FD16A
:101C7000FB7D03F00F03DAB23B7A62F307133B728A
:101C800007F10802012311217868FFF7C3FC3861CE
:101C90003B6918461837BD4680BD00BF80B584B08B
:101CA00000AF78600B46FB7007F1080201230121A9
:101CB0007868FFF797FCF860FB68002B0FD1FB7882
:101CC00003F00303DAB23B7A62F387133B7207F146
:101CD0000802012301217868FFF79CFCF860FB688B
:101CE00018461037BD4680BD80B584B000AF78601F
:101CF000396001233A680F217868FFF773FCF860B8
:101D0000FB6818461037BD4680BD80B584B000AF73
:101D100078600B46FB7007F10802012312217868F6
:101D2000FFF760FCF860FB68002B0FD1FB7803F035
:101D30000103DAB23B7A62F300033B7207F1080257
:101D4000012312217868FFF765FCF860FB681846EC
:101D50001037BD4680BD80B584B000AF7860396073
:101D600007F10802012312217868FFF73BFCF860B5
:101D70003B7AC3F30003DBB21A463B681A70FB6878
:101D800018461037BD4680BD80B584B000AF78607E
:101D90000B46FB7007F10802012313217868FFF757
:101DA00021FCF860FB68002B0FD1FB7803F00103E6
:101DB000DAB23B7A62F382033B7207F10802012335
:101DC00013217868FFF726FCF860FB681846103787
:101DD000BD4680BD80B584B000AF78603960022117
:101DE0007868FFF75BFFF860FB68002B07D13B6862
:101DF0005A1D01230D217868FFF70CFCF860FB6881
:101E0000002B07D13B689A1C01230A217868FFF751
:101E100001FCF860FB68002B07D13B68DA1C01234A
:101E20000B217868FFF7F6FBF860FB68002B07D101
:101E30003B681A1D01230C217868FFF7EBFBF86063
:101E4000FB68002B04D100217868FFF727FFF860BA
:101E5000FB68002B40F0D6803B689B78C3F3C0132F
:101E6000DAB23B689B78C3F34013DBB21343DAB2B8
:101E70003B689B78C3F3C003DBB21343DAB23B6821
:101E80009B78C3F30013DBB21343DAB23B68DB7811
:101E9000C3F30003DBB21343DAB23B68DB78C3F36E
:101EA0004003DBB21343DAB23B68DB78C3F3800351
:101EB000DBB21343DAB23B68DB78C3F3C003DBB2B7
:101EC0001343DAB23B68DB78C3F30013DBB213438E
:101ED000DAB23B68DB78C3F34013DBB21343DAB208
:101EE0003B68DB78C3F38013DBB21343DAB23B68A1
:101EF000DB78C3F3C013DBB21343DAB23B681B7960
:101F0000C3F30003DBB21343DAB23B681B79C3F3BC
:101F10004003DBB21343DAB23B681B79C3F380039F
:101F2000DBB21343DAB23B681B79C3F3C003DBB205
:101F30001343DAB23B681B79C3F30013DBB21343DC
:101F4000DAB23B681B79C3F34013DBB21343DAB256
:101F50003B681B79C3F38013DBB21343DAB23B68EF
:101F60001B79C3F3C013DBB21343DAB23B685B796E
:101F7000C3F30003DBB21343DAB23B685B79C3F30C
:101F80004003DBB21343DAB23B685B79C3F38003EF
:101F9000DBB21343DAB23B685B79C3F3C003DBB255
:101FA0001343DAB23B685B79C3F30013DBB213432C
:101FB000DAB23B685B79C3F34013DBB21343DAB2A6
:101FC0003B685B79C3F38013DBB21343DAB23B683F
:101FD0005B79C3F3C013DBB21343DBB2002B05D034
:101FE0003A68537843F00203537004E03A68537838
:101FF0006FF3410353703A6801230D217868FFF7AE
:1020000009FBF860FB68002B07D13B685A1C0123D1
:102010005E217868FFF7FEFAF860FB68002B79D143
:1020200007F10802012358217868FFF7DBFAF8600E
:102030003B681B78C3F3C013DAB23B681B78C3F369
:102040008003DBB21343DAB23B681B78C3F380131F
:10205000DBB21343DAB23B681B78C3F34003DBB255
:102060001343DAB23B681B78C3F30003DBB21343BC
:10207000DAB23B681B78C3F34013DBB21343DAB226
:102080003B681B78C3F30013DBB21343DAB23B683F
:102090001B78C3F3C003DBB21343DAB23B685B784F
:1020A000C3F30003DBB21343DAB23B685B78C3F3DC
:1020B0008003DBB21343DAB23B685B78C3F3C0033F
:1020C000DBB21343DAB23B685B78C3F30013DBB2D5
:1020D0001343DAB23B685B78C3F34013DBB21343BC
:1020E000DAB23B685B78C3F38013DBB21343DAB236
:1020F0003B685B78C3F3C013DBB21343DBB2002B46
:1021000004D03B7A43F080033B7203E03B7A6FF3E9
:10211000C7133B72FB68002B07D107F108020123AC
:1021200058217868FFF776FAF860FB681846103790
:10213000BD4680BD80B586B000AF78600B467B8021
:1021400007F10C02012308217868FFF74BFA786148
:102150007B69002B11D17B881B0A9BB203F0010322
:10216000DAB23B7B62F300033B7307F10C020123FD
:1021700008217868FFF74EFA78617B69002B0AD155
:102180007B88DBB23B7407F11002012307217868DA
:10219000FFF740FA78617B6918461837BD4680BD65
:1021A00080B584B000AF78600B46FB7007F1080281
:1021B000012309217868FFF715FAF860FB68002B06
:1021C0000FD1FB7803F00F03DAB23B7A62F303031B
:1021D0003B7207F10802012309217868FFF71AFA18
:1021E000F860FB6818461037BD4680BD80B584B0E6
:1021F00000AF78600B46FB7007F10802012309214C
:102200007868FFF7EFF9F860FB68002B0FD1FB78D7
:1022100003F00F03DAB23B7A62F307133B7207F164
:102220000802012309217868FFF7F4F9F860FB68D8
:1022300018461037BD4680BD80B584B000AF7860C9
:102240000B46FB7007F1080201230A217868FFF7AB
:10225000C9F9F860FB68002B0FD1FB7803F0070386
:10226000DAB23B7A62F302033B7207F10802012300
:102270000A217868FFF7CEF9F860FB681846103736
:10228000BD4680BD80B584B000AF78603960022162
:102290007868FFF703FDF860FB68002B06D13A6809
:1022A000012346217868FFF79DF9F860FB68002B51
:1022B00007D13B685A1C012347217868FFF792F940
:1022C000F860FB68002B04D100217868FFF7E6FC7A
:1022D000F860FB6818461037BD4680BD80B584B0F5
:1022E00000AF7860396002217868FFF7D7FCF860AA
:1022F000FB68002B07D107F1080201235F217868F2
:10230000FFF770F9F860FB68002B04D100217868B2
:10231000FFF7C4FCF8603B7AC3F3C103DBB2032BC5
:102320001AD801A252F823F03923000841230008EB
:1023300049230008512300083B6800221A700FE06F
:102340003B6801221A700BE03B6802221A7007E01A
:102350003B6803221A7003E03B6800221A7000BF3A
:10236000FB6818461037BD4680BD00BF80B584B0FD
:1023700000AF7860396002217868FFF78FFCF86061
:10238000FB68002B07D107F10802012305217868BB
:10239000FFF728F9F860FB68002B0BD10021786863
:1023A000FFF77CFCF8603B7AC3F30013DBB21A46FC
:1023B0003B681A70FB6818461037BD4680BD0000A8
:1023C00080B584B000AF7860396002217868FFF78B
:1023D00065FCF860FB68002B07D107F108020123B8
:1023E00060217868FFF7FEF8F860FB68002B2AD1BF
:1023F0003B7AC3F30113DBB2032B1BD801A252F8C3
:1024000023F000BF152400081D240008252400081F
:102410002D2400083B6800221A700FE03B6801225F
:102420001A700BE03B6802221A7007E03B68032237
:102430001A7003E03B6800221A7000BF0021786820
:10244000FFF72CFCF860FB6818461037BD4680BDCE
:1024500080B582B000AF0023FB71032000F054F977
:102460000F2011F0F9FD0346002B02D00123FB7170
:1024700001E013F03FFEFB7918460837BD4680BDEA
:1024800080B400AF064B1B781A46064B1B681344FA
:10249000044A136000BFBD465DF8047B704700BF6F
:1024A00004000020BC12002080B400AF034B1B6866
:1024B0001846BD465DF8047B704700BFBC12002083
:1024C00080B584B000AF7860FFF7EEFFB8607B683E
:1024D000FB60FB68B3F1FF3F05D00A4B1B781A463F
:1024E000FB681344FB6000BFFFF7DEFF0246BB68DA
:1024F000D31AFA689A42F7D800BF00BF1037BD461A
:1025000080BD00BF0400002080B400AF054B5B68B5
:10251000044A43F00203536000BFBD465DF8047BEC
:10252000704700BF002004E080B485B000AF786041
:102530007B6803F00703FB600C4BDB68BB60BA6889
:102540004FF6FF031340BB60FB681A02BB681343DE
:1025500043F0BF6343F40033BB60044ABB68D360FD
:1025600000BF1437BD465DF8047B704700ED00E006
:1025700080B400AF044BDB681B0A03F00703184666
:10258000BD465DF8047B704700ED00E080B483B089
:1025900000AF0346FB7197F90730002B0BDBFB798B
:1025A00003F01F02074997F907305B09012000FA81
:1025B00002F241F8232000BF0C37BD465DF8047BD2
:1025C000704700BF00E100E080B483B000AF034675
:1025D000FB7197F90730002B12DBFB7903F01F0228
:1025E0000A4997F907305B09012000FA02F220330B
:1025F00041F82320BFF34F8F00BFBFF36F8F00BFA1
:1026000000BF0C37BD465DF8047B704700E100E079
:1026100080B483B000AF0346FB7197F90730002BFD
:102620000CDBFB7903F01F02074997F907305B09C0
:10263000012000FA02F2603341F8232000BF0C377A
:10264000BD465DF8047B704700E100E080B483B0D4
:1026500000AF03463960FB7197F90730002B0ADBA6
:102660003B68DAB20C4997F907301201D2B20B4439
:1026700083F800230AE03B68DAB20849FB7903F0EB
:102680000F03043B1201D2B20B441A7600BF0C3781
:10269000BD465DF8047B704700E100E000ED00E01E
:1026A00080B489B000AFF860B9607A60FB6803F06D
:1026B0000703FB61FB69C3F10703042B28BF042355
:1026C000BB61FB690433062B02D9FB69033B00E0C5
:1026D00000237B614FF0FF32BB6902FA03F3DA4358
:1026E000BB681A407B699A404FF0FF317B6901FA61
:1026F00003F3D9437B680B40134318462437BD4688
:102700005DF8047B7047000080B582B000AF786050
:102710007B68072B0FD07B68062B0CD07B68052BC2
:1027200009D07B68042B06D07B68032B03D0A6213D
:10273000044811F086FC7868FFF7F6FE00BF083702
:10274000BD4680BD00A0020880B586B000AF03463C
:10275000B9607A60FB7300237B617B680F2B03D920
:10276000BE210E4811F06DFCBB680F2B03D9BF21B1
:102770000A4811F066FCFFF7FBFE78617A68B968D9
:102780007869FFF78DFF024697F90F30114618461A
:10279000FFF75CFF00BF1837BD4680BD00A00208F0
:1027A00080B582B000AF0346FB7197F90730002B6C
:1027B00003DAD221054811F044FC97F90730184696
:1027C000FFF7E4FE00BF0837BD4680BD00A0020849
:1027D00080B582B000AF0346FB7197F90730002B3C
:1027E00003DAE221054811F02CFC97F9073018466E
:1027F000FFF7EAFE00BF0837BD4680BD00A0020813
:1028000080B582B000AF0346FB7197F90730002B0B
:1028100004DA4FF4B271064811F013FC97F907304F
:102820001846FFF7F5FE00BF0837BD4680BD00BF64
:1028300000A0020880B584B000AF78607B68002BF0
:1028400001D1012376E17B681B686B4A934244D037
:102850007B681B68694A93423FD07B681B68684A63
:1028600093423AD07B681B68664A934235D07B68B6
:102870001B68654A934230D07B681B68634A934269
:102880002BD07B681B68624A934226D07B681B680A
:10289000604A934221D07B681B685F4A93421CD0F8
:1028A0007B681B685D4A934217D07B681B685C4A53
:1028B000934212D07B681B685A4A93420DD07B68C2
:1028C0001B68594A934208D07B681B68574A934259
:1028D00003D0A521564811F0B4FB7B689B68002B00
:1028E0000CD07B689B68102B08D07B689B68B3F585
:1028F000804F03D0A6214E4811F0A3FB7B68DB6814
:10290000402B07D07B68DB68002B03D0A721484809
:1029100011F097FB7B681B69802B07D07B681B69D4
:10292000002B03D0A821424811F08BFB7B685B6928
:10293000002B0DD07B685B69B3F5807F08D07B6886
:102940005B69B3F5007F03D0A921394811F079FB09
:102950007B689B69002B0DD07B689B69B3F5806F0A
:1029600008D07B689B69B3F5006F03D0AA2130487B
:1029700011F067FB7B68DB69002B07D07B68DB69A4
:10298000202B03D0AB212A4811F05BFB7B681B6A2C
:10299000002B12D07B681B6AB3F5805F0DD07B687B
:1029A0001B6AB3F5005F08D07B681B6AB3F5405F14
:1029B00003D0AC211E4811F044FB7B685B685D2BA3
:1029C00003D9AE211A4811F03CFB7B681B681A46FC
:1029D000184B9A4236D87B681B681A46164B13442C
:1029E000164AA2FB03231B099A007B685A647B6882
:1029F000134A1A6435E000BF080002401C00024080
:102A00003000024044000240580002406C00024086
:102A100080000240080402401C04024030040240CE
:102A200044040240580402406C0402408004024006
:102A30005CA0020807040240F8FFFDBFCDCCCCCC5F
:102A4000000002407B681B681A463C4B13443C4A1A
:102A5000A2FB03231B099A007B685A647B68394AEE
:102A60001A647B68022283F825207B681B681B6838
:102A7000FB60FB6823F4FF4323F07003FB607B687B
:102A80009A687B68DB681A437B681B691A437B681A
:102A90005B691A437B689B691A437B68DB691A434D
:102AA0007B681B6A1343FA681343FB607B681B68EF
:102AB000FA681A60786800F0BFF97B689B68B3F524
:102AC000804F02D17B6800225A607B685A687B681D
:102AD0009B6CD2B21A607B68DB6C7A68126D5A60AC
:102AE0007B685B68002B10D07B685B68042B0CD87C
:102AF000786800F0DFF97B685B6D00221A607B6804
:102B00009B6D7A68D26D5A6008E07B6800225A6536
:102B10007B6800229A657B680022DA657B68002268
:102B2000DA637B68012283F825207B68002283F822
:102B30002420002318461037BD4680BDF8FBFDBF9A
:102B4000CDCCCCCC0004024080B586B000AFF8609C
:102B5000B9607A603B600023FB753B68002B03D0B3
:102B60003B68B3F5803F04D340F2DF113A4811F0DF
:102B700068FAFB6893F82430012B01D1022366E048
:102B8000FB68012283F82420FB6893F82530DBB230
:102B9000012B55D1FB68022283F82520FB68002217
:102BA000DA63FB681B681A68FB681B6822F0010285
:102BB0001A603B687A68B968F86800F0FEF8FB684C
:102BC0001B6B002B08D0FB681B681A68FB681B682E
:102BD00042F00E021A600FE0FB681B681A68FB687F
:102BE0001B6822F004021A60FB681B681A68FB6805
:102BF0001B6842F00A021A60FB689B6C1B6803F4B6
:102C00008033002B07D0FB689B6C1A68FB689B6CB9
:102C100042F480721A60FB685B6D002B07D0FB6882
:102C20005B6D1A68FB685B6D42F480721A60FB682A
:102C30001B681A68FB681B6842F001021A6005E015
:102C4000FB68002283F824200223FB75FB7D1846D5
:102C50001837BD4680BD00BF5CA0020880B584B0B7
:102C600000AF78607B681B6C1B68FB607B681B682F
:102C70001B68BB607B685B6C03F01C0304229A40FA
:102C8000FB681340002B26D0BB6803F00403002B25
:102C900021D07B681B681B6803F02003002B07D141
:102CA0007B681B681A687B681B6822F004021A6044
:102CB0007B685B6C03F01C027B681B6C042101FACF
:102CC00002F25A607B681B6B002B71D07B681B6B18
:102CD000786898476CE07B685B6C03F01C03022209
:102CE0009A40FB681340002B2ED0BB6803F0020310
:102CF000002B29D07B681B681B6803F02003002B86
:102D00000BD17B681B681A687B681B6822F00A027B
:102D10001A607B68012283F825207B685B6C03F0D6
:102D20001C027B681B6C022101FA02F25A607B686C
:102D3000002283F824207B68DB6A002B38D07B6874
:102D4000DB6A7868984733E07B685B6C03F01C03B0
:102D500008229A40FB681340002B2AD0BB6803F07E
:102D60000803002B25D07B681B681A687B681B68EA
:102D700022F00E021A607B685B6C03F01C027B6819
:102D80001B6C012101FA02F25A607B680122DA63AE
:102D90007B68012283F825207B68002283F82420A9
:102DA0007B685B6B002B04D07B685B6B7868984713
:102DB00000BF00BF1037BD4680BD80B485B000AFF6
:102DC000F860B9607A603B60FB68DB6CFA68126D92
:102DD0005A60FB685B6D002B04D0FB689B6DFA6842
:102DE000D26D5A60FB685B6C03F01C02FB681B6CC5
:102DF000012101FA02F25A60FB681B683A685A60C6
:102E0000FB689B68102B08D1FB681B687A689A6086
:102E1000FB681B68BA68DA6007E0FB681B68BA6881
:102E20009A60FB681B687A68DA6000BF1437BD4699
:102E30005DF8047B7047000080B485B000AF786017
:102E40007B681B681A46174B9A420AD87B685B6CF2
:102E50009B089B0003F1804303F502337A68936477
:102E600007E07B685B6C9B089A000F4B13447A6801
:102E700093647B681B68DBB2083B0C4AA2FB03230C
:102E80001B09FB607B680A4ADA64FB6803F01F03D6
:102E900001229A407B681A6500BF1437BD465DF871
:102EA000047B7047070402401C080240CDCCCCCC08
:102EB0008008024080B485B000AF78607B685B68B2
:102EC000DBB2FB60FA680B4B13449B001A467B682D
:102ED0005A657B68084A9A65FB68013B03F0030367
:102EE00001229A407B68DA6500BF1437BD465DF861
:102EF000047B70473F8200104009024080B400AF5D
:102F0000054B5B69044A43F00043536100231846B4
:102F1000BD465DF8047B70470020024080B400AFDE
:102F2000054B5B69044A43F0804353610023184614
:102F3000BD465DF8047B70470020024080B586B036
:102F400000AF7860396000237B617B68B3F1904FFC
:102F500023D07B683E4A93421FD07B683D4A934210
:102F60001BD07B683C4A934217D07B683B4A934214
:102F700013D07B683A4A93420FD07B68394A934218
:102F80000BD07B68384A934207D07B68374A93421C
:102F900003D0AA21364811F054F83B681B689BB255
:102FA000002B05D03B681B681B0C1B04002B03D0B7
:102FB000AB212F4811F045F83B685B68002B00F00F
:102FC0002A823B685B68012B00F025823B685B68C6
:102FD000112B00F020823B685B68022B00F01B8203
:102FE0003B685B68122B00F016823B685B68B3F5A8
:102FF000881F00F010823B685B68B3F5041F00F087
:103000000A823B685B68B3F5441F00F004823B68AA
:103010005B68B3F5901F00F0FE813B685B68B3F519
:10302000081F00F0F8813B685B68B3F5481F00F0AB
:10303000F2813B685B68032B00F0ED813B685B68C5
:103040000B2B00F0E881AC21094810F0FAFFE2E117
:103050000004004800080048000C00480010004828
:103060000014004800180048001C004800200048D8
:10307000B8A002083B681A6801217B6901FA03F3D2
:103080001340FB60FB68002B00F0C2813B685B686B
:1030900003F00303012B05D03B685B6803F00303D7
:1030A000022B44D13B68DB68002B0FD03B68DB6808
:1030B000012B0BD03B68DB68022B07D03B68DB6839
:1030C000032B03D0BB21954810F0BBFF7B689B68A6
:1030D0003B617B695B00032202FA03F3DB433A693D
:1030E00013403B613B68DA687B695B0002FA03F3DB
:1030F0003A6913433B617B683A699A607B685B6815
:103100003B6101227B6902FA03F3DB433A69134016
:103110003B613B685B681B0903F001027B6902FAB3
:1031200003F33A6913433B617B683A695A603B6831
:103130005B6803F00303032B27D03B689B68002BDD
:103140000BD03B689B68012B07D03B689B68022B28
:1031500003D0DC21714810F074FF7B68DB683B61B1
:103160007B695B00032202FA03F3DB433A691340F5
:103170003B613B689A687B695B0002FA03F33A693A
:1031800013433B617B683A69DA603B685B6803F034
:103190000303022B53D17B68B3F1904F23D07B689C
:1031A0005F4A93421FD07B685E4A93421BD07B6884
:1031B0005D4A934217D07B685C4A934213D07B6888
:1031C0005B4A93420FD07B685A4A93420BD07B688C
:1031D000594A934207D07B68584A934203D0E8216A
:1031E0004E4810F02EFF3B681B690F2B03D9E921D5
:1031F0004A4810F026FF7B69DA087B68083253F8EA
:1032000022303B617B6903F007039B000F2202FA27
:1032100003F3DB433A6913403B613B681A697B69FE
:1032200003F007039B0002FA03F33A6913433B617F
:103230007B69DA087B680832396943F822107B68B9
:103240001B683B617B695B00032202FA03F3DB43EB
:103250003A6913403B613B685B6803F003027B699A
:103260005B0002FA03F33A6913433B617B683A69F6
:103270001A603B685B6803F44033002B00F0C880A1
:103280002F4B1B6E2E4A43F0010313662C4B1B6E13
:1032900003F00103BB60BB682A4A7B699B080233C9
:1032A00052F823303B617B6903F003039B000F223C
:1032B00002FA03F3DB433A6913403B617B68B3F1E5
:1032C000904F41D07B68164A934225D07B68154ABF
:1032D00093421FD07B68144A934219D07B68134AEB
:1032E000934213D07B68124A93420DD07B68114AF7
:1032F000934207D07B68104A934201D1072324E010
:10330000082322E0062320E005231EE004231CE01E
:1033100003231AE0022318E0012316E0B8A00208F4
:103320000004004800080048000C00480010004855
:103330000014004800180048001C00480020004805
:10334000001002400000014000237A6902F00302ED
:10335000920093403A6913433B6135497B699B086E
:1033600002333A6941F82320324B9B683B61FB688A
:10337000DB433A6913403B613B685B6803F48013AD
:10338000002B03D03A69FB6813433B61294A3B6930
:103390009360284BDB683B61FB68DB433A69134071
:1033A0003B613B685B6803F40013002B03D03A6970
:1033B000FB6813433B611F4A3B69D3601D4B5B684D
:1033C0003B61FB68DB433A6913403B613B685B68E8
:1033D00003F40033002B03D03A69FB6813433B61CD
:1033E000144A3B695360134B1B683B61FB68DB432A
:1033F0003A6913403B613B685B6803F48033002B00
:1034000003D03A69FB6813433B610A4A3B69136086
:103410007B6901337B613B681A687B6922FA03F39D
:10342000002B7FF427AE00BF00BF1837BD4680BD1C
:10343000000001400004014080B582B000AF786018
:103440000B467B8013467B707B88002B04D07B88E7
:103450001B0C1B04002B04D04FF4D7710D4810F047
:10346000F0FD7B78002B07D07B78012B04D040F255
:10347000AF11084810F0E5FD7B78002B03D07A8867
:103480007B689A6102E07A887B689A6200BF08379D
:10349000BD4680BDB8A0020880B584B000AF78609A
:1034A0000B467B807B88002B04D07B881B0C1B0485
:1034B000002B04D04FF4E3710A4810F0C2FD7B6882
:1034C0005B69FB607A88FB6813401A04FB68D94388
:1034D0007B880B401A437B689A6100BF1037BD465A
:1034E00080BD00BFB8A00208F0B58FB00AAF786009
:1034F0007B68002B01D101231FE17B681B68B3F1BE
:10350000A04F03D090218F4810F09BFD7B681B6873
:10351000BB607B6893F8BD33DBB2002B06D17B68C0
:10352000002283F8BC23786811F00AF87B68032234
:1035300083F8BD23BB68DB6B03F48073002B02D1DF
:103540007B6800221A617B681B68184607F02DFC17
:103550007B681B683B607E686D4606F110040FCCEB
:103560000FC50FCC0FC594E8030085E80300331D99
:103570000ECB386807F040FB0346002B05D07B6874
:10358000022283F8BD230123D7E07B681B6800215A
:10359000184607F01BFC0023FB734AE0FA7B7968AE
:1035A0001346DB009B1A9B000B443D3301221A702B
:1035B000FA7B79681346DB009B1A9B000B443C3373
:1035C000FA7B1A70FA7BFB7B98B279681346DB00B2
:1035D0009B1A9B000B44423302461A80FA7B79689F
:1035E0001346DB009B1A9B000B443F3300221A70EA
:1035F000FA7B79681346DB009B1A9B000B4444332B
:1036000000221A60FA7B79681346DB009B1A9B0044
:103610000B44483300221A60FA7B79681346DB00BA
:103620009B1A9B000B44503300221A60FB7B013332
:10363000FB73FA7B7B685B689A42AFD30023FB7312
:1036400044E0FA7B79681346DB009B1A9B000B442D
:1036500003F2FD1300221A70FA7B79681346DB002F
:103660009B1A9B000B4403F5FE73FA7B1A70FA7BDE
:1036700079681346DB009B1A9B000B4403F2FF138F
:1036800000221A70FA7B79681346DB009B1A9B00B4
:103690000B4403F5017300221A60FA7B7968134624
:1036A000DB009B1A9B000B4403F5027300221A6097
:1036B000FA7B79681346DB009B1A9B000B4403F5E9
:1036C000047300221A60FB7B0133FB73FA7B7B6877
:1036D0005B689A42B5D37B681B683B607E686D4629
:1036E00006F110040FCC0FC50FCC0FC594E80300F2
:1036F00085E80300331D0ECB386807F0B3FB0346A3
:10370000002B05D07B68022283F8BD23012314E03F
:103710007B68002283F838207B68012283F8BD2370
:103720007B685B6A012B02D1786800F059FF7B68E7
:103730001B68184608F085FB002318461437BD4661
:10374000F0BD00BF14A1020880B584B000AF78605E
:103750007B681B68FB607B6893F8BC33012B01D14D
:1037600002231CE07B68012283F8BC237B689B6AF0
:10377000012B05D1FB689B6B43F48032FB689A6395
:103780007B681B68184607F0FFFA7B681B681846C1
:1037900008F036FB7B68002283F8BC230023184620
:1037A0001037BD4680BD90B58DB000AF78607B68A6
:1037B0001B683B623B6AFB617B681B68184608F02C
:1037C000F4FB0346002B40F084837B681B6818469B
:1037D00008F058FB0346002B00F07A837B681B68D7
:1037E000184608F04FFB034603F00203022B07D1F3
:1037F0007B681B685A697B681B6802F002025A6189
:103800007B681B68184608F03DFB034603F0100375
:10381000102B61D17B681B689A697B681B6822F05A
:1038200010029A613B6A1B6ABB61BB6903F00F021D
:103830001346DB009B1A9B0003F5FC737A68134464
:1038400004337B61BB695B0C03F00F03022B24D1B3
:10385000BA6947F6F0731340002B35D07B69D968FD
:10386000BB691B099BB2C3F30A039BB21A46386AB1
:1038700008F074F97B69DA68BB691B09C3F30A03B2
:103880001A447B69DA607B699A69BB691B09C3F3D7
:103890000A031A447B699A6116E0BB695B0C03F06A
:1038A0000F03062B10D17B6803F5717308221946AC
:1038B000386A08F053F97B699A69BB691B09C3F33D
:1038C0000A031A447B699A617B681B689A697B6862
:1038D0001B6842F010029A617B681B68184608F06A
:1038E000D1FA034603F40023B3F5002F6ED1002371
:1038F0007B627B681B68184608F0D7FAB86262E002
:10390000BB6A03F00103002B57D07B681B687A6AFF
:10391000D2B21146184608F0FCFA38613B6903F050
:103920000103002B0CD07B6A5A01FB69134403F599
:1039300030631A4601239360796A786800F076FD57
:103940003B6903F00803002B0CD07B6A5A01FB692A
:10395000134403F530631A4608239360796A786844
:1039600000F0B2FD3B6903F01003002B08D07B6A26
:103970005A01FB69134403F530631A461023936020
:103980003B6903F02003002B08D07B6A5A01FB69D6
:10399000134403F530631A46202393603B6903F414
:1039A0000053002B09D07B6A5A01FB69134403F5CD
:1039B00030631A464FF4005393607B6A01337B6295
:1039C000BB6A5B08BB62BB6A002B99D17B681B6832
:1039D000184608F057FA034603F48023B3F5802F06
:1039E00040F08C807B681B68184608F078FAB86253
:1039F00000237B627EE0BB6A03F00103002B73D0DF
:103A00007B681B687A6AD2B21146184608F09FFAA2
:103A100038613B6903F00103002B20D07B6A03F07F
:103A20000F03012202FA03F3FB60FB6903F5006355
:103A30005A6BFB68DB43F96901F5006113404B6386
:103A40007B6A5A01FB69134403F510631A4601238C
:103A500093607B6ADBB21946786810F0F8FD3B6929
:103A600003F00803002B08D07B6A5A01FB6913445A
:103A700003F510631A46082393603B6903F01003B3
:103A8000002B08D07B6A5A01FB69134403F51063CD
:103A90001A46102393603B6903F04003002B08D0C3
:103AA0007B6A5A01FB69134403F510631A464023ED
:103AB00093603B6903F00203002B0CD0796A386AEB
:103AC00007F01CFB7B6A5A01FB69134403F5106382
:103AD0001A46022393603B6903F08003002B03D056
:103AE000796A786800F01AFC7B6A01337B62BB6AF2
:103AF0005B08BB62BB6A002B7FF47DAF7B681B68F1
:103B0000184608F0BFF9034603F00043B3F1004F35
:103B100022D1FB6903F500635B68FA6902F5006274
:103B200023F0010353607B6893F8F433012B08D131
:103B30007B68002283F8F4230021786811F0A4F850
:103B400002E0786810F0F4FD7B681B685A697B68B6
:103B50001B6802F000425A617B681B68184608F037
:103B600091F9034603F40063B3F5006F12D1FB69CA
:103B700003F500639B6803F00103012B02D1786811
:103B800010F0B0FD7B681B685A697B681B6802F403
:103B900000625A617B681B68184608F073F9034697
:103BA00003F00063B3F1006F21D17B681B685A6991
:103BB0007B681B6802F000625A617B6893F8F433FB
:103BC000002B11D17B68012283F8F4237B681B68EA
:103BD0005B6D9B0803F00F027B68C3F8F82301219B
:103BE000786811F051F802E0786810F07BFD7B688E
:103BF0001B68184608F046F9034603F48053B3F5F2
:103C0000805F40F0B580FB6903F500635B68FA698B
:103C100002F5006223F0010353607B681B681021EA
:103C2000184607F06BFA0023FB6246E0FB6A5A0174
:103C3000FB69134403F510631A464FF67F33936014
:103C4000FB6A5A01FB69134403F510631B68FA6AA7
:103C50005101FA690A4402F5106223F4001313605B
:103C6000FB6A5A01FB69134403F530631A464FF6A9
:103C70007F339360FB6A5A01FB69134403F5306399
:103C80001B68FA6A5101FA690A4402F5306223F4AA
:103C900000131360FB6A5A01FB69134403F5306398
:103CA0001B68FA6A5101FA690A4402F5306243F06E
:103CB00000631360FB6A0133FB627B685B68FA6A2E
:103CC0009A42B3D3FB6903F50063DB69FA6902F535
:103CD000006243F00113D3617B681B6B002B16D08D
:103CE000FB6903F50063D3F88430FA6902F50062DA
:103CF00043F00B03C2F88430FB6903F500635B6C8F
:103D0000FA6902F5006243F00B03536415E0FB69A6
:103D100003F500635B69FA6902F5006243F400533E
:103D200043F02B035361FB6903F500631B69FA69D8
:103D300002F5006243F00B031361FB6903F50063B6
:103D40001B68FA6902F5006223F4FE6313607B6866
:103D50001A687B6803F571731946104608F056F926
:103D60007B681B685A697B681B6802F480525A6141
:103D70007B681B68184608F085F8034603F4005377
:103D8000B3F5005F24D17B681B68184608F01BF967
:103D90007B681B68184607F02AFA03461A467B68B8
:103DA000DA607B681C6801F099FE01467B68DB687D
:103DB000DBB21A46204606F04BFF786810F06FFC25
:103DC0007B681B685A697B681B6802F400525A6161
:103DD0007B681B68184608F055F8034603F0080393
:103DE000082B0AD1786810F04CFC7B681B685A6974
:103DF0007B681B6802F008025A617B681B681846E2
:103E000008F040F8034603F48013B3F5801F0FD188
:103E100000237B627B6ADBB21946786810F0C2FC33
:103E20007B681B685A697B681B6802F480125A61C0
:103E30007B681B68184608F025F8034603F4001356
:103E4000B3F5001F0FD100237B627B6ADBB21946FA
:103E5000786810F095FC7B681B685A697B681B6862
:103E600002F400125A617B681B68184608F00AF8D1
:103E7000034603F08043B3F1804F0AD1786810F015
:103E8000A3FC7B681B685A697B681B6802F0804250
:103E90005A617B681B68184607F0F4FF034603F07D
:103EA0000403042B15D17B681B685B68BB61BB698D
:103EB00003F00403002B02D0786810F093FC7B68B9
:103EC0001B6859687B681B68BA690A435A6000E03E
:103ED00000BF3437BD4690BD80B582B000AF78607A
:103EE0000B46FB707B6893F8BC33012B01D1022396
:103EF00013E07B68012283F8BC237B68FA7883F89F
:103F000038207B681B68FA781146184607F052FF84
:103F10007B68002283F8BC23002318460837BD467F
:103F200080BD80B584B000AF7860084611461A465F
:103F30000346FB700B463B801346BB700023FB72AD
:103F400097F90330002B0FDAFB7803F00F021346CA
:103F5000DB009B1A9B0038337A6813440433FB6000
:103F6000FB6801225A700FE0FB7803F00F02134642
:103F7000DB009B1A9B0003F5FC737A68134404333F
:103F8000FB60FB6800225A70FB7803F00F03DAB283
:103F9000FB681A703A88FB689A60FB68BA78DA7036
:103FA000FB685B78002B04D0FB681B789AB2FB6837
:103FB000DA80BB78022B02D1FB6800221A717B6881
:103FC00093F8BC33012B01D102230EE07B68012260
:103FD00083F8BC237B681B68F968184607F026F94C
:103FE0007B68002283F8BC23FB7A18461037BD4655
:103FF00080BD80B584B000AF78600B46FB7097F948
:104000000330002B0FDAFB7803F00F021346DB00BE
:104010009B1A9B0038337A6813440433FB60FB68B7
:1040200001225A700FE0FB7803F00F021346DB0009
:104030009B1A9B0003F5FC737A6813440433FB60FE
:10404000FB6800225A70FB7803F00F03DAB2FB68BA
:104050001A707B6893F8BC33012B01D102230EE068
:104060007B68012283F8BC237B681B68F9681846CB
:1040700007F064F97B68002283F8BC23002318460C
:104080001037BD4680BD80B586B000AFF8607A605D
:104090003B600B46FB72FB7A03F00F021346DB001A
:1040A0009B1A9B0003F5FC73FA68134404337B618D
:1040B0007B697A68DA607B693A685A617B690022B9
:1040C0009A617B6900225A70FB7A03F00F03DAB21F
:1040D0007B691A70FB7A03F00F03002B06D1FB6893
:1040E0001B687969184607F0E1FB05E0FB681B686F
:1040F0007969184607F0FEF9002318461837BD46BF
:1041000080BD80B483B000AF78600B46FB70FB7855
:1041100003F00F0279681346DB009B1A9B000B44E7
:1041200003F505731B6818460C37BD465DF8047B24
:10413000704780B586B000AFF8607A603B600B4690
:10414000FB72FB7A03F00F021346DB009B1A9B0005
:104150003833FA68134404337B617B697A68DA6028
:104160007B693A685A617B6900229A617B69012206
:104170005A70FB7A03F00F03DAB27B691A70FB7A8C
:1041800003F00F03002B06D1FB681B687969184602
:1041900007F08CFB05E0FB681B687969184607F09F
:1041A000A9F9002318461837BD4680BD80B584B0F4
:1041B00000AF78600B46FB70FB7803F00F027B6862
:1041C0005B689A4201D901234EE097F90330002B36
:1041D0000FDAFB7803F00F021346DB009B1A9B00FB
:1041E00038337A6813440433FB60FB6801225A7049
:1041F0000DE0FA781346DB009B1A9B0003F5FC7375
:104200007A6813440433FB60FB6800225A70FB6831
:1042100001229A70FB7803F00F03DAB2FB681A7080
:104220007B6893F8BC33012B01D102231CE07B682F
:10423000012283F8BC237B681B68F968184607F0E5
:10424000E5FCFB7803F00F03002B08D17B681A68AC
:104250007B6803F571731946104607F0D7FE7B683B
:10426000002283F8BC23002318461037BD4680BDCA
:1042700080B584B000AF78600B46FB70FB7803F02C
:104280000F027B685B689A4201D9012342E097F9EB
:104290000330002B0FDAFB7803F00F021346DB002C
:1042A0009B1A9B0038337A6813440433FB60FB6825
:1042B00001225A700FE0FB7803F00F021346DB0077
:1042C0009B1A9B0003F5FC737A6813440433FB606C
:1042D000FB6800225A70FB6800229A70FB7803F09A
:1042E0000F03DAB2FB681A707B6893F8BC33012BBA
:1042F00001D102230EE07B68012283F8BC237B6896
:104300001B68F968184607F0EFFC7B68002283F809
:10431000BC23002318461037BD4680BD80B588B049
:1043200000AF786039607B681B687B617B693B61AB
:104330003A681346DB009B1A9B0038337A681344B3
:104340000433FB60FB689A69FB685B699A4201D998
:10435000012367E0FB685A69FB689B69D31AFB611C
:10436000FB689B68FA699A4202D9FB689B68FB610B
:10437000FB6903339B08BB6126E0FB685A69FB6855
:104380009B69D31AFB61FB689B68FA699A4202D960
:10439000FB689B68FB61FB6903339B08BB61FB689F
:1043A000D9683B68DAB2FB699BB2786907F09CFB7D
:1043B000FB68DA68FB691A44FB68DA60FB689A6993
:1043C000FB691A44FB689A613B685A013B691344D4
:1043D00003F510639B699BB2BA699A4209D8FB68DE
:1043E0009A69FB685B699A4203D2FB685B69002BA0
:1043F000C3D1FB685A69FB689B699A4211D83B6834
:1044000003F00F03012202FA03F3BB603B6903F5DB
:1044100000635A6BBB68DB43396901F500611340E7
:104420004B63002318462037BD4680BD80B586B05B
:1044300000AF786039607B681B687B617B693B619A
:104440007B693C3304331B68FB603B685A013B6962
:10445000134403F530639B68BB60FB68194A9342C1
:1044600024D1BB6803F40043002B0AD03B685A01F7
:104470003B69134403F530631A464FF400439360DD
:104480001AE0BB6803F02003002B08D03B685A01F8
:104490003B69134403F530631A46202393603B685D
:1044A000DBB21946786810F0B7F805E03B68DBB27C
:1044B0001946786810F0B0F8002318461837BD4642
:1044C00080BD00BF0A31544F80B586B000AF786020
:1044D00039607B681B687B617B693B617B693C332E
:1044E00004331B68FB603B685A013B69134403F5C6
:1044F00030639B68BB60FB680C4A93420ED9BB6873
:1045000003F40043002B09D03B685A013B69134474
:1045100003F530631A464FF400439360786810F057
:1045200069F8002318461837BD4680BD0A30544F3D
:1045300080B485B000AF78600B46FB7013463B80BB
:104540007B681B685B6ABB60FB78002B07D13B88EC
:1045500019047B681B68BA680A439A6228E07B6882
:104560001B689B6A1B0CBA681344BB600023FB7377
:104570000DE07B681A68FB7B40339B0013445B684B
:104580001B0CBA681344BB60FB7B0133FB73FA7BE3
:10459000FB78013B9A42ECD33B8818047B6819688E
:1045A000FB78013BBA68024340339B000B445A60DE
:1045B000002318461437BD465DF8047B704780B46D
:1045C00083B000AF78600B467B807B681B687A887D
:1045D0005A62002318460C37BD465DF8047B7047CD
:1045E00080B485B000AF78607B681B68FB607B6837
:1045F0000122C3F8FC237B68002283F8F423FB68C4
:104600009B6943F00062FB689A61FB685B6D43F055
:10461000805343F00303FA685365002318461437A8
:10462000BD465DF8047B704780B400AF054B1B6846
:10463000044A43F48073136000BFBD465DF8047BF9
:10464000704700BF0070004080B582B000AF786056
:104650007B68012B30D07B68022B2DD07B68042B2C
:104660002AD07B68082B27D07B68102B24D07B684E
:10467000012B21D07B68022B1ED07B68042B1BD022
:104680007B68082B18D07B68102B15D07B68212BFA
:1046900012D07B68422B0FD07B68842B0CD07B68B8
:1046A000B3F5847F08D07B68B3F5047F04D04FF462
:1046B000CF7108480FF0C5FC074B9A687B6803F080
:1046C0001F03DB43044913408B6000BF0837BD461E
:1046D00080BD00BF70A102080070004080B582B0AC
:1046E00000AF78600B46FB707B68002B08D07B68BE
:1046F000B3F5804F04D040F2BF111C480FF0A1FC6D
:10470000FB78012B07D0FB78022B04D04FF4E0712B
:1047100016480FF096FC7B68002B0CD1144B5B699C
:1047200003F40073B3F5007F0ED100F05FF9034688
:10473000002B09D016E00E4B5B6903F40073B3F550
:10474000007F01D000F042F90A4B1B69094A23F0AF
:1047500004031361FB78012B01D130BF02E040BF9D
:1047600020BF20BF0837BD4680BD00BF70A1020832
:104770000070004000ED00E080B582B000AF7860CE
:104780000B46FB707B68002B08D07B68B3F5804F2D
:1047900004D040F20E210A480FF053FC7B68B3F5B9
:1047A000804F04D1FB78184600F08CF903E0FB78C9
:1047B000184600F053F900BF0837BD4680BD00BF62
:1047C00070A1020880B400AF0D4B1B6803F4C063F6
:1047D000B3F5806F02D14FF480630BE0084BD3F840
:1047E000803003F48073B3F5807F02D14FF40073FF
:1047F00000E000231846BD465DF8047B704700BF0B
:104800000070004080B584B000AF78607B68002BFA
:104810000BD07B68B3F5007F07D07B68B3F5806F62
:1048200003D0A7214D480FF00CFC7B68002B41D131
:104830004B4B1B6803F4C063B3F5806F31D1484B19
:10484000D3F88030464A23F48073C2F88030444B5A
:104850001B6823F4C063424A43F400731360414B66
:104860001B68322202FB03F33F4AA2FB03239B0C8B
:104870000133FB6002E0FB68013BFB60384B5B6986
:1048800003F48063B3F5806F02D1FB68002BF2D193
:10489000334B5B6903F48063B3F5806F58D1032316
:1048A00057E02F4BD3F880302D4A23F48073C2F8A1
:1048B00080304DE07B68B3F5007F41D1284B1B6809
:1048C00003F4C063B3F5806F31D1254BD3F880304A
:1048D000234A43F48073C2F88030214B1B6823F4D1
:1048E000C0631F4A43F4007313601E4B1B683222DF
:1048F00002FB03F31C4AA2FB03239B0C0133FB6066
:1049000002E0FB68013BFB60154B5B6903F48063CD
:10491000B3F5806F02D1FB68002BF2D1104B5B69BD
:1049200003F48063B3F5806F12D1032311E00C4BC5
:10493000D3F880300A4A43F48073C2F8803007E02D
:10494000074B1B6823F4C063054A43F4806313607C
:10495000002318461037BD4680BD00BFCCA1020819
:10496000007000405001002083DE1B4380B400AF84
:10497000054B5B68044A43F48063536000BFBD4647
:104980005DF8047B704700BF0070004080B400AF4A
:10499000054B5B68044A43F40073536000BFBD4697
:1049A0005DF8047B704700BF0070004080B400AF2A
:1049B000054B5B68044A23F40073536000BFBD4697
:1049C0005DF8047B704700BF0070004080B400AF0A
:1049D000054B1B68044A43F48043136000BFBD4687
:1049E0005DF8047B704700BF0070004080B483B066
:1049F00000AF174B1B68164A23F480431360154B16
:104A00001B68322202FB03F3134AA2FB03239B0C15
:104A100001337B6002E07B68013B7B600C4B5B6990
:104A200003F40073B3F5007F02D17B68002BF2D151
:104A3000074B5B6903F40073B3F5007F01D10323D7
:104A400000E0002318460C37BD465DF8047B704734
:104A5000007000405001002083DE1B4380B582B00F
:104A600000AF0346FB71FB79012B07D0FB79022BCA
:104A700004D040F2A74110480FF0E3FA0F4B1B6837
:104A80000E4A23F0070313600D4B1B690C4A43F0D9
:104A900004031361FB79012B01D130BF02E040BF59
:104AA00020BF20BF064B1B69054A23F00403136196
:104AB00000BF0837BD4680BDCCA102080070004091
:104AC00000ED00E080B582B000AF0346FB71FB79DA
:104AD000012B07D0FB79022B04D040F2DA411148B8
:104AE0000FF0AFFA104B1B6823F007030E4A43F098
:104AF000010313600D4B1B690C4A43F0040313615F
:104B0000FB79012B01D130BF02E040BF20BF20BFA5
:104B1000064B1B69054A23F00403136100BF0837E5
:104B2000BD4680BDCCA102080070004000ED00E051
:104B300080B588B000AF78607B68002B02D101237C
:104B400000F04EBD7B681B68002B0AD07B681B6899
:104B500023F03F03002B04D04FF4D0719B480FF09B
:104B600070FA9B4B9B6803F00C03BB61984BDB68AE
:104B700003F003037B617B681B6803F01003002BC9
:104B800000F03F817B689B69002B08D07B689B69A4
:104B9000012B04D040F2A9118C480FF052FA7B6827
:104BA000DB69FF2B04D94FF4D57188480FF049FA1F
:104BB0007B681B6A002B30D07B681B6A102B2CD0C3
:104BC0007B681B6A202B28D07B681B6A302B24D083
:104BD0007B681B6A402B20D07B681B6A502B1CD043
:104BE0007B681B6A602B18D07B681B6A702B14D003
:104BF0007B681B6A802B10D07B681B6A902B0CD0C3
:104C00007B681B6AA02B08D07B681B6AB02B04D082
:104C100040F2AB116D480FF014FABB69002B07D0BE
:104C2000BB690C2B40F08F807B69012B40F08B809F
:104C3000674B1B6803F00203002B06D07B689B695F
:104C4000002B02D1012300F0CBBC7B681A6A604BB9
:104C50001B6803F00803002B04D05D4B1B6803F0B6
:104C6000F00305E05A4BD3F894301B0903F0F0032E
:104C7000934224D27B681B6A184601F07BF80346F6
:104C8000002B02D0012300F0ABBC514B1B68504AF3
:104C900043F0080313604E4B1B6823F0F0027B685F
:104CA0001B6A4B4913430B60494B5B6823F47F42FB
:104CB0007B68DB691B02464913434B6026E0444B8B
:104CC0001B68434A43F008031360414B1B6823F001
:104CD000F0027B681B6A3E4913430B603C4B5B68E8
:104CE00023F47F427B68DB691B02394913434B6025
:104CF000BB69002B0AD17B681B6A184601F03AF8A1
:104D00000346002B02D0012300F06ABC00F05CFED9
:104D100002462F4B9B681B0903F00F032D49CB5C08
:104D200003F01F0322FA03F32B4A13602B4B1B687B
:104D300018460FF091F90346FB73FB7B002B5FD005
:104D4000FB7B00F04DBC7B689B69002B33D0204B74
:104D50001B681F4A43F001031360FDF7A5FB386190
:104D600009E0FDF7A1FB02463B69D31A022B02D9E9
:104D7000032300F035BC164B1B6803F00203002B25
:104D8000EFD0134B1B68124A43F008031360104B1B
:104D90001B6823F0F0027B681B6A0D4913430B600C
:104DA0000B4B5B6823F47F427B68DB691B0208497D
:104DB00013434B6025E0064B1B68054A23F00103B3
:104DC0001360FDF771FB386113E000BF28A20208F1
:104DD0000010024014C3020850010020000000200F
:104DE000FDF762FB02463B69D31A022B01D903236C
:104DF000F6E3974B1B6803F00203002BF0D100E0B1
:104E000000BF7B681B6803F00103002B7ED07B682A
:104E10005B68002B0ED07B685B68B3F5803F09D0E0
:104E20007B685B68B3F5A02F04D040F21721894856
:104E30000FF007F9BB69082B05D0BB690C2B0ED10D
:104E40007B69032B0BD1824B1B6803F40033002BCF
:104E50005BD07B685B68002B57D10123C0E37B6884
:104E60005B68B3F5803F06D1794B1B68784A43F401
:104E7000803313601DE07B685B68B3F5A02F0CD115
:104E8000734B1B68724A43F480231360704B1B689A
:104E90006F4A43F4803313600BE06D4B1B686C4A20
:104EA00023F4803313606A4B1B68694A23F4802320
:104EB00013607B685B68002B13D0FDF7F5FA38614F
:104EC00008E0FDF7F1FA02463B69D31A642B01D9D9
:104ED000032385E35E4B1B6803F40033002BF0D003
:104EE00014E0FDF7E1FA386108E0FDF7DDFA02466B
:104EF0003B69D31A642B01D9032371E3544B1B681C
:104F000003F40033002BF0D100E000BF7B681B6886
:104F100003F00203002B77D07B68DB68002B09D0FD
:104F20007B68DB68B3F5807F04D040F24A214948B2
:104F30000FF087F87B681B697F2B04D940F24B2167
:104F400044480FF07EF8BB69042B05D0BB690C2BDD
:104F500019D17B69022B16D13D4B1B6803F480638A
:104F6000002B05D07B68DB68002B01D1012337E3E0
:104F7000374B5B6823F0FE427B681B691B06344994
:104F800013434B6040E07B68DB68002B23D0304B41
:104F90001B682F4A43F480731360FDF785FA38616C
:104FA00008E0FDF781FA02463B69D31A022B01D9CA
:104FB000032315E3264B1B6803F48063002BF0D01A
:104FC000234B5B6823F0FE427B681B691B0620496C
:104FD00013434B6018E01E4B1B681D4A23F480737B
:104FE0001360FDF761FA386108E0FDF75DFA0246EB
:104FF0003B69D31A022B01D90323F1E2144B1B683E
:1050000003F48063002BF0D17B681B6803F0080376
:10501000002B4ED07B685B69002B08D07B685B69F6
:10502000012B04D040F28B210A480FF00AF87B686C
:105030005B69002B21D0064BD3F89430044A43F02F
:105040000103C2F89430FDF72FFA38610DE000BF7C
:105050000010024028A20208FDF726FA02463B692A
:10506000D31A022B01D90323BAE2934BD3F894301D
:1050700003F00203002BEFD01BE08F4BD3F89430EA
:105080008D4A23F00103C2F89430FDF70DFA386120
:1050900008E0FDF709FA02463B69D31A022B01D951
:1050A00003239DE2844BD3F8943003F00203002BDA
:1050B000EFD17B681B6803F00403002B00F0B28083
:1050C0000023FB777B689B68002B0CD07B689B6878
:1050D000012B08D07B689B68052B04D040F2DE21B1
:1050E00076480EF0AEFF744B9B6D03F08053002B9F
:1050F0000DD1714B9B6D704A43F0805393656E4B9D
:105100009B6D03F08053BB60BB680123FB776C4B46
:105110001B6803F48073002B18D1694B1B68684A25
:1051200043F480731360FDF7BFF9386108E0FDF7C1
:10513000BBF902463B69D31A022B01D903234FE284
:105140005F4B1B6803F48073002BF0D07B689B6877
:10515000012B08D1584BD3F89030574A43F0010344
:10516000C2F8903024E07B689B68052B10D1524B2D
:10517000D3F89030504A43F00403C2F890304E4BBD
:10518000D3F890304C4A43F00103C2F890300FE05E
:10519000494BD3F89030484A23F00103C2F89030CD
:1051A000454BD3F89030444A23F00403C2F89030C2
:1051B0007B689B68002B16D0FDF776F938610AE012
:1051C000FDF772F902463B69D31A41F288329342E5
:1051D00001D9032304E2384BD3F8903003F00203E3
:1051E000002BEDD015E0FDF75FF938610AE0FDF71F
:1051F0005BF902463B69D31A41F28832934201D9E6
:105200000323EDE12C4BD3F8903003F00203002B85
:10521000EDD1FB7F012B05D1274B9B6D264A23F057
:10522000805393657B681B6803F02003002B50D0EC
:105230007B685B6A002B08D07B685B6A012B04D01B
:1052400040F243311D480EF0FCFE7B685B6A002B88
:105250001CD0194BD3F89830174A43F00103C2F819
:105260009830FDF721F9386108E0FDF71DF9024695
:105270003B69D31A022B01D90323B1E10E4BD3F8BA
:10528000983003F00203002BEFD022E00A4BD3F852
:105290009830094A23F00103C2F89830FDF704F969
:1052A00038610FE0FDF700F902463B69D31A022B83
:1052B00008D9032394E100BF0010024028A202088D
:1052C00000700040964BD3F8983003F00203002B97
:1052D000E8D17B689B6A002B0CD07B689B6A012B12
:1052E00008D07B689B6A022B04D04FF45B718D4819
:1052F0000EF0A7FE7B689B6A002B00F070817B6834
:105300009B6A022B40F038817B68DB6A002B10D04F
:105310007B68DB6A012B0CD07B68DB6A022B08D030
:105320007B68DB6A032B04D04FF45D717D480EF07F
:1053300088FE7B681B6B002B03D07B681B6B102BDC
:1053400004D940F2753177480EF07BFE7B685B6BC9
:10535000072B03D97B685B6B562B04D940F276315F
:1053600070480EF06EFE7B689B6B012B03D97B6847
:105370009B6B1F2B04D94FF45E716A480EF061FEDF
:105380007B68DB6B022B10D07B68DB6B042B0CD0B3
:105390007B68DB6B062B08D07B68DB6B082B04D0AB
:1053A00040F27A315F480EF04CFE7B681B6C022B9A
:1053B00010D07B681B6C042B0CD07B681B6C062BFD
:1053C00008D07B681B6C082B04D040F27B31554819
:1053D0000EF037FE524BDB687B617B6903F0030202
:1053E0007B68DB6A9A422CD17B6903F0F0027B6810
:1053F0001B6B013B1B019A4223D17B6903F4FE42E4
:105400007B685B6B1B029A421BD17B6903F078427D
:105410007B689B6BDB069A4213D17B6903F4C00265
:105420007B68DB6B5B08013B5B059A4209D17B69BA
:1054300003F0C0627B681B6C5B08013B5B069A4211
:1054400074D0BB690C2B68D0354B1B6803F08063AC
:10545000002B05D1324B1B6803F08053002B01D089
:105460000123BDE02E4B1B682D4A23F0807313608F
:10547000FDF71AF8386108E0FDF716F802463B69B7
:10548000D31A022B01D90323AAE0254B1B6803F092
:105490000073002BF0D1224BDA68234B13407A685B
:1054A000D16A7A68126B013A120111437A68526B21
:1054B000120211437A68D26B5208013A5205114325
:1054C0007A68126C5208013A520611437A68926B5C
:1054D000D2060A4312491343CB60114B1B68104A92
:1054E00043F0807313600E4BDB680D4A43F080730A
:1054F000D360FCF7D9FF386108E0FCF7D5FF02461E
:105500003B69D31A022B01D9032369E0044B1B68C2
:1055100003F00073002BF0D061E0012360E000BFD6
:105520000010024028A202080C809D012E4B1B682F
:1055300003F00073002B52D12B4B1B682A4A43F017
:1055400080731360284BDB68274A43F08073D36075
:10555000FCF7AAFF386108E0FCF7A6FF02463B69AA
:10556000D31A022B01D903233AE01F4B1B6803F027
:105570000073002BF0D032E0BB690C2B2DD01A4BFE
:105580001B68194A23F080731360174B1B6803F0E4
:105590002053002B05D1144BDB68134A23F003037F
:1055A000D360114BDB68104A23F0887323F48033F7
:1055B000D360FCF779FF386108E0FCF775FF02461D
:1055C0003B69D31A022B01D9032309E0064B1B6860
:1055D00003F00073002BF0D101E0012300E0002371
:1055E00018462037BD4680BD0010024080B586B009
:1055F00000AF7860396000237B617B68002B01D1AC
:105600000123D1E17B681B68002B03D07B681B68FA
:105610000F2B04D940F2664175480EF012FD3B682D
:10562000002B31D03B68012B2ED03B68022B2BD0B6
:105630003B68032B28D03B68042B25D03B68052B07
:1056400022D03B68062B1FD03B68072B1CD03B6841
:10565000082B19D03B68092B16D03B680A2B13D0B6
:105660003B680B2B10D03B680C2B0DD03B680D2BEF
:105670000AD03B680E2B07D03B680F2B04D040F2BA
:1056800067415B480EF0DDFC5A4B1B6803F00F03CB
:105690003A689A4210D9574B1B6823F00F025549BC
:1056A0003B6813430B60534B1B6803F00F033A68CE
:1056B0009A4201D0012377E17B681B6803F0010364
:1056C000002B00F0A6807B685B68002B10D07B6805
:1056D0005B68012B0CD07B685B68022B08D07B6871
:1056E0005B68032B04D040F27E4141480EF0A9FCD8
:1056F0007B685B68032B33D13F4B1B6803F000735F
:10570000002B01D101234FE100F08EFB03463B4A01
:10571000934255D9384B9B6803F0F003002B0AD114
:10572000354B9B6823F0F003334A43F080039360CA
:1057300080237B6144E07B681B6803F00203002B3D
:105740003ED07B689B68002B3AD12B4B9B6823F0A3
:10575000F003294A43F08003936080237B612FE0AC
:105760007B685B68022B07D1234B1B6803F4003373
:10577000002B15D1012317E17B685B68002B07D153
:105780001D4B1B6803F00203002B09D101230BE121
:10579000194B1B6803F48063002B01D1012303E143
:1057A00000F012F90346154A934209D9124B9B683F
:1057B00023F0F003104A43F08003936080237B6161
:1057C0000D4B9B6823F003027B685B680A49134317
:1057D0008B60FCF769FE386112E0FCF765FE02465B
:1057E0003B69D31A41F28832934209D90323DBE0A3
:1057F00028A20208002002400010024000B4C404A5
:105800006B4B9B6803F00C027B685B689B009A42C1
:10581000E3D17B681B6803F00203002B32D07B6866
:105820009B68002B24D07B689B68802B20D07B68F2
:105830009B68902B1CD07B689B68A02B18D07B6842
:105840009B68B02B14D07B689B68C02B10D07B6802
:105850009B68D02B0CD07B689B68E02B08D07B68C2
:105860009B68F02B04D040F2DC4152480EF0E9FB7B
:105870004F4B9B6823F0F0027B689B684C491343B5
:105880008B6008E07B69802B05D1494B9B68484AB7
:1058900023F0F0039360484B1B6803F00F033A6852
:1058A0009A4210D2444B1B6823F00F0242493B68D6
:1058B00013430B60404B1B6803F00F033A689A4296
:1058C00001D0012370E07B681B6803F00403002B08
:1058D00025D07B68DB68002B18D07B68DB68B3F5CC
:1058E000806F13D07B68DB68B3F5A06F0ED07B6848
:1058F000DB68B3F5C06F09D07B68DB68B3F5E06F98
:1059000004D040F2FC412B480EF09BFB284B9B68D7
:1059100023F4E0627B68DB68254913438B607B6876
:105920001B6803F00803002B26D07B681B69002B43
:1059300018D07B681B69B3F5806F13D07B681B6937
:10594000B3F5A06F0ED07B681B69B3F5C06F09D0AB
:105950007B681B69B3F5E06F04D040F20351154832
:105960000EF06FFB124B9B6823F460527B681B693F
:10597000DB000F4913438B6000F026F802460C4B06
:105980009B681B0903F00F030C49CB5C03F01F035A
:1059900022FA03F30A4A13600A4B1B6818460EF0FA
:1059A0005BFB0346FB73FB7B18461837BD4680BD87
:1059B0000010024028A202080020024014C302087E
:1059C000500100200000002080B489B000AF002307
:1059D000FB610023BB613E4B9B6803F00C033B6102
:1059E0003B4BDB6803F00303FB603B69002B05D0F6
:1059F0003B690C2B21D1FB68012B1ED1344B1B685A
:105A000003F00803002B07D1314BD3F894301B0A65
:105A100003F00F03FB6105E02D4B1B681B0903F02E
:105A20000F03FB612B4AFB6952F82330FB613B6992
:105A3000002B0DD1FB69BB610AE03B69042B02D14D
:105A4000254BBB6104E03B69082B01D1224BBB61B4
:105A50003B690C2B34D11E4BDB6803F00303BB60A6
:105A6000BB68022B03D0BB68032B03D005E01A4BA5
:105A70007B6105E0184B7B6102E0FB697B6100BF45
:105A8000134BDB681B0903F00F0301337B60104BE2
:105A9000DB681B0A03F07F037A6903FB02F27B6871
:105AA000B2FBF3F37B610A4BDB685B0E03F003038D
:105AB00001335B003B607A693B68B2FBF3F3BB6187
:105AC000BB6918462437BD465DF8047B704700BFAC
:105AD000001002402CC302080024F40080B400AF80
