:020000040800F2
:1000000000000A20FDD600084DD700084DD7000893
:100010004DD700084DD700084DD70008000000005C
:10002000000000000000000000000000C19800086F
:100030004DD70008000000005199000899CC000835
:10004000ADCC00084DD700084DD700084DD70008AB
:100050004DD700084DD70008C9CC00084DD700087F
:100060004DD700084DD700084DD70008B1CC000887
:10007000BDCC00084DD700084DD700084DD700086B
:100080004DD700084DD700084DD700084DD70008C0
:100090004DD700084DD700084DD70008FDCC00080B
:1000A0004DD7000871CD00084DD700084DD7000886
:1000B0004DD700084DD700084DD700084DD7000890
:1000C0004DD700084DD700084DD700084DD7000880
:1000D0004DD700084DD700084DD700084DD7000870
:1000E00031CD00084DD700084DD700084DD7000886
:1000F0004DD700084DD700084DD700084DD7000850
:100100004DD700084DD700087DCD00084DD7000819
:100110004DD700084DD700085DB3000865CD000835
:100120004DD700084DD700084DD700084DD700081F
:100130004DD700084DD700084DD700084DD700080F
:100140004DD700084DD700084DD7000889CD0008CD
:100150004DD700084DD700084DD700084DD70008EF
:100160004DD700084DD700084DD700084DD70008DF
:100170004DD700084DD700084DD700084DD70008CF
:100180004DD700084DD700084DD700084DD70008BF
:100190004DD700084DD70008000000000000000007
:1001A00000000000000000004DD700084DD70008F7
:0C01B0004DD700084DD700084DD70008BF
:1001C00010B5054C237833B9044B13B10448AFF391
:1001D00000800123237010BDC00A00200000000031
:1001E000DCB1010808B5034B1BB103490348AFF369
:1001F000008008BD00000000C40A0020DCB1010836
:10020000034613F8012B002AFBD1181A0138704756
:1002100001F0FF01102A2BDB10F0070F08D010F8B7
:10022000013B013A8B422DD010F0070F42B3F6D1BB
:10023000F0B441EA012141EA014122F007047FF0D4
:1002400000070023F0E80256083C85EA010586EA2B
:10025000010685FA47F5A3FA87F586FA47F6A5FA67
:1002600087F68EB9EED1F0BC01F0FF0102F0070273
:1002700032B110F8013B013A83EA010313B1F8D11E
:100280000020704701387047002D06BF35460338FF
:10029000073815F0010F07D1013015F4807F02BF38
:1002A000013015F4C03F0130F0BC0138704700BF89
:1002B00081F0004102E000BF83F0004330B54FEA17
:1002C00041044FEA430594EA050F08BF90EA020F84
:1002D0001FBF54EA000C55EA020C7FEA645C7FEA17
:1002E000655C00F0E2804FEA5454D4EB5555B8BF3A
:1002F0006D420CDD2C4480EA020281EA030382EAAB
:10030000000083EA010180EA020281EA0303362D3C
:1003100088BF30BD11F0004F4FEA01314FF4801C0F
:100320004CEA113102D0404261EB410113F0004F21
:100330004FEA03334CEA133302D0524263EB4303D8
:1003400094EA050F00F0A780A4F10104D5F1200E76
:100350000DDB02FA0EFC22FA05F2801841F10001D1
:1003600003FA0EF2801843FA05F359410EE0A5F1A5
:1003700020050EF1200E012A03FA0EFC28BF4CF0D6
:10038000020C43FA05F3C01851EBE37101F000458C
:1003900007D54FF0000EDCF1000C7EEB00006EEB99
:1003A0000101B1F5801F1BD3B1F5001F0CD3490823
:1003B0005FEA30004FEA3C0C04F101044FEA44527A
:1003C00012F5800F80F09A80BCF1004F08BF5FEA01
:1003D000500C50F1000041EB045141EA050130BDE1
:1003E0005FEA4C0C404141EB0101013C28BFB1F5F3
:1003F000801FE9D291F0000F04BF01460020B1FA3E
:1004000081F308BF2033A3F10B03B3F120020CDA10
:100410000C3208DD02F1140CC2F10C0201FA0CF0EE
:1004200021FA02F10CE002F11402D8BFC2F1200C53
:1004300001FA02F120FA0CFCDCBF41EA0C01904009
:10044000E41AA2BF01EB0451294330BD6FEA040452
:100450001F3C1CDA0C340EDC04F11404C4F120023D
:1004600020FA04F001FA02F340EA030021FA04F34F
:1004700045EA030130BDC4F10C04C4F1200220FAA6
:1004800002F001FA04F340EA0300294630BD21FAE4
:1004900004F0294630BD94F0000F83F4801306BFAA
:1004A00081F480110134013D4EE77FEA645C18BF9E
:1004B0007FEA655C29D094EA050F08BF90EA020F35
:1004C00005D054EA000C04BF1946104630BD91EA2D
:1004D000030F1EBF0021002030BD5FEA545C05D130
:1004E0004000494128BF41F0004130BD14F580046F
:1004F0003CBF01F5801130BD01F0004545F0FE41E3
:1005000041F470014FF0000030BD7FEA645C1ABF17
:10051000194610467FEA655C1CBF0B46024650EA4E
:10052000013406BF52EA033591EA030F41F400217A
:1005300030BD00BF90F0000F04BF0021704730B500
:100540004FF4806404F132044FF000054FF00001D5
:1005500050E700BF90F0000F04BF0021704730B596
:100560004FF4806404F1320410F0004548BF40426B
:100570004FF000013EE700BF42004FEAE2014FEAC0
:1005800031014FEA02701FBF12F07F4393F07F4F9B
:1005900081F06051704732F07F4208BF704793F09E
:1005A0007F4F04BF41F40021704730B54FF46074B1
:1005B00001F0004521F000411CE700BF50EA0102B4
:1005C00008BF704730B54FF000050AE050EA01025D
:1005D00008BF704730B511F0004502D5404261EBCD
:1005E00041014FF4806404F132045FEA915C3FF40E
:1005F000D8AE4FF003025FEADC0C18BF03325FEAAB
:10060000DC0C18BF033202EBDC02C2F1200300FA5B
:1006100003FC20FA02F001FA03FE40EA0E0021FA80
:1006200002F11444BDE600BF70B54FF0FF0C4CF46E
:10063000E06C1CEA11541DBF1CEA135594EA0C0F20
:1006400095EA0C0F00F0DEF82C4481EA030621EA5B
:100650004C5123EA4C5350EA013518BF52EA033596
:1006600041F4801143F4801338D0A0FB02CE4FF048
:100670000005E1FB02E506F00042E0FB03E54FF078
:100680000006E1FB03569CF0000F18BF4EF0010E70
:10069000A4F1FF04B6F5007F64F5407404D25FEA6C
:1006A0004E0E6D4146EB060642EAC62141EA55511F
:1006B0004FEAC52040EA5E504FEACE2EB4F1FD0C61
:1006C00088BFBCF5E06F1ED8BEF1004F08BF5FEADF
:1006D000500E50F1000041EB045170BD06F0004691
:1006E00046EA010140EA020081EA0301B4EB5C043E
:1006F000C2BFD4EB0C0541EA045170BD41F4801136
:100700004FF0000E013C00F3AB8014F1360FDEBF5A
:10071000002001F0004170BDC4F10004203C35DA36
:100720000C341BDC04F11404C4F1200500FA05F3B9
:1007300020FA04F001FA05F240EA020001F000425A
:1007400021F0004110EBD37021FA04F642EB0601D0
:100750005EEA430E08BF20EAD37070BDC4F10C04FA
:10076000C4F1200500FA04F320FA05F001FA04F2BE
:1007700040EA020001F0004110EBD37041F10001AA
:100780005EEA430E08BF20EAD37070BDC4F12005B5
:1007900000FA05F24EEA020E20FA04F301FA05F21D
:1007A00043EA020321FA04F001F0004121FA04F2C5
:1007B00020EA020000EBD3705EEA430E08BF20EA95
:1007C000D37070BD94F0000F0FD101F000464000CF
:1007D00041EB010111F4801F08BF013CF7D041EA51
:1007E000060195F0000F18BF704703F00046520055
:1007F00043EB030313F4801F08BF013DF7D043EA26
:100800000603704794EA0C0F0CEA135518BF95EADB
:100810000C0F0CD050EA410618BF52EA4306D1D162
:1008200081EA030101F000414FF0000070BD50EA81
:10083000410606BF1046194652EA430619D094EA0B
:100840000C0F02D150EA013613D195EA0C0F05D1F5
:1008500052EA03361CBF104619460AD181EA030149
:1008600001F0004141F0FE4141F470014FF0000001
:1008700070BD41F0FE4141F4780170BD70B54FF09C
:10088000FF0C4CF4E06C1CEA11541DBF1CEA13551C
:1008900094EA0C0F95EA0C0F00F0A7F8A4EB0504FE
:1008A00081EA030E52EA03354FEA013100F08880F5
:1008B0004FEA03334FF0805545EA131343EA1263BE
:1008C0004FEA022245EA111545EA10654FEA002673
:1008D0000EF000419D4208BF964244F1FD0404F52C
:1008E000407402D25B084FEA3202B61A65EB030588
:1008F0005B084FEA32024FF480104FF4002CB6EB45
:10090000020E75EB030E22BFB61A754640EA0C00C4
:100910005B084FEA3202B6EB020E75EB030E22BF04
:10092000B61A754640EA5C005B084FEA3202B6EB45
:10093000020E75EB030E22BFB61A754640EA9C0004
:100940005B084FEA3202B6EB020E75EB030E22BFD4
:10095000B61A754640EADC0055EA060E18D04FEA92
:10096000051545EA16754FEA06164FEAC30343EA32
:1009700052734FEAC2025FEA1C1CC0D111F4801FFF
:100980000BD141EA00014FF000004FF0004CB6E7F8
:1009900011F4801F04BF01430020B4F1FD0C88BF97
:1009A000BCF5E06F3FF6AFAEB5EB030C04BFB6EBA2
:1009B000020C5FEA500C50F1000041EB045170BD95
:1009C0000EF0004E4EEA113114EB5C04C2BFD4EBC2
:1009D0000C0541EA045170BD41F480114FF0000E46
:1009E000013C90E645EA060E8DE60CEA135594EAC2
:1009F0000C0F08BF95EA0C0F3FF43BAF94EA0C0FC5
:100A00000AD150EA01347FF434AF95EA0C0F7FF439
:100A100025AF104619462CE795EA0C0F06D152EA8D
:100A200003353FF4FDAE1046194622E750EA410671
:100A300018BF52EA43067FF4C5AE50EA41047FF482
:100A40000DAF52EA43057FF4EBAE12E74FF0FF3CE7
:100A500006E000BF4FF0010C02E000BF4FF0010CB8
:100A60004DF804CD4FEA410C7FEA6C5C4FEA430C31
:100A700018BF7FEA6C5C1BD001B050EA410C0CBF80
:100A800052EA430C91EA030F02BF90EA020F0020E2
:100A9000704710F1000F91EA030F58BF994208BF49
:100AA00090422CBFD8176FEAE37040F00100704706
:100AB0004FEA410C7FEA6C5C02D150EA013C07D15D
:100AC0004FEA430C7FEA6C5CD6D152EA033CD3D0A8
:100AD0005DF8040B704700BF8446104662468C46A2
:100AE0001946634600E000BF01B5FFF7B7FF0028D5
:100AF00048BF10F1000F01BD4DF808EDFFF7F4FFFE
:100B00000CBF012000205DF808FB00BF4DF808ED88
:100B1000FFF7EAFF34BF012000205DF808FB00BFAB
:100B20004DF808EDFFF7E0FF94BF012000205DF8CD
:100B300008FB00BF4DF808EDFFF7CEFF94BF012082
:100B400000205DF808FB00BF4DF808EDFFF7C4FF7B
:100B500034BF012000205DF808FB00BF4FEA410CC4
:100B60007FEA6C5C02D150EA013C0AD14FEA430CA7
:100B70007FEA6C5C02D152EA033C02D14FF00000E4
:100B800070474FF0010070474FEA410212F5001222
:100B900015D211D56FF47873B3EB625212D94FEAC4
:100BA000C12343F0004343EA505311F0004F23FAAE
:100BB00002F018BF404270474FF00000704750EA03
:100BC000013005D111F0004008BF6FF000407047C0
:100BD0004FF00000704700BF4A0011D212F500121A
:100BE00011D20DD56FF47873B3EB62520ED44FEA85
:100BF000C12343F0004343EA505323FA02F0704705
:100C00004FF00000704750EA013002D14FF0FF3042
:100C100070474FF0000070474FEA4102B2F1E043E5
:100C200024BFB3F5001CDCF1FE5C0DD901F0004CD3
:100C30004FEAC0024CEA5070B2F1004F40EB830023
:100C400008BF20F00100704711F0804F21D113F14F
:100C50003872BCBF01F00040704741F480114FEA88
:100C60005252C2F11802C2F1200C10FA0CF320FA11
:100C700002F018BF40F001004FEAC1234FEAD3232E
:100C800003FA0CFC40EA0C0023FA02F34FEA430398
:100C9000CCE77FEA625307D150EA01331EBF4FF021
:100CA000FE4040F44000704701F0004040F0FE403C
:100CB00040F40000704700BF53B94AB9002908BF8B
:100CC00000281CBF4FF0FF314FF0FF3000F074B927
:100CD000ADF1080C6DE904CE00F006F8DDF804E093
:100CE000DDE9022304B070472DE9F047089D044672
:100CF0008E46002B4DD18A42944669D9B2FA82F2CF
:100D000052B101FA02F3C2F1200120FA01F10CFA0A
:100D100002FC41EA030E94404FEA1C48210CBEFB42
:100D2000F8F61FFA8CF708FB16E341EA034306FBCB
:100D300007F199420AD91CEB030306F1FF3080F05A
:100D40001F81994240F21C81023E63445B1AA4B2A7
:100D5000B3FBF8F008FB103344EA034400FB07F749
:100D6000A7420AD91CEB040400F1FF3380F00A818A
:100D7000A74240F207816444023840EA0640E41B7F
:100D800000261DB1D4400023C5E900433146BDE82B
:100D9000F0878B4209D9002D00F0EF800026C5E9CD
:100DA000000130463146BDE8F087B3FA83F6002EE5
:100DB0004AD18B4202D3824200F2F980841A61EB5D
:100DC000030301209E46002DE0D0C5E9004EDDE77B
:100DD00002B9FFDEB2FA82F2002A40F09280A1EB63
:100DE0000C014FEA1C471FFA8CFE0126200CB1FBB8
:100DF000F7F307FB131140EA01410EFB03F08842B1
:100E000008D91CEB010103F1FF3802D2884200F23D
:100E1000CB804346091AA4B2B1FBF7F007FB1011CF
:100E200044EA01440EFB00FEA64508D91CEB04046D
:100E300000F1FF3102D2A64500F2BB800846A4EBC8
:100E40000E0440EA03409CE7C6F12007B34022FAB3
:100E500007FC4CEA030C20FA07F401FA06F31C43E2
:100E6000F9404FEA1C4900FA06F3B1FBF9F8200CEF
:100E70001FFA8CFE09FB181140EA014108FB0EF035
:100E8000884202FA06F20BD91CEB010108F1FF3A85
:100E900080F08880884240F28580A8F10208614491
:100EA000091AA4B2B1FBF9F009FB101144EA01419F
:100EB00000FB0EFE8E4508D91CEB010100F1FF344A
:100EC0006CD28E456AD90238614440EA0840A0FBE2
:100ED0000294A1EB0E01A142C846A64656D353D0B8
:100EE0005DB1B3EB080261EB0E0101FA07F722FADC
:100EF00006F3F1401F43C5E9007100263146BDE805
:100F0000F087C2F12003D8400CFA02FC21FA03F367
:100F1000914001434FEA1C471FFA8CFEB3FBF7F0E8
:100F200007FB10360B0C43EA064300FB0EF69E420D
:100F300004FA02F408D91CEB030300F1FF382FD2A6
:100F40009E422DD9023863449B1B89B2B3FBF7F64E
:100F500007FB163341EA034106FB0EF38B4208D927
:100F60001CEB010106F1FF3816D28B4214D9023E68
:100F70006144C91A46EA004638E72E46284605E786
:100F80000646E3E61846F8E64B45A9D2B9EB020857
:100F900064EB0C0E0138A3E74646EAE7204694E7E7
:100FA0004046D1E7D0467BE7023B614432E730461A
:100FB00009E76444023842E7704700BF10B4D0E943
:100FC0000140A4465DF8044B604700BF10B40468BC
:100FD0008068A4465DF8044B604700BF70B50446C6
:100FE00082B00D4680686668012301AA1021B047CF
:100FF00058B99DF804302668A06865F383038DF81E
:10100000043001AA01231021B04702B070BD00BF17
:1010100070B5044682B00D4680686668012301AA57
:101020001021B04758B99DF804302668A06865F3D0
:1010300047138DF8043001AA01231021B04702B0F4
:1010400070BD00BF70B5044682B00D46806866680A
:10105000012301AA0B21B04758B99DF80430266836
:10106000A06865F3C7138DF8043001AA01230B2192
:10107000B04702B070BD00BF10B4D0E901400A46CD
:10108000A44601235DF8044B0F21604770B5044668
:1010900082B00D4680686668012301AA1221B0471C
:1010A00058B99DF804302668A06865F300038DF8F0
:1010B000043001AA01231221B04702B070BD00BF65
:1010C00030B583B00C46D0E90150012301AA1221AA
:1010D000A8479DF80430C3F30003237003B030BD6C
:1010E00070B5044682B00D468068666801236A4682
:1010F0001021B04750BB9DF800302668A068EA096F
:1011000062F341038DF800306A4601231021B04795
:10111000E0B9A0686668012301AA1721B047A8B901
:10112000C5F300139DF80420A068C5F340119B008F
:1011300043EA011343EA451102F00B0319438DF80A
:1011400004102568012301AA1721A84702B070BD29
:1011500070B5044682B00D4680686668012301AA16
:101160001321B04758B99DF804302668A06865F38C
:1011700082038DF8043001AA01231321B04702B085
:1011800070BD00BF70B584B0466804460D468068E7
:10119000012301AA0D21B04760B96668A068012348
:1011A00003AA5E21B04728B96668A068012302AA95
:1011B0005621B0472A7895F801C09DF808609DF83F
:1011C0000450C2F34001C2F3000343EA8103C2F3B7
:1011D000800143EAC103C2F3C00143EA01139DF851
:1011E0000C1001F05F0EC2F300110CF0010C43EA89
:1011F0004113C2F380116CF3451649014CEAD21C2D
:10120000C2F3401225F07D0541EACC1143EA821376
:1012100041EA0E012B438DF808608DF80C108DF813
:10122000043098B92568A068012301AA0D21A847B8
:1012300060B92568A068012303AA5E21A84728B9E0
:101240002568A068012302AA5621A84704B070BDF2
:1012500070B5054684B00C4680686E68012301AA0B
:101260000D21B04760B96E68A868012303AA5E210A
:10127000B04728B9D5E90160012302AA5621B04739
:101280009DF80420C2F38001C2F3000343EA410346
:10129000C2F3C00143EA8103C2F3001143EAC10370
:1012A000C2F3401143EA0113C2F380129DF80C10FF
:1012B00043EA42132278C1F3401522F07F0243EA49
:1012C000851313439DF808202370930609D563788E
:1012D000227843F001036FF3C7126370227004B0E9
:1012E00070BD2378C90961F3C713237004B070BDC2
:1012F00070B5044682B00D4680686668012301AA75
:101300000821B047A8B9A06826688DF800500123CD
:101310006A460721B04760B99DF80430A0682D0ADD
:1013200065F300038DF804302568012301AA082124
:10133000A84702B070BD00BF70B5044682B00D462C
:1013400080686668012301AA0921B04758B99DF851
:1013500004302668A06865F303038DF8043001AA01
:1013600001230921B04702B070BD00BF70B504462B
:1013700082B00D4680686668012301AA0A21B04741
:1013800058B99DF804302668A06865F302038DF80B
:10139000043001AA01230A21B04702B070BD00BF8A
:1013A00010B4D0E90140A4465DF8044B604700BF8B
:1013B00070B5044682B00D4680686668012301AAB4
:1013C0001021B04758B99DF804302668A06865F32D
:1013D00083038DF8043001AA01231021B04702B025
:1013E00070BD00BF70B5044682B00D468068666867
:1013F000012301AA1121B04758B99DF8043026688D
:10140000A06865F303038DF8043001AA01231121BC
:10141000B04702B070BD00BF70B5044682B0012372
:101420000D468068666801AA1946B04758B99DF80C
:101430000420A06865F38712012325688DF8042035
:10144000194601AAA84702B070BD00BF10B4D0E988
:1014500001400A46A44601235DF8044B0F21604772
:1014600070B5044682B00D4680686668012301AA03
:101470001221B04758B99DF804302668A06865F37A
:1014800000038DF8043001AA01231221B04702B0F5
:1014900070BD00BF30B583B00C46D0E901500123C8
:1014A00001AA1221A8479DF80430C3F3000323705A
:1014B00003B030BD70B5044682B00D4680686668E2
:1014C000012301AA1321B04758B99DF804302668BA
:1014D000A06865F382038DF8043001AA012313216B
:1014E000B04702B070BD00BF70B50D4682B002219A
:1014F0000446FFF791FF002840F0D1802668A068DD
:1015000001236A1D0D21B047002840F0C8802668DD
:10151000A0680123AA1C0A21B047002840F0BF8020
:101520002668A0680123EA1C0B21B047002840F080
:10153000B6802668A06801232A1D0C21B047002828
:1015400040F0AD8001462046FFF766FF002840F0DE
:10155000A680A9782668A068C1F34013C1F3C00231
:1015600043EAD1131343EA78C1F300110B43C2F3EA
:1015700000010B43C2F340010B43C2F380010B4354
:10158000C2F3C0010B43C2F300110B43C2F340117D
:101590000B43C2F380110B43297943EAD213C1F301
:1015A00000021343C1F340021343C1F3800213430B
:1015B000C1F3C0021343C1F300121343C1F340123D
:1015C0001343C1F3801213436A7943EAD113C2F380
:1015D00000010B43C2F340010B43C2F380010B43F4
:1015E000C2F3C0010B43C2F300110B43C2F340111D
:1015F0000B43C2F380110B43697843EAD21363F3C0
:101600004101697001232A460D21B047002846D1C7
:101610000123A0682668EA185E21B04700283ED161
:10162000012301AA5821A0686668B04729786A7822
:10163000C1F38003C1F3801543EAD1132B43C1F3F7
:1016400040052B43C1F300052B43C1F340152B4349
:10165000C1F300152B43C1F3C0010B43C2F30001DA
:101660000B43C2F380010B43C2F3C0010B43C2F32F
:1016700000110B43C2F340110B43C2F380110B4323
:1016800043EAD2139DF8042063F3C7128DF80420B7
:1016900028B92568A068012301AA5821A84702B0EB
:1016A00070BD00BF70B5044682B00D4680686668A4
:1016B000012301AA0821B047A8B99DF80430266883
:1016C000A0682A0A62F300038DF8043001AA0123FE
:1016D0000821B04738B92668A0688DF8005001236A
:1016E0006A460721B04702B070BD00BF70B504461E
:1016F00082B00D4680686668012301AA0921B047BF
:1017000058B99DF804302668A06865F303038DF886
:10171000043001AA01230921B04702B070BD00BF07
:1017200070B5044682B00D4680686668012301AA40
:101730000921B04758B99DF804302668A06865F3C0
:1017400007138DF8043001AA01230921B04702B024
:1017500070BD00BF70B5044682B00D4680686668F3
:10176000012301AA0A21B04758B99DF80430266820
:10177000A06865F302038DF8043001AA01230A2151
:10178000B04702B070BD00BF70B50D4602210446DF
:10179000FFF742FE98B9A068666801232A464621F1
:1017A000B04760B90123EA184721D4E90150A8479E
:1017B00028B901462046BDE87040FFF72DBE70BD38
:1017C00070B50D4682B002210446FFF725FE50B9E0
:1017D000A0686668012301AA5F21B04718B90146D5
:1017E0002046FFF719FE9DF80430C3F3C102022A18
:1017F000134607D0032A05D0012A03D000232B70FB
:1018000002B070BD2B7002B070BD00BF70B50D4648
:1018100082B002210446FFF7FFFD78B9A068666830
:10182000012301AA0521B04740B901462046FFF730
:10183000F3FD9DF80430C3F300132B7002B070BDAC
:1018400070B50D4682B002210446FFF7E5FDA8B948
:10185000A0686668012301AA6021B04770B99DF8AD
:101860000430C3F30112022A0AD0032A08D0012A45
:1018700006D0287000212046FFF7CEFD02B070BDD3
:101880002A70F7E770B582B00D4601A90446FFF74C
:101890007BFF002853D19DF80410C1F34002C1F32F
:1018A00000031343C1F380021343C1F3C002134387
:1018B000C1F300121343C1F340121343C1F380126A
:1018C00013439DF8052043EAD113C2F300010B43F3
:1018D000C2F340010B43C2F380010B43C2F3C001CA
:1018E0000B43C2F300110B43C2F340110B43C2F38D
:1018F00080110B4343EAD213DB0722D400238DF877
:1019000002302E460DF102012046FFF77FFF9DF8C1
:101910000230012B24D090B96568A06801236A4683
:101920001021A84758B99DF800302568A06866F3D3
:1019300007138DF800306A4601231021A84702B032
:1019400070BD0DF101012046FFF73AFF0028F6D1E6
:101950009DF80130032BD1D8DFE803F01F182711C1
:101960000DF103012046FFF76BFF0028E7D19DF83A
:101970000330032B34D8DFE803F02E29241F032D76
:10198000BCD800238DF802300426BBE7012DB5D862
:1019900000238DF802300226B4E70023012D2E46E5
:1019A0008DF8023038BF0126ACE7022DA6D80023FF
:1019B0008DF802300326A5E7042D38BF04252E46F6
:1019C000AAE7032D38BF03252E46A5E7022D38BF11
:1019D00002252E46A0E7012D38BF01252E469BE7A4
:1019E0002E4699E770B582B00D4601A90446FFF76F
:1019F000CBFE002853D19DF80410C1F34002C1F37F
:101A000000031343C1F380021343C1F3C002134325
:101A1000C1F300121343C1F340121343C1F3801208
:101A200013439DF8052043EAD113C2F300010B4391
:101A3000C2F340010B43C2F380010B43C2F3C00168
:101A40000B43C2F300110B43C2F340110B43C2F32B
:101A500080110B4343EAD213DB0722D400238DF815
:101A600002302E460DF102012046FFF7CFFE9DF811
:101A70000230012B24D090B96568A06801236A4622
:101A80001121A84758B99DF800302568A06866F371
:101A900007138DF800306A4601231121A84702B0D0
:101AA00070BD0DF101012046FFF78AFE0028F6D136
:101AB0009DF80130032BD1D8DFE803F01F18271160
:101AC0000DF103012046FFF7BBFE0028E7D19DF88A
:101AD0000330032B34D8DFE803F02E29241F032D15
:101AE000BCD800238DF802300426BBE7012DB5D801
:101AF00000238DF802300226B4E70023012D2E4684
:101B00008DF8023038BF0126ACE7022DA6D800239D
:101B10008DF802300326A5E7042D38BF04252E4694
:101B2000AAE7032D38BF03252E46A5E7022D38BFAF
:101B300002252E46A0E7012D38BF01252E469BE742
:101B40002E4699E710B5032000F038F80F200BF06F
:101B500043F810B10124204610BD04460CF0D0F922
:101B6000204610BD034A044B11681B780B441360D8
:101B7000704700BFDC0A002000000020014B1868FD
:101B8000704700BFDC0A002038B50446FFF7F6FFB7
:101B9000631C054602D0044B1B781C44FFF7EEFF84
:101BA000431BA342FAD338BD00000020024A536809
:101BB00043F0020353607047002004E0C31E042B6F
:101BC00010B504460ED80A4A2302D4684FF6FF0126
:101BD00003F4E0630C40234343F0BF6343F400335A
:101BE000D36010BD0348A6210AF0EAFFEBE700BF6F
:101BF00000ED00E014B201080F2A70B51646054644
:101C00000C4637D80F2C30D81D4BDB68C3F30223AA
:101C1000C3F10700042803F1040228BF0420062AA8
:101C200018D9033B4FF0FF329A4026EA02064FF0E4
:101C3000FF31814024EA01049C40002D44EA06045F
:101C40000BDB05F16045240105F56145E4B285F83B
:101C5000004370BD00263346E9E70A4B05F00F0547
:101C600024012B44E4B21C7670BD0748BF210AF062
:101C7000A7FFC9E70448BE210AF0A2FFC2E700BFE0
:101C800000ED00E0FCEC00E014B20108002809DBE4
:101C9000064A4109012300F01F0003FA00F042F850
:101CA000210070470248D2210AF08ABF00E100E01B
:101CB00014B2010800280EDB430909490122203330
:101CC00000F01F0002FA00F041F82300BFF34F8F2D
:101CD000BFF36F8F70470348E2210AF071BF00BF66
:101CE00000E100E014B2010800280ADB43090749BB
:101CF00000F01F000122603302FA00F041F82300D7
:101D0000704703484FF4B2710AF05ABF00E100E097
:101D100014B20108114A0368934210B417D8426CF8
:101D200022F0030202F1804202F502320C490D4C0E
:101D3000DBB2083BA1FB0313C3F30413012101FA37
:101D400003F3C0E9122403655DF8044B7047416C4E
:101D5000054A21F003010A44E8E700BF07040240F6
:101D6000CDCCCCCC800802401C080240002800F0FA
:101D7000FF8038B57F4A0368934204462BD0143263
:101D8000934228D01432934225D01432934222D069
:101D9000143293421FD0143293421CD01432934217
:101DA00019D002F56272934215D01432934212D0C8
:101DB000143293420FD0143293420CD01432934217
:101DC00009D01432934206D01432934203D06A48A9
:101DD000A5210AF0F5FEA36833F0100240F08380DD
:101DE000E36833F0400340F08B80236933F08003D5
:101DF00040F08F80636933F4807203D0B3F5007FC5
:101E000040F0A280A36933F4806203D0B3F5006F81
:101E100040F0A480E36933F0200303D05648AB219F
:101E20000AF0CEFE236A33F4405340F088806368A2
:101E30005D2B7FD82168514B994249D9504B514A6B
:101E40000B44A2FB03231B094F4A9B00C4E9102348
:101E5000D4E9023220691343034360690343A06954
:101E6000022284F825200343E0690A680343206ABC
:101E700022F4FF4222F07002034313430B6020461A
:101E8000FFF748FFA368B3F5804F47D06368A56CA0
:101E9000D4E91320D9B2013B032B2960506044D808
:101EA0003A4B3B484A1E0B4402F0030101228A4090
:101EB0003849E2659B00C4E915310021196042648C
:101EC00000200123E06384F8240084F8253038BD25
:101ED000314B2C4A0B44A2FB03231B092F4A9B00C6
:101EE000C4E91023B4E7B3F5804F3FF479AF22483B
:101EF000A6210AF065FEE36833F040033FF475AFB6
:101F00001D48A7210AF05CFE236933F080033FF4EB
:101F100071AF1948A8210AF053FE6BE7D4E9120209
:101F2000216D00236360036051600023C4E9153311
:101F3000E365C5E71048AE210AF042FE7AE70E4895
:101F4000AC210AF03DFE72E70B48A9210AF038FEE9
:101F5000A36933F480623FF45DAF57E70648AA21D6
:101F60000AF02EFEE36933F020033FF45BAF55E740
:101F7000012070470800024070B2010807040240C7
:101F8000F8FBFDBFCDCCCCCC000402403F8200105A
:101F90000009024040090240F8FFFDBF0000024076
:101FA000F8B503F1FF3C1D464FF6FE739C45044611
:101FB0000F4616460FD894F82430012B14D0012375
:101FC00084F8243094F82530012B0FD0002384F8B6
:101FD00024300220F8BD274840F2DF110AF0F0FD5E
:101FE00094F82430012BEAD10220F8BD022384F8B2
:101FF00025300023E3632368E16C1A6822F00102B4
:102000001A60D4E91402486012B1D4E9161048608D
:10201000616C206C01F01C0C012101FA0CF1416093
:10202000A1685D601029216B0BBF9E609F60DF601F
:10203000DE60B1B1196841F00E011960A16C086849
:10204000C00303D5086840F4807008601AB11168B5
:1020500041F4807111601A6842F0010200201A6098
:10206000F8BD196821F004011960196841F00A01EE
:102070001960E3E770B2010870B4436C066C056840
:1020800031682C6803F01C0304229A400A420ED0E7
:1020900014F0040F0BD02B689B0603D42B6823F09D
:1020A00004032B60036B7260CBB170BC1847022233
:1020B0009A400A4215D014F0020F12D02B689906EC
:1020C00006D42B6823F00A032B60012380F8253007
:1020D000C36A7260002180F82410002BE5D170BC27
:1020E000704708229A400A42F9D02207F7D52A6899
:1020F000416B22F00E022A60012202FA03F300244F
:102100007360C26380F8244080F825200029E6D05F
:1021100070BC0847034A536943F0004300205361F1
:10212000704700BF00200240034A536943F08043D8
:1021300000205361704700BF002002402DE9F04F9E
:10214000B0F1904F85B00646884622D0BA4B9842EF
:102150001FD003F5806398421BD003F5806398423B
:1021600017D003F58063984213D003F5806398423B
:102170000FD003F5806398420BD003F5806398423B
:1021800007D003F58063984203D0AC48AA210AF037
:1021900017FDD8F800108BB223B10B0C1B04002BD9
:1021A00000F02E81A548AB210AF00AFDD8F80430D2
:1021B000012B0BD9122B00F22B81A14A22FA03F337
:1021C000DB0703D49D48AC210AF0FAFCD8F80010D4
:1021D000002900F0DC80DFF884B2DFF8849200246C
:1021E0000125A54015EA010300F0CC80D8F80400D1
:1021F00000F003014F1E012F40F2CC804FEA440A49
:10220000032707FA0AF7FF4303294ED0D8F80850EE
:10221000022D00F2DD80F26805FA0AF502EA070CE9
:1022200045EA0C050229F5603FD1B6F1904F23D065
:10223000814A964220D083498E421DD001F58061AB
:102240008E4219D001F580618E4215D001F5806172
:102250008E4211D001F580618E420DD001F5806172
:102260008E4209D001F580618E4205D073480193FA
:10227000E8210AF0A5FC019BD8F810000F2800F215
:10228000F780E50806EB850504F007012A6A890056
:102290004FF00F0E88400EFA01F122EA01010143CE
:1022A000D8F80400296200F00301356801FA0AF148
:1022B0002F40394310F4403F316061D0DBF860506B
:1022C00045F00105CBF86050DBF8605024F00301C5
:1022D00001F1804105F0010501F58031039504F01D
:1022E000030C039D8F684FEA8C0C0F2505FA0CF543
:1022F000B6F1904F27EA050520D04F4A964200F0EC
:10230000C080504FBE4200F0C2804F4FBE4200F02E
:10231000A9804E4FBE4200F0C6804D4FBE4200F035
:10232000C8804C4FBE4200F0B8804B4FBE420CBF3D
:102330000727082707FA0CFC45EA0C058D60D9F839
:102340000810DD43C70254BF29401943C9F80810DB
:10235000D9F80C10820254BF29401943C9F80C1057
:10236000D9F80410870354BF29401943C9F8041051
:10237000D9F80010C20354BF29401943C9F800100E
:10238000D8F80010013431FA04F37FF429AF05B016
:10239000BDE8F08FD8F80C20032A24D8B7684FEA9C
:1023A000440A4FF0030E0EFA0AFE02FA0AFC27EA6C
:1023B0000E074CEA0707B760726822EA050CC0F303
:1023C0000015A54045EA0C056FEA0E0775601BE78E
:1023D0001A480193DC210AF0F3FBD8E90105019BBF
:1023E00000F0030117E715480193BB210AF0E8FB51
:1023F000D8F80400D8F80C20019B00F00301CDE7C9
:10240000D8F80430012B7FF6E6AE122B7FF6D5AE5E
:1024100023F40012B2F5881F3FF4D8AEB3F5041FC1
:102420003FF4D4AEB2F5901F3FF4D0AEB3F5081F21
:102430003FF4CCAEC6E600BF00040048CCB20108B1
:102440000C08060000080048000C00480010004876
:102450000014004800180048001C0048001002400A
:1024600000040140032707FA0CFC45EA0C0565E768
:1024700013480193E9210AF0A3FBD8F81000019B4F
:10248000FFE6012707FA0CFC45EA0C0556E7022790
:1024900007FA0CFC45EA0C0550E7062707FA0CFC86
:1024A00045EA0C054AE7042707FA0CFC45EA0C0547
:1024B00044E7052707FA0CFC45EA0C053EE700BF98
:1024C000CCB2010870B5064615460C4659B1012D2F
:1024D00002D835B9B46270BD064840F2AF110AF0B7
:1024E0006FFBB46170BD03484FF4D7710AF068FB0D
:1024F000EDE700BFCCB2010838B505460C4641B146
:10250000696904EA010324EA010444EA0344AC6172
:1025100038BD03484FF4E3710AF052FBF0E700BF07
:10252000CCB20108F0B58BB0002800F091800468AF
:10253000B4F1A04F054604D0494890210AF040FB71
:102540002C6895F8BD3303F0FF02002B79D02046AC
:10255000032385F8BD33E36B2E4613F4807308BF65
:102560002B6104F0C5FE56F810EBB446BCE80F0032
:102570006C460FC4BCE80F000FC49CE8030084E85D
:1025800003002F1D97E80E00704604F0E9FD044695
:1025900030B101240223204685F8BD330BB0F0BDD5
:1025A0000146286804F0ACFE686858B322464FF034
:1025B000010E2146C2EBC20305EB830302F1010CBD
:1025C00083F83C20A3F842205FFA8CF28242C3E9F0
:1025D000111183F83DE083F83F101965EAD300221A
:1025E000C4EBC40305EB8303611C83F8FC41CCB24C
:1025F0008442C3E9812283F8FD2183F8FF21C3F8D7
:102600001022EDD30FCE6C460FC40FCE0FC496E848
:10261000030084E8030097E80E00286804F0F6FE43
:1026200004460028B5D16B6A85F838000122934230
:1026300085F8BD2310D0286805F07AFA20460BB043
:10264000F0BD284685F8BC230AF034FC28687FE7F3
:10265000012420460BB0F0BD284600F04FFCEAE70D
:1026600028B3010810B590F8BC33012B044600686C
:1026700012D0A36A0122934284F8BC2303D1836B56
:1026800043F48033836304F02BFE206805F040FAA6
:10269000002084F8BC0310BD022010BD2DE9F04FCE
:1026A000066885B00446304605F080FA10B105B0E2
:1026B000BDE8F08F0546206805F04AFA0028F6D0FC
:1026C000206805F045FA10F0020F20681EBF43692C
:1026D00003F00203436105F03BFA10F0100F20688D
:1026E00012D0836923F010038361376AC7F3434331
:1026F000022B07F00F0800F05882062B00F09D8196
:10270000836943F01003836105F022FA10F4002F6F
:10271000206840F0BA8005F01BFA10F4802F206882
:1027200075D105F015FA00285DDB206805F010FA78
:1027300000054DD4206805F00BFA020114D522687B
:10274000536903F00063536194F8F433002B40F0B5
:102750005E81012184F8F413536DC3F38303C4F83D
:10276000F83320460AF01AFD206805F0F1F9C30499
:1027700000F10281206805F0EBF910F4005F206899
:1027800040F0E38005F0E4F9070700F1D580206808
:1027900005F0DEF9C60200F1C580206805F0D8F921
:1027A000850200F1B580206805F0D2F9400000F103
:1027B000A680206805F0CCF941077FF578AF236843
:1027C0005D686A0700F112825A682A435A606EE710
:1027D000D6F80838D90700F105822068436903F468
:1027E00000634361A7E7D6F8042822F00102C6F887
:1027F000042894F8F433012B00F0188120460AF0E5
:10280000E1FB2068436903F0004343618EE705F074
:10281000ABF981462068B9F1000F82D0CDE901659E
:10282000A04606F5106A4FF0000B009409E05FEA3D
:1028300059090BF1010B08F11C080AF1200A00F0FC
:10284000118119F0010FF2D05FFA8BF4214605F0E7
:102850009DF9C107054600F111812A0744BF0823ED
:10286000CAF80830EB0644BF1023CAF808306F06D8
:1028700044BF4023CAF80830AE0700F1F7802D06A8
:10288000009B00F139811868D1E705F065F907462A
:102890002068002F3FF43FAF06F530684FF0000985
:1028A0004FF4005A019506E07F0809F1010908F18B
:1028B000200800F0D580FD07F6D55FFA89F1009178
:1028C00005F05AF983461BF0010F2068009940F08B
:1028D000FF801BF0080F40F0E4801BF0100F1CBFBE
:1028E0001023C8F808301BF0200F1CBF2023C8F8A5
:1028F00008301BF4005F18BFC8F808A0D4E72046D2
:102900000AF088FB2068436903F08043436151E784
:10291000204600210AF076FB2068436903F4001387
:10292000436141E7204600210AF070FB20684369BB
:1029300003F48013436131E720460AF019FB206855
:10294000436903F00803436122E705F033F9206887
:1029500004F012FEE060256801F0BCFA227B01461B
:10296000284604F043FC20460AF006FB2068436931
:1029700003F40053436105E7D6F80438206823F0D8
:1029800001031021C6F8043804F0F2FC606806F573
:102990000067D8B106F510634FF67F3199601A6869
:1029A00022F400121A60C3F80812D3F8002222F4AD
:1029B0000012C3F80022D3F80022013542F0006271
:1029C0008542C3F8002203F12003E7D1FB69226BA3
:1029D00043F00113FB61F2B97B6943F4005343F008
:1029E0002B037B613B6943F00B033B61D6F8003856
:1029F000206823F4FE63C6F8003804F5717105F011
:102A0000EBF82068436903F480534361B3E6204642
:102A10000AF0C0FAA8E6D7F8843043F00B03C7F8F1
:102A200084307B6C43F00B037B64DFE7002184F888
:102A3000F41320460AF0B2FBE3E6082204F57171B4
:102A40003046C8EBC80804F0D3FF04EB8802C7F394
:102A50000A13D2F8141220680B44C2F814324FE65D
:102A6000019D58E6DDE90165009C5AE6019859464A
:102A700004F07EFC0223CAF8083000E7019A012026
:102A8000D2F834380BF00F0100FA01F123EA010308
:102A9000C2F834382146CAF8080000980AF05EFAF5
:102AA000DBE60823C8F80830026C00EB49135648EF
:102AB000D3F8081B824203F5306304D9080444BFED
:102AC0004FF400429A6020460AF038FA206804E782
:102AD0000123C8F80830026C4C4D00F5306303EB5D
:102AE0004913AA42D3F808C05AD11CF4004F52D05F
:102AF0004FF400429A60ECE61E68D8E91453AB42EA
:102B000030463FF694AE06F51067D8F844100396A9
:102B100007EB4B17A5EB030C6145D7F818E028BF6E
:102B200061461FFA8EFE0331BEEB910F1ED267E0A5
:102B3000D8F84430D8F848109D4228BF1D46ABB2A3
:102B40002246304604F044FFD8F84830BA692B4496
:102B5000C8F84830D8F8543092B22B440335B2EB61
:102B6000950FC8F8543046D3D8F85050AB42A5EB77
:102B70000305DDD3009B1E68039B0BF00F0203F5DA
:102B800000610124D3F8343804FA02F223EA020384
:102B900030464B634BE61CF0200F1CBF20229A608E
:102BA00020460AF0D1F9206893E647F6F0731F42F9
:102BB0003FF4A6ADC8EBC80804EB8808C7F30A12B7
:102BC000D8F808123046174604F012FFD8F8082249
:102BD00020683A44C8F80822D8F814223A44C8F8C1
:102BE00014228DE520460AF0D5F9F6E520460AF0D4
:102BF00015FA2368E8E5009AD8F850501668304670
:102C0000AB42FFF414AEB7E70A30544F0A31544FC9
:102C100090F8BC23012A0DD010B5044601220068AB
:102C200084F8BC2384F8381004F062FF002084F894
:102C3000BC0310BD0220704710B501F00F0E09064D
:102C4000044627D44FF01C0C0CFB0E0C0CF5FE7147
:102C5000CEEBCE0C00EB8C0C00208CF8FD018A60D2
:102C60004A7881F800E0CB700AB1A1F806E0022BA7
:102C700004BF00230B7194F8BC33012B18D001233F
:102C800084F8BC33206804F081FC002384F8BC3352
:102C9000184610BD1C2000FB0E4000F13C01CEEB9D
:102CA000CE0004EB80004FF0010C80F83DC0D6E769
:102CB000022010BD01F00F03C3EBC30211F0800F1F
:102CC0004FF01C0110B500EB8202044601FB03012A
:102CD00013D101F5FE71002082F8FD010B7094F80C
:102CE000BC33012B12D00123206884F8BC3304F0DC
:102CF00099FC002084F8BC0310BD3C31012082F80F
:102D00003D000B7094F8BC33012BECD1022010BDB8
:102D100010B501F00F04C4EBC40C00EB8C0C1C21AB
:102D200001FB0401CCF8103200230068CCF8082223
:102D300001F5FE71CCF814328CF8FD318CF8FC41B1
:102D40001CB904F0B5FD002010BD04F0CDFC00203E
:102D500010BD00BF01F00F01C1EBC10100EB81010B
:102D6000D1F81402704700BF10B501F00F04C4EB96
:102D7000C40C00EB8C0C1C21CCF85030002301FB60
:102D80000401CCF8543001230068CCF848203C31D1
:102D90008CF83D308CF83C401CB904F089FD0020D3
:102DA00010BD04F0A1FC002010BD00BF38B5436881
:102DB00001F00F059D4233D80B0604461CD4C1EB2D
:102DC000C1031C2202FB010100EB830301F5FE712C
:102DD000002283F8FD2101238B700D7094F8BC2331
:102DE0009A421BD0206884F8BC3304F027FECDB192
:102DF000002084F8BC0338BDC5EBC5031C2101FBD2
:102E0000050100EB830301223C3183F83D200123BF
:102E10008B700D7094F8BC239A42E3D1022038BD28
:102E2000012038BD206804F5717104F0D5FEDFE79C
:102E3000426838B501F00F0393422ED8C3EBC302AA
:102E400011F0800F4FF01C01044600EB820201FBE1
:102E5000030115D101F5FE710020002582F8FD0166
:102E60008D700B7094F8BC33012B14D001232068B3
:102E700084F8BC3304F010FE84F8BC53284638BDF7
:102E80003C310120002582F83D008D700B7094F8D4
:102E9000BC33012BEAD1022038BD012038BD00BF70
:102EA00010B40468606A31B940EA0240A0620020B0
:102EB0005DF8044B7047A36AB1F1010C00EB1340BD
:102EC0000BD0002303F1400104EB81010133496879
:102ED000DBB2634500EB1140F4D30CF1400C04EB82
:102EE0008C0C40EA0240CCF804005DF8044B002052
:102EF000704700BF036800205962704702680021D4
:102F000010B480F8F4139369012443F00063C0F80F
:102F1000FC439361536D5DF8044B43F0805343F0E1
:102F20000303084653657047024A136843F48073ED
:102F30001360704700700040431E012B10B504461B
:102F400014D920F08003042B10D020F48073082BB8
:102F50000CD020F40073102B08D0212806D0422872
:102F600004D006484FF4CF7109F02AFE044B98684C
:102F700004F01F0420EA04049C6010BD84B301081F
:102F80000070004010B50C46C8B1B0F5804F22D19A
:102F9000631E012B04D91A484FF4E07109F010FEAA
:102FA000184B5B699B0528D5174A1369012C23F040
:102FB000040313611FD040BF20BF20BF10BD4B1EB4
:102FC000012B0ED80F4B5B699A05EDD500F0EEF89A
:102FD0000028E9D0F2E70A4840F2BF1109F0F0FDFD
:102FE000D6E707484FF4E07109F0EAFD054B5B694D
:102FF0009A05D9D5EAE730BF10BD00F0CFF8D3E786
:1030000084B301080070004000ED00E010B50C46EC
:1030100060B1B0F5804F04D1BDE81040084600F023
:103020001DB9054840F20E2109F0CAFD2046BDE851
:10303000104000F0E3B800BF84B30108074B1868E4
:1030400000F4C060B0F5806F06D0D3F8800010F4B3
:10305000807018BF4FF40070704700BF00700040D0
:1030600010B570B1B0F5007F41D0B0F5806F4DD193
:103070003A4A136823F4C06343F48063002013606A
:1030800010BD364A136803F4C063B3F5806F06D0F1
:10309000D2F8803023F48073C2F8803010BDD2F8AB
:1030A00080302F4C2F4823F48073C2F88030116891
:1030B00021F4C06141F4007111602368322101FBE9
:1030C00003F35169A0FB03039B0C480503F10103C3
:1030D00006D500E023B15169490503F1FF33F9D466
:1030E0001E4B5B695C0554BF0020032010BD1B4ACA
:1030F000136803F4C063B3F5806F0CD0D2F880304E
:1031000043F480730020C2F8803010BD1648A72118
:1031100009F056FDACE7D2F88030114C114843F469
:103120008073C2F88030116821F4C06141F40071ED
:1031300011602368322101FB03F35169A0FB0303F3
:103140009B0C480503F10103CAD501E0002BC7D051
:103150005169490503F1FF33C2D5F7E7007000401C
:103160005001002083DE1B43E0B30108024A53688C
:1031700043F480635360704700700040024A536814
:1031800043F400735360704700700040024A536874
:1031900023F400735360704700700040024A1368C4
:1031A00043F4804313607047007000401049114B96
:1031B0000A68114822F480420A601B68322202FB2E
:1031C00003F34A69A0FB03039B0C900503F1010381
:1031D00006D500E023B14A69920503F1FF33F9D423
:1031E000034B5B6913F4007F14BF0320002070477A
:1031F000007000405001002083DE1B4308B5431ED1
:10320000012B0DD81249134A0B6823F007030B60FA
:103210001369012843F00403136110D130BF11E09A
:1032200040F2A7410C4809F0CBFC0949094A0B6858
:1032300023F007030B60136943F00403136140BFDD
:1032400020BF20BF034A136923F00403136108BDA4
:103250000070004000ED00E0E0B3010808B5431E37
:10326000012B0FD81449154A0B6823F0070343F0CC
:1032700001030B601369012843F00403136112D1A9
:1032800030BF13E040F2DA410D4809F099FC0A49D9
:103290000A4A0B6823F0070343F001030B6013692C
:1032A00043F00403136140BF20BF20BF034A1369EA
:1032B00023F00403136108BD0070004000ED00E03E
:1032C000E0B3010830B51E4DAB6DDB0083B00446A2
:1032D00019D5FFF7B3FEB0F5007F26D07F2C2BD891
:1032E000A4F17000B0FA80F04009164A136823F088
:1032F0000F0303431360136803F00F03181A18BF7A
:10330000012003B030BDAB6D43F08053AB65AB6DB6
:1033100003F080530193019BFFF790FEAB6DB0F576
:10332000007F23F08053AB65D8D1802C06D9A02C28
:103330008CBF02200120D8E70220D6E70020D4E786
:103340000010024000200240244A9368D26813F023
:103350000C0308D00C2B38D0042B21483BD0082B71
:1033600018BF002070471D4A1168090754BFD2F8E2
:10337000942012681B4954BFC2F30322C2F3031204
:1033800051F8220003B30C2B26D110B4134C144A6D
:10339000E368E16803F00303023B012B98BF10468A
:1033A000E268E3685DF8044BC3F34163C2F30622AD
:1033B000C1F30311013302FB00F001315B00B0FBEC
:1033C000F1F0B0FBF3F07047704702F00302012AFE
:1033D000C9D00020D9E77047002070470010024094
:1033E0000024F400CCC30108002800F0AA822DE9D3
:1033F000F043036883B00446002B00F0BD8033F037
:103400003F0240F020829F4A9568D668D80605F0B2
:103410000C0506F0030647D5A369012B04D99A4889
:1034200040F2A91109F0CCFBE369FF2B00F21282F4
:10343000236A33F0300308D0402B06D0802B04D011
:10344000914840F2AB1109F0BBFB002D00F05C810C
:103450000C2D00F05681A3698A4F002B00F0DF810C
:103460003B6843F001033B60FEF788FB804606E0C3
:10347000FEF784FBA0EB0800022800F2E0813B6825
:103480009B07F5D53B6843F008033B603B68226A25
:1034900023F0F00313433B607B68E26923F47F432E
:1034A00043EA02237B602368D90731D5636833F48C
:1034B000803203D0B3F5A02F40F06282082D00F0D7
:1034C00068810C2D00F062816368B3F5803F00F0E5
:1034D000C781B3F5A02F00F06B826A4F3A6822F4DF
:1034E00080323A603A6822F480223A60002B40F041
:1034F000BC81FEF743FB804606E0FEF73FFBA0EBF6
:103500000800642800F29B813B689803F5D4236887
:10351000990736D5E36833F4807304D05A4840F2F3
:103520004A2109F04DFB23697F2B00F26B81042DAA
:1035300000F057810C2D00F05181E368514E002BB3
:1035400000F0A581336843F480733360FEF716FB07
:10355000074605E0FEF712FBC01B022800F26F8150
:1035600033685B05F6D57368226923F0FE4343EAAE
:1035700002637360236804E0424A9568D26805F0EC
:103580000C0519071CD56369012B00F220813D4E03
:10359000002B00F00881D6F8943043F00103C6F800
:1035A0009430FEF7EBFA074605E0FEF7E7FAC01B9A
:1035B000022800F24481D6F894309A07F5D52368A2
:1035C0005E0745D5A368012B02D9052B40F0DE81AB
:1035D0002C4B9A6DD00000F158819A6D42F08052C8
:1035E0009A659B6D03F080530193019B0126274F41
:1035F0003B68D90540F1B281A368012B00F05981E5
:10360000052B00F0E2811F4FD7F8902022F0010235
:10361000C7F89020D7F8902022F00402C7F8902035
:10362000002B40F04D81FEF7A9FA41F2883980461F
:1036300006E0FEF7A3FAA0EB0800484500F2FF8081
:10364000D7F890309807F4D4002E40F0A581236875
:10365000990627D5636A012B05D90B4840F24331FF
:1036600009F0AEFA636A074E002B00F05681D6F8D7
:10367000983043F00103C6F89830FEF77FFA07460A
:103680000CE000BF001002403CB401080070004094
:10369000FEF774FAC01B022800F2D180D6F89830E9
:1036A0009A07F5D5A36A022B00F2B2802BB3022B46
:1036B00000F099810C2D65D0A34B1A6822F080721E
:1036C0001A601A6812F0205F03D1DA6822F0030250
:1036D000DA609D4CE36823F0887323F48033E36061
:1036E000FEF74CFA054605E0FEF748FA401B0228B3
:1036F00000F2A58023689B01F6D4002003B0BDE84A
:10370000F083012E7FF4A7AE8F4B1B68990736D448
:103710008D4B206A1A68120756BFD3F894301B6885
:103720001B0903F0F003984200F2DF80864B1A6811
:1037300042F008021A601A6822F0F00202431A608E
:103740005A68E16922F47F4242EA01225A60002D60
:1037500000F02881FFF7F8FD7B4B7C4A9B68C3F3A0
:103760000313D35C7A4A03F01F0320FA03F31068B3
:10377000784A136009F030FA28B9236894E6A369FF
:10378000002BC5D1012003B0BDE8F083032E7FF4E8
:103790009BAE6D4B1B689A037FF5B9AE6368002B37
:1037A0007FF4B5AEEEE7D6F8943023F00103C6F807
:1037B0009430FEF7E3F9074604E0FEF7DFF9C01B9B
:1037C00002283CD8D6F894309B07F6D4F7E6624836
:1037D00040F28B2109F0F4F96369D8E6022E7FF4F8
:1037E000ACAE594B1B685A0502D5E368002BC9D013
:1037F000554A2169536823F0FE4343EA016353604D
:103800002368BEE6544840F24B2109F0D9F98EE610
:1038100051484FF45B7109F0D3F9A36A46E73B685E
:1038200023F001033B60FEF7A9F980463B68980747
:10383000A3D5FEF7A3F9A0EB08000228F6D90320D0
:1038400003B0BDE8F08344484FF4D07109F0B8F9F3
:103850002368D8E540484FF4D57109F0B1F9E7E5A0
:10386000394A136843F480331360FEF787F9DFF8B1
:10387000D880074604E0FEF781F9C01B6428DED833
:10388000D8F800309B03F6D541E60026AFE6336852
:1038900023F480733360FEF771F9074604E0FEF706
:1038A0006DF9C01B0228CAD833685805F7D42368BD
:1038B00067E6254AD2F8903043F00103C2F8903011
:1038C000FEF75CF9DFF88080074641F2883904E0B2
:1038D000FEF754F9C01B4845B1D8D8F890309B0783
:1038E000F6D5002E3FF4B3AE56E0FFF7EBFC002810
:1038F0007FF448AF144B1A6842F008021A601A6845
:10390000216A22F0F0020A431A605A68E16922F43F
:103910007F4242EA01225A601CE7D6F8983023F031
:103920000103C6F89830FEF729F9074604E0FEF7D0
:1039300025F9C01B022882D8D6F898309B07F6D408
:10394000B0E60120704700BF00100240B4C3010878
:1039500004000020500100203CB401083B6843F4FF
:1039600080733B60FEF70AF980463B68DA053FF555
:1039700043AEFEF703F9A0EB08000228F5D95EE795
:10398000864840F2172109F01BF997E5834840F279
:10399000DE2109F015F91BE6814A936D23F080536F
:1039A000936554E6FFF78EFC00283FF4D3AEE9E6BA
:1039B00003F18043A3F53C331A6842F480221A6075
:1039C0001A6842F480321A604FE7754BD3F89020A2
:1039D00042F00402C3F89020D3F8902042F0010294
:1039E000C3F890206CE7E36A032B00F2D180236BCD
:1039F000013B0F2B00F2C680636B083B4E2B00F29D
:103A0000BB80A36B023B1D2B00F2B080E36B082B45
:103A100068D9624840F27A3109F0D2F8236C082B59
:103A200059D95E4840F27B3109F0CAF85C4EE26A2F
:103A3000F36803F0030191425BD00C2D3FF4A2AE7A
:103A4000574D2B685A013FF59DAE2B68DB003FF5C3
:103A500099AE2B6823F080732B60FEF78FF8064633
:103A600005E0FEF78BF8801B02283FF6E8AE2B68D6
:103A70009F01F6D4E9684B4BE26A206B484E0B403D
:103A80001343D4E90D1243EA012343EAC263D4E9A4
:103A90000F120138490843EA00130139520843EA7A
:103AA0004153013A43EA4263EB602B6843F0807371
:103AB0002B60EB6843F08073EB60FEF75FF8044621
:103AC00005E0FEF75BF8001B02283FF6B8AE33684E
:103AD0009801F6D511E64FF4AA7222FA03F3D9073A
:103AE000A4D49EE74FF4AA7222FA03F3D80795D420
:103AF0008FE7216B03F0F0020139B2EB011F9CD17B
:103B0000616B03F4FE42B2EB012F96D1A16B03F07F
:103B10007842B2EBC16F90D1E26B520803F4C0015E
:103B2000013AB1EB425F88D1226C520803F0C063C6
:103B3000013AB3EB426F80D1336899013FF5DDADB7
:103B4000336843F080733360F36843F08073F3604D
:103B5000FEF714F8044605E0FEF710F8001B0228F3
:103B60003FF66DAE33689A01F6D5C6E50B484FF4C3
:103B70005E7109F025F849E7084840F2763109F00E
:103B80001FF83EE7054840F2753109F019F833E7B0
:103B900002484FF45D7109F013F828E73CB40108BE
:103BA000001002400C809D01002800F024812DE9C6
:103BB000F8430368013B0E2B0D46044600F2F080EB
:103BC0000F2D00F2DD80954A136803F00F03AB421E
:103BD000C0F0C7802368DF0752D56368032B00F26B
:103BE0000181032B00F0E880022B00F0DF80002B26
:103BF00040F00E8103F1804303F504331B689E07F8
:103C00003BD5FFF7A1FB864B984200F2F680636834
:103C10004FF00009834EB26822F003021343B360F1
:103C2000FDF7ACFF41F28838074605E0FDF7A6FF37
:103C3000C01B404500F2DD80B368626803F00C03EE
:103C4000B3EB820FF2D1236899071BD4B9F1800F2F
:103C500003D1B36823F0F003B360704A136803F034
:103C60000F03AB4232D9136823F00F032B431360C9
:103C7000136803F00F03AB4228D00120BDE8F8839E
:103C80009E07EAD5A26832F0800313D022F0200309
:103C9000902B0FD022F04003A02B0BD022F010036A
:103CA000C02B07D0F02A05D05F4840F2DC4108F075
:103CB00087FFA2685B498B6823F0F0031343574AE0
:103CC0008B60136803F00F03AB42CCD823685A070C
:103CD00018D5E16831F480620ED021F40072B2F59B
:103CE000A06F09D0B1F5C06F06D040F2FC414E483C
:103CF00008F066FFE16823684A48826822F4E062BF
:103D00000A4382601B0718D5226932F480630DD004
:103D100022F40073B3F5A06F08D0B2F5C06F05D0E0
:103D2000414840F2035108F04BFF22693D498B683E
:103D300023F4605343EAC2038B60FFF705FB394A63
:103D40003A4C92683A49C2F303120346A25C3948DE
:103D500002F01F02D3400B600068BDE8F84308F092
:103D60003BBF136823F00F032B431360136803F06A
:103D70000F03AB4281D12368DF073FF52EAF7FE70A
:103D8000294840F2674108F01BFF244B1A68196864
:103D900021F00F010D431D601B680120BDE8F88371
:103DA000214840F2664108F00BFF09E71D4B1B68F4
:103DB0009F033FF526AF60E71A4A116888017FF537
:103DC0005CAFD16801F00301012935D0D16801F061
:103DD00003010239012973D9D168D168D2684FF043
:103DE000000917E7104840F27E4108F0E9FE6368D9
:103DF000F7E6032042E7012070470A4A93684FF034
:103E0000800923F0F00343EA09039360636801E744
:103E1000044B1B6858057FF530AFF2E600200240E6
:103E200000B4C404001002403CB40108B4C301084B
:103E300050010020040000201168090754BFD2F887
:103E4000942012681F4954BFC2F30322C2F3031225
:103E500051F822701C4AD1681C4A01F00301023952
:103E6000012998BF17461848194EC268C2F30312B9
:103E7000511CC268C2F3062207FB02F2B2FBF1F248
:103E8000C168C1F3416101314900B2FBF1F2B242B4
:103E90000AD9826812F0F00F09D0226812F00209E4
:103EA0003FF4B8AEA26812B14FF00009B2E68268E2
:103EB00022F0F00242F0800282604FF08009A9E611
:103EC000024FD0E7CCC30108001002400024F400E8
:103ED00000B4C404014B1868704700BF50010020B3
:103EE000054B064A9B680649C3F302230868D35C66
:103EF00003F01F03D840704700100240C4C30108FC
:103F000050010020054B064A9B680649C3F3C223B3
:103F10000868D35C03F01F03D840704700100240CC
:103F2000C4C301085001002010B50446002862D027
:103F30003F22344B22601A6851034CD54FF4A02322
:103F40006360304B1A6802F00102A2615A68C2F342
:103F50000722E2611A6802F0F00222621A6802F493
:103F60008072E2605A68C2F306622261D3F8902040
:103F7000520738D50523A360224BD3F8942002F0D2
:103F800001026261D3F8982002F0010262621A68AD
:103F900012F0807F14BF02220122A262DA6802F0CE
:103FA0000302E262DA68C2F3031201322263DA68C2
:103FB000C2F306226263DA68C2F341520132520050
:103FC000E263DA68C2F34162013252002264DB68C4
:103FD000DB0EA36310BD1B6813F4803318BF4FF4CE
:103FE00080336360ADE7D3F8903013F0010318BF5E
:103FF0000123A360C0E7044840F2FC5108F0E0FD53
:1040000096E700BF001002403CB4010838B50D46E9
:104010000446D0B105B3134B13490F2222609A68AE
:1040200002F0030262609A6802F0F002A2609A68ED
:1040300002F4E062E2609B68DB0803F4E063236162
:104040000B6803F00F032B6038BD084840F29B61FA
:1040500008F0B6FD002DDED1044840F29C6108F066
:10406000AFFDD8E700100240002002403CB4010838
:10407000F8B50368032B04460D4636D86368013B48
:104080000F2B3BD8A368083B772B40D8A3696D4A18
:10409000134210D023F0887323F480335BB96A4B4A
:1040A000DA68920710D0DB68226803F003039342BA
:1040B00033D00120F8BD654840F6613108F080FD3D
:1040C000614BDA689207EED1206802286AD0032893
:1040D00061D00128EDD11B689F07EBD55A4AD36800
:1040E00023F003031843D06019E0584840F65E31CE
:1040F00008F066FD6368013B0F2BC3D9534840F6B7
:104100005F3108F05DFDA368083B772BBED94F48AF
:104110004FF4366108F054FDB8E7002BC9D04A4E81
:10412000336823F080633360FDF728FD074604E021
:10413000FDF724FDC31B022B38D833681B01F7D4CD
:10414000002D35D1E1688B1E1D2B6DD83E48404BAC
:104150000569A2682B4043EA02236268013A43EAF8
:10416000021343EAC1630361374D2B6843F0806358
:104170002B60FDF703FD064604E0FDF7FFFC801B06
:10418000022813D82B681B01F7D52B69A2691343AA
:1041900000202B61F8BD1A6891039FD41B685A0355
:1041A00087D59BE71B685E0583D597E70320F8BD9D
:1041B000012D1FD06269082A15D84FF4AA73D34085
:1041C000D90710D52048234B0569A1682B4043EA45
:1041D0000123616852080139013A43EA011343EAB5
:1041E00042630361C0E7194840F6EA3108F0E8FC91
:1041F0006269E7E72369082B1DD9144840F6D831D6
:1042000008F0DEFC23691048A16805695B085A1EA6
:10421000114B2B4043EA01236168013943EA011342
:1042200043EA425303619FE740F6B431074808F080
:10423000C7FCE1688AE74FF4AA72DA40D007E2D4FB
:10424000DBE700BF000011010010024098B4010834
:104250000F80FF070F80FFF90F809FFFF8B50368FD
:10426000032B04460D4636D86368013B0F2B3BD821
:10427000A368083B772B40D8A3696D4A134210D03E
:1042800023F0887323F480335BB96A4BDA689207B2
:1042900010D0DB68226803F00303934233D001207F
:1042A000F8BD654840F62E4108F08AFC614BDA689B
:1042B0009207EED1206802286AD0032861D0012835
:1042C000EDD11B689F07EBD55A4AD36823F003034F
:1042D0001843D06019E0584840F62B4108F070FCB4
:1042E0006368013B0F2BC3D9534840F62C4108F0BB
:1042F00067FCA368083B772BBED94F4840F62D4199
:1043000008F05EFCB8E7002BC9D04A4E336823F0B2
:1043100080533360FDF732FC074604E0FDF72EFCC6
:10432000C31B022B38D833689B00F7D4002D35D13E
:10433000E1688B1E1D2B6DD83E48404B4569A26835
:104340002B4043EA02236268013A43EA021343EA3C
:10435000C1634361374D2B6843F080532B60FDF7F9
:104360000DFC064604E0FDF709FC801B022813D86B
:104370002B689B00F7D56B69A269134300206B6122
:10438000F8BD1A6891039FD41B685A0387D59BE731
:104390001B685E0583D597E70320F8BD012D1FD06C
:1043A0006269082A15D84FF4AA73D340D90710D5EB
:1043B0002048234B4569A1682B4043EA01236168EB
:1043C00052080139013A43EA011343EA4263436167
:1043D000C0E7194840F6B94108F0F2FB6269E7E727
:1043E0002369082B1DD9144840F6A64108F0E8FBC4
:1043F00023691048A16845695B085A1E114B2B4080
:1044000043EA01236168013943EA011343EA425355
:1044100043619FE740F68141074808F0D1FBE1681E
:104420008AE74FF4AA72DA40D007E2D4DBE700BF94
:10443000000011010010024098B401080F80FF072E
:104440000F80FFF90F809FFF2DE9F047036823F0ED
:104450007E4222F4004282B00446002A00F02C8200
:10446000B54A134240F0288213F4006517D0E26E7B
:10447000002A00F03383202A00F0B583402A00F0A0
:104480002884602A02D0802A40F00984AB48D0F802
:104490009C1021F0E0010A43C0F89C200025D804BC
:1044A00040F11082226F002A00F02283B2F5807F53
:1044B00000F08C83B2F5007F00F00284B2F5407FFB
:1044C00003D0B2F5806F40F0D6832E46002E40F028
:1044D00018839A49206FD1F89C2022F4E0620243AD
:1044E000C1F89C20990300F1F181DA0711D5E16B45
:1044F000032906D940F29911914808F061FBE16B5C
:1045000023688E48D0F8882022F003020A43C0F8BE
:1045100088209F070CD5216C31F00C0240F0F3820B
:104520008648D0F8882022F00C020A43C0F8882080
:1045300058070CD5616C31F0300240F012837F488F
:10454000D0F8882022F030020A43C0F888201907EA
:104550000CD5A16C31F0C00240F0E3827748D0F86E
:10456000882022F0C0020A43C0F88820DA060CD561
:10457000E16C31F4407240F0DC827048D0F8882061
:1045800022F440720A43C0F888209F060CD5216DA2
:1045900031F4406240F0D5826848D0F8882022F497
:1045A00040620A43C0F8882098050CD5616E31F44A
:1045B000402240F0CE826148D0F8882022F4402288
:1045C0000A43C0F8882059050CD5A16E31F4401279
:1045D00040F0CF825948D0F8882022F440120A4394
:1045E000C0F888205A060CD5616D31F4805240F035
:1045F0003C825248D0F8882022F440520A43C0F846
:1046000088201F060CD5A16D31F4804240F039821C
:104610004A48D0F8882022F440420A43C0F8882053
:10462000D8050CD5E16D31F4803240F03682434834
:10463000D0F8882022F440320A43C0F88820D902FA
:104640000BD5216E022900F29C823C48D0F89C20B8
:1046500022F003020A43C0F89C209A0427D5626F17
:10466000002A00F0BB81B2F1806F00F0F082B2F15D
:10467000006F00F04F83B2F1406F00F0AF814FF454
:1046800008712F4808F09CFA2C49626FD1F88830E5
:1046900023F040631343B2F1006FC1F8883040F05B
:1046A000548323682549CA6842F48012CA601F03F4
:1046B0001DD5A26FB2F5804F0ED032F0406300F0EE
:1046C000B1811F4840F2412108F07AFAA26FB2F599
:1046D000804F40F0A7812368184AD2F89C1041F41B
:1046E0008041C2F89C10D16841F48031D1605803F8
:1046F0002ED5E26F002A00F07A81B2F1806F00F0CF
:104700009282B2F1006F00F0FB82B2F1406F00F0D4
:104710006E8140F266210A4808F052FA0749E26FBA
:10472000D1F8883023F040631343B2F1006FC1F831
:10473000883040F0128305E0008000FE0010024047
:1047400098B401082368B449CA6842F48012CA6068
:10475000590420D5D4F88010002900F02A81B1F145
:10476000805F00F04C82B1F1405F00F0228140F2A6
:104770008621AA4808F024FAA749D4F88020D1F865
:10478000883023F040531343B2F1805FC1F8883082
:1047900000F03E822368DA030DD5D4F8841031F09E
:1047A000040240F092819C48D0F89C2022F0040240
:1047B0000A43C0F89C209F020DD5D4F8881031F030
:1047C000080240F076819448D0F89C2022F018022C
:1047D0000A43C0F89C2058022DD5D4F88C3033F40D
:1047E000403340F098818C4F3B6823F080533B600E
:1047F000FDF7C4F9804606E0FDF7C0F9A0EB080319
:10480000022B00F22F813B689900F5D4002E40F076
:10481000D581D7F89C30D4F88C2023F4403313434F
:10482000C7F89C30022104F12000FFF717FD236830
:10483000002840F098821A0217D5D4F89020002A58
:1048400000F0DE80B2F5805F40F0A381724AD2F8BA
:104850009C3043F48053C2F89C30012104F12000C5
:10486000FFF7FCFC236800B10546DB0120D5D4F836
:10487000942032F4801300F0A580B2F5001F00F000
:10488000308240F21F31654808F09AF96249D4F845
:104890009420D1F89C3023F440131343B2F5001F49
:1048A000C1F89C3004D15C4AD36843F48013D360D0
:1048B000284602B0BDE8F0875848C92108F080F9C1
:1048C0002368D1E52E4699037FF50FAED4F89830D2
:1048D00033F4407304D051484FF4A27108F070F9DA
:1048E0004D4B9A6DD20000F193809A6D42F0805248
:1048F0009A659B6D03F080530193019B4FF0010972
:10490000474F3B6843F480733B60FDF737F98046BF
:1049100006E0FDF733F9A0EB0803022B00F29F80BD
:104920003B68DB05F5D5002E40F00D82DFF8E8A0EE
:10493000DAF8903013F4407327D0D4F898209A42D4
:1049400025D0DAF89010DAF8903043F48033CAF8C2
:104950009030DAF8903023F48033CAF89030C807EA
:1049600021F44073CAF8903040F1F581FDF706F963
:1049700041F28838074604E0FDF700F9C01B4045C6
:104980006DD8DAF890309907F6D5D4F898302249E6
:10499000D1F8902022F440721343C1F89030B9F15D
:1049A000000F04D01C4A936D23F080539365236855
:1049B0009BE51948D0F8882022F040520A43C0F8FD
:1049C0008820E8E61449D1F89C3023F440131343BF
:1049D0002846C1F89C3002B0BDE8F0870E48D0F8F8
:1049E000881021F040610A43C0F888205FE60A4839
:1049F000D0F8881021F040610A43C0F88820A7E66B
:104A00000549D1F89C2022F48052C1F89C202CE763
:104A10004FF0000974E700BF0010024098B401088D
:104A200000700040B44BD3F89C1021F48041C3F8CF
:104A30009C10D3F8881021F040611143B2F1006F4F
:104A4000C3F8881005D1DA6842F48012DA6023686E
:104A50004DE6B2F1806F00F06781236847E60325D9
:104A60002E469CE723680325E5E6B1F5005F3FF499
:104A7000C0AD40F2EF11A14808F0A2F8616D2368C3
:104A8000B7E5B1F5004F3FF4C3AD40F2FB119B48D1
:104A900008F096F8A16D2368BAE5B1F5003F3FF440
:104AA000C6AD40F20721954808F08AF8E16D236809
:104AB000BDE510293FF487AE40F2CB218F4808F0C6
:104AC0007FF8D4F8881023687DE64FF430718B4866
:104AD00008F076F8D4F88410236864E60021201DDD
:104AE000FFF7C6FA0546002D00F086802368D6E45D
:104AF0000021201DFFF7BCFA06462368002E3FF474
:104B0000E8AC3546DFE640F2A3117C4808F058F8DF
:104B1000216C236804E5794840F2DB2108F050F865
:104B200061E640F2BD11754808F04AF8A16C2368AF
:104B300014E540F2CB11714808F042F8E16C2368AB
:104B40001BE540F2D7116D4808F03AF8216D236853
:104B500022E54FF4F071694808F032F8616E23687D
:104B600029E540F2AF11654808F02AF8616C236826
:104B7000E5E440F2E711614808F022F8A16E2368ED
:104B800028E540F213215D4808F01AF8216E2368E9
:104B90005BE540F20531594808F012F85649D4F85F
:104BA0009020D1F89C3023F480531343B2F5805FFA
:104BB000C1F89C303FF451AE236856E62368354671
:104BC00039E6002B94D0B3F5807F64D1002104F145
:104BD0002000FFF743FB2368064677E4002A3FF4F2
:104BE0007DAF202A67D1002104F12000FFF736FBBA
:104BF0000546002D7FF47AAFE26E236846E43E4A14
:104C0000D2F8883023F0405343F08053C2F8883004
:104C10000221201DFFF72CFA2368064600283FF4E6
:104C2000BAAD0546B7E5344AD2F8883023F0406380
:104C300043F08063C2F888300121201DFFF718FA85
:104C40002368064600283FF483AD054680E52A4ADE
:104C5000D2F8883023F0406343F08063C2F8883094
:104C60000121201DFFF704FA2368064600283FF4BF
:104C70001EAD05461BE5214840F20F1107F0A0FFCD
:104C8000236FB3F5007F1AD09BD9B3F5407F56D080
:104C9000B3F5806F53D0012523682E4613E61748DD
:104CA000D12107F08DFFE26E402A11D096D9602AFB
:104CB000A3D0802AA1D023680125FFF7F0BB236889
:104CC0000D49CA6842F48032CA602E46FFF7FEBB27
:104CD00023680948C16841F480314022C160FFF770
:104CE000D5BB054AD2F89C3023F4401343F400139B
:104CF000C2F89C30D7E500BF0010024098B401080C
:104D00001A49D1F8882022F0406242F00062C1F8CE
:104D1000882018E51549D1F8882022F0406242F039
:104D20000062C1F88820BDE40121201DFFF7A0F931
:104D30002368064600283FF4DAAC0546D7E423682A
:104D40002E46FFF7C3BB354629E6B2F1806F18BF88
:104D5000236885D0ABE4134619E6B2F1806F3FF4C7
:104D60006BAF2368F4E4054665E500BF0010024020
:104D7000624B634A0260D96801F0030141601A691D
:104D8000C2F30312013282601A69C2F30622C260C2
:104D90001A69520B02F01002073202611A69C2F35B
:104DA00041520132520042611A690162C2F341620A
:104DB0000132520082615A69C2F303120132426227
:104DC0005A69C2F3062282625A69520B02F010023B
:104DD0000732C2625A69C2F3415201325200026381
:104DE0005A69C2F34162013252004263D3F888200B
:104DF00002F00302C263D3F8882002F00C020264BE
:104E0000D3F8882002F030024264D3F8882002F000
:104E1000C0028264D3F8882002F44072C264D3F8DE
:104E2000882002F440620265D3F8882002F44052E0
:104E30004265D3F8882002F440428265D3F8882086
:104E400002F44032C265D3F89C2002F003020266ED
:104E5000D3F8882002F440224266D3F8882002F476
:104E600040128266D3F89C2002F0E002C266D3F8BA
:104E70009C2002F4E0620267D3F8902002F44072B2
:104E8000C0F89820D3F8882002F040624267D3F837
:104E90009C20520458BFD3F88820184B54BF02F00E
:104EA00040624FF480428267D3F8882002F040626B
:104EB000C267D3F8882002F04052C0F88020D3F8AF
:104EC0009C2002F00402C0F88420D3F89C2002F059
:104ED0001802C0F88820D3F89C2002F44032C0F8B1
:104EE0008C20D3F89C2002F48052C0F89020D3F894
:104EF0009C3003F44013C0F8943070470010024017
:104F0000FF7FFF01806A036F184700BF806A436F0D
:104F1000184700BF806A836F184700BF806A026825
:104F2000C16F536823F003035360036E4FF0010C0D
:104F300043F01003036680F85DC008472DE9F04395
:104F400083B09846002315468DF8033006460C467C
:104F5000FCF714FEA844A8EB0007FCF70FFE304B4B
:104F6000D6F800901B6803EB8303C3EBC3031B0D50
:104F700007FB03F3804601934A4601E06B1C0ED108
:104F8000936823401DD0B4F5C06FF7D199F80C3069
:104F9000DBB28DF803309DF803306B1CF0D0FCF7CA
:104FA000EDFDA0EB0800B8420FD2019B3268002B48
:104FB000019B03F1FF330193936808BF002723404F
:104FC000E1D1184603B0BDE8F083D6E900315A6854
:104FD000B1F5827F22F0E0025A6014D0B26AB2F5D5
:104FE000005F07D00122002386F85D2086F85C3040
:104FF0000320E7E71A6822F400521A601A6842F4A4
:1050000000521A60EEE7B268B2F5004F02D0B2F576
:10501000806FE3D11A6822F040021A60DEE700BF19
:1050200050010020F0B583B00C4615460646FCF74B
:10503000A5FD25442D1AFCF7A1FD254B1B68C3F3E4
:10504000CB3305FB03F307460193326801E0631C91
:1050500006D1936813F08003F9D1184603B0F0BD70
:10506000FCF78CFDC01BA84208D2019B002B019BC2
:1050700003F1FF3308BF00250193E6E7D6E90031CD
:105080005A68B1F5827F22F0E0025A6014D0B26A09
:10509000B2F5005F07D00122002386F85D2086F874
:1050A0005C300320DAE71A6822F400521A601A68AA
:1050B00042F400521A60EEE7B268B2F5004F02D037
:1050C000B2F5806FE3D11A6822F040021A60DEE781
:1050D00050010020F8B54368B3F5827F04460E46C0
:1050E00017460CD03A4631462046FFF79BFF05464F
:1050F000C8B96368B3F5827F1CD02846F8BD8368C1
:10510000B3F5004F02D0B3F5806FEBD12068036890
:1051100023F0400303603A4631462046FFF782FF02
:1051200005460028E5D0236E032543F020032366BF
:105130002846F8BDA368B3F5004F02D0B3F5806FE1
:10514000DBD13B4632464FF4C0612046FFF7F6FE06
:105150000028D2D0E7E700BF70B50546846AFCF7A7
:105160000DFD2B681B689B061AD4236859680246FC
:10517000A06821F020015960B8B1596821F00101FF
:10518000596064212046FFF7A5FF08B1202323665C
:1051900001230022A4F8462084F85D30236E6BB909
:1051A000A36E2046BDE8704018476168B1F5827F64
:1051B000E3D1596821F003015960E2E7E36F20462B
:1051C000BDE87040184700BF70B513460D4616463F
:1051D0000A464FF4C0510446FFF7B0FE70B932469C
:1051E00029462046FFF71EFF40B933462A464FF4B2
:1051F000C0612046FFF7A2FE00B970BD236E43F0E8
:1052000020030320236670BD30B5054683B0846A51
:10521000FCF7B4FC2B681B689B0605D5636E204623
:1052200003B0BDE83040184723680246586820F0B4
:1052300020005860586820F0020058606421204621
:10524000FFF7C2FF18B1236E43F020032366A36863
:1052500033B922680193D368019393680193019B4A
:1052600001230022E28784F85D30236E002BD5D025
:10527000E36F204603B0BDE83040184770B50546DF
:10528000846AFCF77BFC2B681B689B0604D5E36EE5
:105290002046BDE87040184725686B6823F020035E
:1052A000024664216B602046FFF78EFF18B1236E23
:1052B00043F02003236621684B68002223F0030398
:1052C00001204B60E287A4F8462084F85D00236E3D
:1052D000002BDCD0E36F2046BDE87040184700BFCC
:1052E000704700BF704700BF704700BF704700BFE6
:1052F000704700BF704700BF704700BF704700BFD6
:10530000002800F02981F8B59F4A036893420446BB
:105310000CD0A2F57842934208D002F58062934205
:1053200004D09A4840F2451107F04AFC63683BB14B
:10533000B3F5827F04D095484FF4A37107F040FC89
:10534000A36833F4806240F0F080E368B3F5706FD7
:1053500018D023F44072B2F5006F13D023F400622A
:10536000B2F5C06F0ED023F41062B2F5806F09D091
:1053700023F48063B3F5407F04D084484FF4A471D4
:1053800007F01EFCA36933F4007240F0BA80636B2F
:1053900033F0080340F0C380E36933F0180306D00C
:1053A000202B04D0794840F24B1107F009FC236A06
:1053B00033F0800304D075484FF4A67107F000FC69
:1053C000636A002B40F08380236933F0020304D02A
:1053D0006E484FF4A87107F0F3FB6369012B04D901
:1053E0006A4840F2511107F0EBFB6368B3F5827F26
:1053F00000F0B4800023E36194F85D300022A262E3
:1054000003F0FF02CBB9624884F85C20614A62492C
:105410006166C4E91A026149614A6248D4F884307D
:10542000C4E91C126049614AC4F88020C4E91E0125
:10543000002B00F0A480204698472168E6680223EC
:1054400084F85D300B68B6F5E06F23F040030B6025
:1054500075D9B6F5706F40F08F80A36A4FF0000CDD
:1054600003F4005E6268A368606AA56903F40443FC
:1054700002F482721A43236903F002031343626940
:1054800002F001021A43636B00F0100003F00803FE
:105490001843E36906F47066304303F03807266A60
:1054A00005F40073134306F080063B43334343EA9D
:1054B0000E030B602B0C03F00403034343EA0C03BD
:1054C0004B6000200123206684F85D30F8BD102B6E
:1054D00008D02E4840F24D1107F072FB636A002B92
:1054E0003FF472AFE36933F0180306D0202B04D0E9
:1054F000264840F25F1107F063FB0023C4E9043340
:105500007AE7B3F5802F3FF442AF204840F24911CB
:1055100007F056FB636B33F008033FF43DAF1B48C5
:105520004FF4A57107F04CFB36E7B3F5004F3FF49D
:105530000CAF164840F2471107F042FB05E705D0D3
:105540004FF4805C0023A3629E468BE7A36A4FF46E
:10555000805C03F4005E85E701207047E36933F067
:1055600018033FF449AF202B3FF446AF074840F201
:10557000551107F025FB3FE74FF0000CE2E70C4B1D
:10558000C4F8843057E700BF00300140F4B401088C
:10559000E9520008ED520008E5520008F1520008F7
:1055A000F5520008F9520008FD520008E1520008C7
:1055B000C1DA0008002A3BD090F85C30012B3ED0C5
:1055C00000B590F85DC04FF0010EF44580F85CE046
:1055D0005FFA8CF311D090F85D301BB908291ED00A
:1055E000092913D0026E42F080027346026600223F
:1055F00080F85C2018465DF804FB09293BD8DFE8F9
:1056000001F025282B2E313437210E05C0F88820D3
:105610000022002380F85C2018465DF804FBC0F8E7
:1056200084200022002380F85C2018465DF804FBEB
:10563000026E012342F08002026618467047022380
:1056400018467047C0F880200023D0E742660B461A
:10565000CDE782660023CAE7C2660023C7E7026778
:105660000023C4E742670023C1E782670023BEE747
:10567000C2670023BBE7026E42F080020266B6E713
:105680002DE9F041044680681D4630F4004382B0A5
:105690000F46904604D073484FF44F7107F090FACC
:1056A00094F85C30012B62D0012384F85C30FCF765
:1056B00065FA94F85D30012B0646D8B209D0022075
:1056C0000122002384F85D2084F85C3002B0BDE83C
:1056D000F081002FF4D0B8F1000FF1D0A268A763D9
:1056E00000230321B2F5004F84F85D10C4E91333A1
:1056F00023662364A4F84430A4F83E80A4F83C80D8
:10570000A4F8463023685CD01A68520603D41A689D
:1057100042F040021A60E268B2F5E06F62682AD98E
:10572000002A57D0B8F1010F54D0E28F92B292B94B
:1057300077E0A26B32F8021BD960B4F83EC0A263D6
:105740000CF1FF3C1FFA8CFCA4F83EC0E38F9BB227
:10575000002B66D023689A689707EAD4FCF70EFA04
:10576000801BA8425AD3681CF0D00320A8E702206F
:1057700002B0BDE8F081002A35D0B8F1010F32D077
:10578000E38F9BB28BB94CE0E38F9BB2012B37D9EF
:10579000A16B31F8023BD360E38FA163023B9BB264
:1057A000E387E18F89B200293BD02268936899078B
:1057B000EAD4FCF7E3F9801BA8422CD36B1CF0D091
:1057C000D3E71A6822F040021A601A6842F4804255
:1057D0001A6099E737F8022BDA60E28FA763013A83
:1057E00092B2E287A1E7E28F92B2012A2FD937F86D
:1057F000022BDA60E38FA763023B9BB2E387BFE72C
:10580000A36B1B781373E38FA26B013B01329BB236
:10581000A263E387C5E7002DC3D1A6E7002D95D18C
:10582000A3E7324629462046FFF7CEFC08B12023E5
:105830002366A36833B922680193D3680193936800
:105840000193019B206E003818BF012038E73A7899
:105850001A73E38FA26B013B01329BB2A263E38711
:105860008EE700BFF4B40108F8B5436D04460F4657
:105870001546002B72D0A36833F4004304D0474888
:105880004FF4E96107F09CF994F85C30012B6BD080
:1058900094F85D300122934284F85C20DEB205D09A
:1058A0000226002384F85C303046F8BD002FF8D083
:1058B000002DF6D0A268A763032384F85D30B2F50B
:1058C000004F4FF000032366C4E91333E5872268D5
:1058D000A5872364A4F84430A4F8463035D0606D21
:1058E0002F4D5368E16805632E4DC5622E4D45630B
:1058F00023F480430025B1F5E06F8563536003D83E
:105900008369B3F5806F32D0E38F0C3239469BB296
:10591000FCF746FB88B923681A68520603D41A6854
:1059200042F040021A605A6842F020025A605A68F7
:1059300042F0020200265A60B3E7236E012243F0D0
:105940001003236684F85D20ABE7136823F040035F
:105950001360136843F480431360C0E70F4840F2BC
:10596000457107F02DF986E702263046F8BDE38F32
:1059700013F0010F536807D123F480435360E38F82
:10598000C3F34E03E387BFE743F480435360E38FE1
:10599000C3F34E030133E387B6E700BFF4B4010855
:1059A000054F0008095200081D4F0008F8B50446CD
:1059B000806D0E4617461D46002800F09580606DEC
:1059C000002800F08B80A06800287BD194F85C0050
:1059D000012800F0818094F85D000123984284F84A
:1059E0005C30C2B20DD06368B3F5827F04D0022070
:1059F000002384F85C30F8BDA368002BF7D1042A9B
:105A0000F5D1002E5CD0002F5AD0002D58D094F83C
:105A10005D302168A663042B1CBF052384F85D302C
:105A200000232366E587A4F84650C4E913334B6886
:105A3000A58723F4C0432764A4F844504B60E3686F
:105A4000B3F5E06F4B685ED923F48053A06D4B60D3
:105A500094F85D30042B77D04D4B03634D4BC362FC
:105A60004D4B436300238363B4F846303A469BB200
:105A70000C31FCF795FA00283CD12268616D53681F
:105A800043F001035360E38F0C32C1E90B00C1E91D
:105A90000D009BB20846A16BFCF782FA50BB23684D
:105AA0001A68520603D41A6842F040021A605A6813
:105AB00042F020025A605A6842F002025A6097E7A8
:105AC000012095E7354840F65A0107F079F894F837
:105AD0005C0001287FF47FAF0220F8BD2F4840F61C
